{
  "abi": [
    {
      "type": "constructor",
      "inputs": [
        {
          "name": "init",
          "type": "uint8",
          "internalType": "enum ICMInitializable"
        }
      ],
      "stateMutability": "nonpayable"
    },
    {
      "type": "function",
      "name": "BIPS_CONVERSION_FACTOR",
      "inputs": [],
      "outputs": [
        {
          "name": "",
          "type": "uint16",
          "internalType": "uint16"
        }
      ],
      "stateMutability": "view"
    },
    {
      "type": "function",
      "name": "ERC20_STAKING_MANAGER_STORAGE_LOCATION",
      "inputs": [],
      "outputs": [
        {
          "name": "",
          "type": "bytes32",
          "internalType": "bytes32"
        }
      ],
      "stateMutability": "view"
    },
    {
      "type": "function",
      "name": "MAXIMUM_DELEGATION_FEE_BIPS",
      "inputs": [],
      "outputs": [
        {
          "name": "",
          "type": "uint16",
          "internalType": "uint16"
        }
      ],
      "stateMutability": "view"
    },
    {
      "type": "function",
      "name": "MAXIMUM_STAKE_MULTIPLIER_LIMIT",
      "inputs": [],
      "outputs": [
        {
          "name": "",
          "type": "uint8",
          "internalType": "uint8"
        }
      ],
      "stateMutability": "view"
    },
    {
      "type": "function",
      "name": "STAKING_MANAGER_STORAGE_LOCATION",
      "inputs": [],
      "outputs": [
        {
          "name": "",
          "type": "bytes32",
          "internalType": "bytes32"
        }
      ],
      "stateMutability": "view"
    },
    {
      "type": "function",
      "name": "WARP_MESSENGER",
      "inputs": [],
      "outputs": [
        {
          "name": "",
          "type": "address",
          "internalType": "contract IWarpMessenger"
        }
      ],
      "stateMutability": "view"
    },
    {
      "type": "function",
      "name": "changeDelegatorRewardRecipient",
      "inputs": [
        {
          "name": "delegationID",
          "type": "bytes32",
          "internalType": "bytes32"
        },
        {
          "name": "rewardRecipient",
          "type": "address",
          "internalType": "address"
        }
      ],
      "outputs": [],
      "stateMutability": "nonpayable"
    },
    {
      "type": "function",
      "name": "changeValidatorRewardRecipient",
      "inputs": [
        {
          "name": "validationID",
          "type": "bytes32",
          "internalType": "bytes32"
        },
        {
          "name": "rewardRecipient",
          "type": "address",
          "internalType": "address"
        }
      ],
      "outputs": [],
      "stateMutability": "nonpayable"
    },
    {
      "type": "function",
      "name": "claimDelegationFees",
      "inputs": [
        {
          "name": "validationID",
          "type": "bytes32",
          "internalType": "bytes32"
        }
      ],
      "outputs": [],
      "stateMutability": "nonpayable"
    },
    {
      "type": "function",
      "name": "completeDelegatorRegistration",
      "inputs": [
        {
          "name": "delegationID",
          "type": "bytes32",
          "internalType": "bytes32"
        },
        {
          "name": "messageIndex",
          "type": "uint32",
          "internalType": "uint32"
        }
      ],
      "outputs": [],
      "stateMutability": "nonpayable"
    },
    {
      "type": "function",
      "name": "completeDelegatorRemoval",
      "inputs": [
        {
          "name": "delegationID",
          "type": "bytes32",
          "internalType": "bytes32"
        },
        {
          "name": "messageIndex",
          "type": "uint32",
          "internalType": "uint32"
        }
      ],
      "outputs": [],
      "stateMutability": "nonpayable"
    },
    {
      "type": "function",
      "name": "completeValidatorRegistration",
      "inputs": [
        {
          "name": "messageIndex",
          "type": "uint32",
          "internalType": "uint32"
        }
      ],
      "outputs": [
        {
          "name": "",
          "type": "bytes32",
          "internalType": "bytes32"
        }
      ],
      "stateMutability": "nonpayable"
    },
    {
      "type": "function",
      "name": "completeValidatorRemoval",
      "inputs": [
        {
          "name": "messageIndex",
          "type": "uint32",
          "internalType": "uint32"
        }
      ],
      "outputs": [
        {
          "name": "",
          "type": "bytes32",
          "internalType": "bytes32"
        }
      ],
      "stateMutability": "nonpayable"
    },
    {
      "type": "function",
      "name": "erc20",
      "inputs": [],
      "outputs": [
        {
          "name": "",
          "type": "address",
          "internalType": "contract IERC20Mintable"
        }
      ],
      "stateMutability": "view"
    },
    {
      "type": "function",
      "name": "forceInitiateDelegatorRemoval",
      "inputs": [
        {
          "name": "delegationID",
          "type": "bytes32",
          "internalType": "bytes32"
        },
        {
          "name": "includeUptimeProof",
          "type": "bool",
          "internalType": "bool"
        },
        {
          "name": "messageIndex",
          "type": "uint32",
          "internalType": "uint32"
        }
      ],
      "outputs": [],
      "stateMutability": "nonpayable"
    },
    {
      "type": "function",
      "name": "forceInitiateValidatorRemoval",
      "inputs": [
        {
          "name": "validationID",
          "type": "bytes32",
          "internalType": "bytes32"
        },
        {
          "name": "includeUptimeProof",
          "type": "bool",
          "internalType": "bool"
        },
        {
          "name": "messageIndex",
          "type": "uint32",
          "internalType": "uint32"
        }
      ],
      "outputs": [],
      "stateMutability": "nonpayable"
    },
    {
      "type": "function",
      "name": "getDelegatorInfo",
      "inputs": [
        {
          "name": "delegationID",
          "type": "bytes32",
          "internalType": "bytes32"
        }
      ],
      "outputs": [
        {
          "name": "",
          "type": "tuple",
          "internalType": "struct Delegator",
          "components": [
            {
              "name": "status",
              "type": "uint8",
              "internalType": "enum DelegatorStatus"
            },
            {
              "name": "owner",
              "type": "address",
              "internalType": "address"
            },
            {
              "name": "validationID",
              "type": "bytes32",
              "internalType": "bytes32"
            },
            {
              "name": "weight",
              "type": "uint64",
              "internalType": "uint64"
            },
            {
              "name": "startTime",
              "type": "uint64",
              "internalType": "uint64"
            },
            {
              "name": "startingNonce",
              "type": "uint64",
              "internalType": "uint64"
            },
            {
              "name": "endingNonce",
              "type": "uint64",
              "internalType": "uint64"
            }
          ]
        }
      ],
      "stateMutability": "view"
    },
    {
      "type": "function",
      "name": "getDelegatorRewardInfo",
      "inputs": [
        {
          "name": "delegationID",
          "type": "bytes32",
          "internalType": "bytes32"
        }
      ],
      "outputs": [
        {
          "name": "",
          "type": "address",
          "internalType": "address"
        },
        {
          "name": "",
          "type": "uint256",
          "internalType": "uint256"
        }
      ],
      "stateMutability": "view"
    },
    {
      "type": "function",
      "name": "getStakingManagerSettings",
      "inputs": [],
      "outputs": [
        {
          "name": "",
          "type": "tuple",
          "internalType": "struct StakingManagerSettings",
          "components": [
            {
              "name": "manager",
              "type": "address",
              "internalType": "contract IValidatorManager"
            },
            {
              "name": "minimumStakeAmount",
              "type": "uint256",
              "internalType": "uint256"
            },
            {
              "name": "maximumStakeAmount",
              "type": "uint256",
              "internalType": "uint256"
            },
            {
              "name": "minimumStakeDuration",
              "type": "uint64",
              "internalType": "uint64"
            },
            {
              "name": "minimumDelegationFeeBips",
              "type": "uint16",
              "internalType": "uint16"
            },
            {
              "name": "maximumStakeMultiplier",
              "type": "uint8",
              "internalType": "uint8"
            },
            {
              "name": "weightToValueFactor",
              "type": "uint256",
              "internalType": "uint256"
            },
            {
              "name": "rewardCalculator",
              "type": "address",
              "internalType": "contract IRewardCalculator"
            },
            {
              "name": "uptimeBlockchainID",
              "type": "bytes32",
              "internalType": "bytes32"
            }
          ]
        }
      ],
      "stateMutability": "view"
    },
    {
      "type": "function",
      "name": "getStakingValidator",
      "inputs": [
        {
          "name": "validationID",
          "type": "bytes32",
          "internalType": "bytes32"
        }
      ],
      "outputs": [
        {
          "name": "",
          "type": "tuple",
          "internalType": "struct PoSValidatorInfo",
          "components": [
            {
              "name": "owner",
              "type": "address",
              "internalType": "address"
            },
            {
              "name": "delegationFeeBips",
              "type": "uint16",
              "internalType": "uint16"
            },
            {
              "name": "minStakeDuration",
              "type": "uint64",
              "internalType": "uint64"
            },
            {
              "name": "uptimeSeconds",
              "type": "uint64",
              "internalType": "uint64"
            }
          ]
        }
      ],
      "stateMutability": "view"
    },
    {
      "type": "function",
      "name": "getValidatorRewardInfo",
      "inputs": [
        {
          "name": "validationID",
          "type": "bytes32",
          "internalType": "bytes32"
        }
      ],
      "outputs": [
        {
          "name": "",
          "type": "address",
          "internalType": "address"
        },
        {
          "name": "",
          "type": "uint256",
          "internalType": "uint256"
        }
      ],
      "stateMutability": "view"
    },
    {
      "type": "function",
      "name": "initialize",
      "inputs": [
        {
          "name": "settings",
          "type": "tuple",
          "internalType": "struct StakingManagerSettings",
          "components": [
            {
              "name": "manager",
              "type": "address",
              "internalType": "contract IValidatorManager"
            },
            {
              "name": "minimumStakeAmount",
              "type": "uint256",
              "internalType": "uint256"
            },
            {
              "name": "maximumStakeAmount",
              "type": "uint256",
              "internalType": "uint256"
            },
            {
              "name": "minimumStakeDuration",
              "type": "uint64",
              "internalType": "uint64"
            },
            {
              "name": "minimumDelegationFeeBips",
              "type": "uint16",
              "internalType": "uint16"
            },
            {
              "name": "maximumStakeMultiplier",
              "type": "uint8",
              "internalType": "uint8"
            },
            {
              "name": "weightToValueFactor",
              "type": "uint256",
              "internalType": "uint256"
            },
            {
              "name": "rewardCalculator",
              "type": "address",
              "internalType": "contract IRewardCalculator"
            },
            {
              "name": "uptimeBlockchainID",
              "type": "bytes32",
              "internalType": "bytes32"
            }
          ]
        },
        {
          "name": "token",
          "type": "address",
          "internalType": "contract IERC20Mintable"
        }
      ],
      "outputs": [],
      "stateMutability": "nonpayable"
    },
    {
      "type": "function",
      "name": "initiateDelegatorRegistration",
      "inputs": [
        {
          "name": "validationID",
          "type": "bytes32",
          "internalType": "bytes32"
        },
        {
          "name": "delegationAmount",
          "type": "uint256",
          "internalType": "uint256"
        },
        {
          "name": "rewardRecipient",
          "type": "address",
          "internalType": "address"
        }
      ],
      "outputs": [
        {
          "name": "",
          "type": "bytes32",
          "internalType": "bytes32"
        }
      ],
      "stateMutability": "nonpayable"
    },
    {
      "type": "function",
      "name": "initiateDelegatorRemoval",
      "inputs": [
        {
          "name": "delegationID",
          "type": "bytes32",
          "internalType": "bytes32"
        },
        {
          "name": "includeUptimeProof",
          "type": "bool",
          "internalType": "bool"
        },
        {
          "name": "messageIndex",
          "type": "uint32",
          "internalType": "uint32"
        }
      ],
      "outputs": [],
      "stateMutability": "nonpayable"
    },
    {
      "type": "function",
      "name": "initiateValidatorRegistration",
      "inputs": [
        {
          "name": "nodeID",
          "type": "bytes",
          "internalType": "bytes"
        },
        {
          "name": "blsPublicKey",
          "type": "bytes",
          "internalType": "bytes"
        },
        {
          "name": "remainingBalanceOwner",
          "type": "tuple",
          "internalType": "struct PChainOwner",
          "components": [
            {
              "name": "threshold",
              "type": "uint32",
              "internalType": "uint32"
            },
            {
              "name": "addresses",
              "type": "address[]",
              "internalType": "address[]"
            }
          ]
        },
        {
          "name": "disableOwner",
          "type": "tuple",
          "internalType": "struct PChainOwner",
          "components": [
            {
              "name": "threshold",
              "type": "uint32",
              "internalType": "uint32"
            },
            {
              "name": "addresses",
              "type": "address[]",
              "internalType": "address[]"
            }
          ]
        },
        {
          "name": "delegationFeeBips",
          "type": "uint16",
          "internalType": "uint16"
        },
        {
          "name": "minStakeDuration",
          "type": "uint64",
          "internalType": "uint64"
        },
        {
          "name": "stakeAmount",
          "type": "uint256",
          "internalType": "uint256"
        },
        {
          "name": "rewardRecipient",
          "type": "address",
          "internalType": "address"
        }
      ],
      "outputs": [
        {
          "name": "",
          "type": "bytes32",
          "internalType": "bytes32"
        }
      ],
      "stateMutability": "nonpayable"
    },
    {
      "type": "function",
      "name": "initiateValidatorRemoval",
      "inputs": [
        {
          "name": "validationID",
          "type": "bytes32",
          "internalType": "bytes32"
        },
        {
          "name": "includeUptimeProof",
          "type": "bool",
          "internalType": "bool"
        },
        {
          "name": "messageIndex",
          "type": "uint32",
          "internalType": "uint32"
        }
      ],
      "outputs": [],
      "stateMutability": "nonpayable"
    },
    {
      "type": "function",
      "name": "resendUpdateDelegator",
      "inputs": [
        {
          "name": "delegationID",
          "type": "bytes32",
          "internalType": "bytes32"
        }
      ],
      "outputs": [],
      "stateMutability": "nonpayable"
    },
    {
      "type": "function",
      "name": "submitUptimeProof",
      "inputs": [
        {
          "name": "validationID",
          "type": "bytes32",
          "internalType": "bytes32"
        },
        {
          "name": "messageIndex",
          "type": "uint32",
          "internalType": "uint32"
        }
      ],
      "outputs": [],
      "stateMutability": "nonpayable"
    },
    {
      "type": "function",
      "name": "valueToWeight",
      "inputs": [
        {
          "name": "value",
          "type": "uint256",
          "internalType": "uint256"
        }
      ],
      "outputs": [
        {
          "name": "",
          "type": "uint64",
          "internalType": "uint64"
        }
      ],
      "stateMutability": "view"
    },
    {
      "type": "function",
      "name": "weightToValue",
      "inputs": [
        {
          "name": "weight",
          "type": "uint64",
          "internalType": "uint64"
        }
      ],
      "outputs": [
        {
          "name": "",
          "type": "uint256",
          "internalType": "uint256"
        }
      ],
      "stateMutability": "view"
    },
    {
      "type": "event",
      "name": "CompletedDelegatorRegistration",
      "inputs": [
        {
          "name": "delegationID",
          "type": "bytes32",
          "indexed": true,
          "internalType": "bytes32"
        },
        {
          "name": "validationID",
          "type": "bytes32",
          "indexed": true,
          "internalType": "bytes32"
        },
        {
          "name": "startTime",
          "type": "uint256",
          "indexed": false,
          "internalType": "uint256"
        }
      ],
      "anonymous": false
    },
    {
      "type": "event",
      "name": "CompletedDelegatorRemoval",
      "inputs": [
        {
          "name": "delegationID",
          "type": "bytes32",
          "indexed": true,
          "internalType": "bytes32"
        },
        {
          "name": "validationID",
          "type": "bytes32",
          "indexed": true,
          "internalType": "bytes32"
        },
        {
          "name": "rewards",
          "type": "uint256",
          "indexed": false,
          "internalType": "uint256"
        },
        {
          "name": "fees",
          "type": "uint256",
          "indexed": false,
          "internalType": "uint256"
        }
      ],
      "anonymous": false
    },
    {
      "type": "event",
      "name": "DelegatorRewardClaimed",
      "inputs": [
        {
          "name": "delegationID",
          "type": "bytes32",
          "indexed": true,
          "internalType": "bytes32"
        },
        {
          "name": "recipient",
          "type": "address",
          "indexed": true,
          "internalType": "address"
        },
        {
          "name": "amount",
          "type": "uint256",
          "indexed": false,
          "internalType": "uint256"
        }
      ],
      "anonymous": false
    },
    {
      "type": "event",
      "name": "DelegatorRewardRecipientChanged",
      "inputs": [
        {
          "name": "delegationID",
          "type": "bytes32",
          "indexed": true,
          "internalType": "bytes32"
        },
        {
          "name": "recipient",
          "type": "address",
          "indexed": true,
          "internalType": "address"
        },
        {
          "name": "oldRecipient",
          "type": "address",
          "indexed": true,
          "internalType": "address"
        }
      ],
      "anonymous": false
    },
    {
      "type": "event",
      "name": "Initialized",
      "inputs": [
        {
          "name": "version",
          "type": "uint64",
          "indexed": false,
          "internalType": "uint64"
        }
      ],
      "anonymous": false
    },
    {
      "type": "event",
      "name": "InitiatedDelegatorRegistration",
      "inputs": [
        {
          "name": "delegationID",
          "type": "bytes32",
          "indexed": true,
          "internalType": "bytes32"
        },
        {
          "name": "validationID",
          "type": "bytes32",
          "indexed": true,
          "internalType": "bytes32"
        },
        {
          "name": "delegatorAddress",
          "type": "address",
          "indexed": true,
          "internalType": "address"
        },
        {
          "name": "nonce",
          "type": "uint64",
          "indexed": false,
          "internalType": "uint64"
        },
        {
          "name": "validatorWeight",
          "type": "uint64",
          "indexed": false,
          "internalType": "uint64"
        },
        {
          "name": "delegatorWeight",
          "type": "uint64",
          "indexed": false,
          "internalType": "uint64"
        },
        {
          "name": "setWeightMessageID",
          "type": "bytes32",
          "indexed": false,
          "internalType": "bytes32"
        },
        {
          "name": "rewardRecipient",
          "type": "address",
          "indexed": false,
          "internalType": "address"
        }
      ],
      "anonymous": false
    },
    {
      "type": "event",
      "name": "InitiatedDelegatorRemoval",
      "inputs": [
        {
          "name": "delegationID",
          "type": "bytes32",
          "indexed": true,
          "internalType": "bytes32"
        },
        {
          "name": "validationID",
          "type": "bytes32",
          "indexed": true,
          "internalType": "bytes32"
        }
      ],
      "anonymous": false
    },
    {
      "type": "event",
      "name": "InitiatedStakingValidatorRegistration",
      "inputs": [
        {
          "name": "validationID",
          "type": "bytes32",
          "indexed": true,
          "internalType": "bytes32"
        },
        {
          "name": "owner",
          "type": "address",
          "indexed": true,
          "internalType": "address"
        },
        {
          "name": "delegationFeeBips",
          "type": "uint16",
          "indexed": false,
          "internalType": "uint16"
        },
        {
          "name": "minStakeDuration",
          "type": "uint64",
          "indexed": false,
          "internalType": "uint64"
        },
        {
          "name": "rewardRecipient",
          "type": "address",
          "indexed": false,
          "internalType": "address"
        }
      ],
      "anonymous": false
    },
    {
      "type": "event",
      "name": "UptimeUpdated",
      "inputs": [
        {
          "name": "validationID",
          "type": "bytes32",
          "indexed": true,
          "internalType": "bytes32"
        },
        {
          "name": "uptime",
          "type": "uint64",
          "indexed": false,
          "internalType": "uint64"
        }
      ],
      "anonymous": false
    },
    {
      "type": "event",
      "name": "ValidatorRewardClaimed",
      "inputs": [
        {
          "name": "validationID",
          "type": "bytes32",
          "indexed": true,
          "internalType": "bytes32"
        },
        {
          "name": "recipient",
          "type": "address",
          "indexed": true,
          "internalType": "address"
        },
        {
          "name": "amount",
          "type": "uint256",
          "indexed": false,
          "internalType": "uint256"
        }
      ],
      "anonymous": false
    },
    {
      "type": "event",
      "name": "ValidatorRewardRecipientChanged",
      "inputs": [
        {
          "name": "validationID",
          "type": "bytes32",
          "indexed": true,
          "internalType": "bytes32"
        },
        {
          "name": "recipient",
          "type": "address",
          "indexed": true,
          "internalType": "address"
        },
        {
          "name": "oldRecipient",
          "type": "address",
          "indexed": true,
          "internalType": "address"
        }
      ],
      "anonymous": false
    },
    {
      "type": "error",
      "name": "AddressEmptyCode",
      "inputs": [
        {
          "name": "target",
          "type": "address",
          "internalType": "address"
        }
      ]
    },
    {
      "type": "error",
      "name": "AddressInsufficientBalance",
      "inputs": [
        {
          "name": "account",
          "type": "address",
          "internalType": "address"
        }
      ]
    },
    {
      "type": "error",
      "name": "DelegatorIneligibleForRewards",
      "inputs": [
        {
          "name": "delegationID",
          "type": "bytes32",
          "internalType": "bytes32"
        }
      ]
    },
    {
      "type": "error",
      "name": "FailedInnerCall",
      "inputs": []
    },
    {
      "type": "error",
      "name": "InvalidDelegationFee",
      "inputs": [
        {
          "name": "delegationFeeBips",
          "type": "uint16",
          "internalType": "uint16"
        }
      ]
    },
    {
      "type": "error",
      "name": "InvalidDelegationID",
      "inputs": [
        {
          "name": "delegationID",
          "type": "bytes32",
          "internalType": "bytes32"
        }
      ]
    },
    {
      "type": "error",
      "name": "InvalidDelegatorStatus",
      "inputs": [
        {
          "name": "status",
          "type": "uint8",
          "internalType": "enum DelegatorStatus"
        }
      ]
    },
    {
      "type": "error",
      "name": "InvalidInitialization",
      "inputs": []
    },
    {
      "type": "error",
      "name": "InvalidMinStakeDuration",
      "inputs": [
        {
          "name": "minStakeDuration",
          "type": "uint64",
          "internalType": "uint64"
        }
      ]
    },
    {
      "type": "error",
      "name": "InvalidNonce",
      "inputs": [
        {
          "name": "nonce",
          "type": "uint64",
          "internalType": "uint64"
        }
      ]
    },
    {
      "type": "error",
      "name": "InvalidRewardRecipient",
      "inputs": [
        {
          "name": "rewardRecipient",
          "type": "address",
          "internalType": "address"
        }
      ]
    },
    {
      "type": "error",
      "name": "InvalidStakeAmount",
      "inputs": [
        {
          "name": "stakeAmount",
          "type": "uint256",
          "internalType": "uint256"
        }
      ]
    },
    {
      "type": "error",
      "name": "InvalidStakeMultiplier",
      "inputs": [
        {
          "name": "maximumStakeMultiplier",
          "type": "uint8",
          "internalType": "uint8"
        }
      ]
    },
    {
      "type": "error",
      "name": "InvalidUptimeBlockchainID",
      "inputs": [
        {
          "name": "uptimeBlockchainID",
          "type": "bytes32",
          "internalType": "bytes32"
        }
      ]
    },
    {
      "type": "error",
      "name": "InvalidValidatorStatus",
      "inputs": [
        {
          "name": "status",
          "type": "uint8",
          "internalType": "enum ValidatorStatus"
        }
      ]
    },
    {
      "type": "error",
      "name": "InvalidWarpMessage",
      "inputs": []
    },
    {
      "type": "error",
      "name": "InvalidWarpOriginSenderAddress",
      "inputs": [
        {
          "name": "senderAddress",
          "type": "address",
          "internalType": "address"
        }
      ]
    },
    {
      "type": "error",
      "name": "InvalidWarpSourceChainID",
      "inputs": [
        {
          "name": "sourceChainID",
          "type": "bytes32",
          "internalType": "bytes32"
        }
      ]
    },
    {
      "type": "error",
      "name": "MaxWeightExceeded",
      "inputs": [
        {
          "name": "newValidatorWeight",
          "type": "uint64",
          "internalType": "uint64"
        }
      ]
    },
    {
      "type": "error",
      "name": "MinStakeDurationNotPassed",
      "inputs": [
        {
          "name": "endTime",
          "type": "uint64",
          "internalType": "uint64"
        }
      ]
    },
    {
      "type": "error",
      "name": "NotInitializing",
      "inputs": []
    },
    {
      "type": "error",
      "name": "ReentrancyGuardReentrantCall",
      "inputs": []
    },
    {
      "type": "error",
      "name": "SafeERC20FailedOperation",
      "inputs": [
        {
          "name": "token",
          "type": "address",
          "internalType": "address"
        }
      ]
    },
    {
      "type": "error",
      "name": "UnauthorizedOwner",
      "inputs": [
        {
          "name": "sender",
          "type": "address",
          "internalType": "address"
        }
      ]
    },
    {
      "type": "error",
      "name": "UnexpectedValidationID",
      "inputs": [
        {
          "name": "validationID",
          "type": "bytes32",
          "internalType": "bytes32"
        },
        {
          "name": "expectedValidationID",
          "type": "bytes32",
          "internalType": "bytes32"
        }
      ]
    },
    {
      "type": "error",
      "name": "ValidatorIneligibleForRewards",
      "inputs": [
        {
          "name": "validationID",
          "type": "bytes32",
          "internalType": "bytes32"
        }
      ]
    },
    {
      "type": "error",
      "name": "ValidatorNotPoS",
      "inputs": [
        {
          "name": "validationID",
          "type": "bytes32",
          "internalType": "bytes32"
        }
      ]
    },
    {
      "type": "error",
      "name": "ZeroAddress",
      "inputs": []
    },
    {
      "type": "error",
      "name": "ZeroWeightToValueFactor",
      "inputs": []
    }
  ],
  "bytecode": {
    "object": "0x608060405234801561000f575f80fd5b506040516144cd3803806144cd83398101604081905261002e91610107565b60018160018111156100425761004261012c565b0361004f5761004f610055565b50610140565b7ff0c57e16840df040f15088dc2f81fe391c3923bec73e23a9662efc9c229c6a00805468010000000000000000900460ff16156100a55760405163f92ee8a960e01b815260040160405180910390fd5b80546001600160401b03908116146101045780546001600160401b0319166001600160401b0390811782556040519081527fc7f505b2f371ae2175ee4913f4499e1f2633a7b5936321eed1cdaeb6115181d29060200160405180910390a15b50565b5f60208284031215610117575f80fd5b815160028110610125575f80fd5b9392505050565b634e487b7160e01b5f52602160045260245ffd5b6143808061014d5f395ff3fe608060405234801561000f575f80fd5b50600436106101d1575f3560e01c80637e65f4da116100fe578063b2c1712e1161009e578063cd236e7f1161006e578063cd236e7f14610495578063e24b2680146104a8578063e4a63c40146104bb578063fb8b11dd146104cf575f80fd5b8063b2c1712e1461044c578063b5c934981461045f578063b771b3bc14610472578063caa7187414610480575f80fd5b80639681d940116100d95780639681d940146103f4578063a3a65e4814610407578063a9778a7a146102f3578063af1dd66c1461041a575f80fd5b80637e65f4da146103bb5780638ef34c98146103ce57806393e24598146103e1575f80fd5b80632aa566381161017457806360ad77841161014457806360ad77841461032f5780636206585614610342578063785e9e86146103635780637a63ad8514610394575f80fd5b80632aa56638146102b55780632e2194d8146102c857806335455ded146102f357806353a133381461030f575f80fd5b8063245dafcb116101af578063245dafcb1461021c57806325e1c7761461022f5780632674874b1461024257806327bf60cd146102a2575f80fd5b806313409645146101d5578063151d30d1146101ea5780631667956414610209575b5f80fd5b6101e86101e336600461384e565b6104e2565b005b6101f2600a81565b60405160ff90911681526020015b60405180910390f35b6101e8610217366004613885565b610822565b6101e861022a3660046138c0565b610833565b6101e861023d36600461384e565b610af7565b6102556102503660046138c0565b610bd5565b6040805182516001600160a01b0316815260208084015161ffff1690820152828201516001600160401b039081169282019290925260609283015190911691810191909152608001610200565b6101e86102b0366004613885565b610c61565b6101e86102c3366004613885565b610c6c565b6102db6102d63660046138c0565b610c7c565b6040516001600160401b039091168152602001610200565b6102fc61271081565b60405161ffff9091168152602001610200565b61032261031d3660046138c0565b610cd0565b60405161020091906138ff565b6101e861033d36600461384e565b610dbd565b61035561035036600461398d565b6110df565b604051908152602001610200565b5f80516020614334833981519152546001600160a01b03165b6040516001600160a01b039091168152602001610200565b6103557fafe6c4731b852fc2be89a0896ae43d22d8b24989064d841b2a1586b4d39ab60081565b6103556103c9366004613ba8565b6110ff565b6101e86103dc366004613c87565b61113c565b6101e86103ef3660046138c0565b61121e565b610355610402366004613cb5565b611337565b610355610415366004613cb5565b6114d8565b61042d6104283660046138c0565b611550565b604080516001600160a01b039093168352602083019190915201610200565b6101e861045a366004613885565b61158c565b6101e861046d366004613cce565b611597565b61037c6005600160991b0181565b6104886116a5565b6040516102009190613d01565b6103556104a3366004613da2565b611781565b61042d6104b63660046138c0565b6117b5565b6103555f8051602061433483398151915281565b6101e86104dd366004613c87565b6117f1565b6104ea6118b9565b5f6104f36118f0565b5f848152600882016020526040808220815160e0810190925280549394509192909190829060ff16600381111561052c5761052c6138d7565b600381111561053d5761053d6138d7565b8152815461010090046001600160a01b03166020820152600182015460408201526002909101546001600160401b038082166060840152600160401b820481166080840152600160801b8204811660a0840152600160c01b9091041660c09091015290506003815160038111156105b6576105b66138d7565b146105e0578051604051633b0d540d60e21b81526105d79190600401613dd8565b60405180910390fd5b81546040828101519051636af907fb60e11b815260048101919091525f916001600160a01b03169063d5f20ff6906024015f60405180830381865afa15801561062b573d5f803e3d5ffd5b505050506040513d5f823e601f3d908101601f191682016040526106529190810190613e6b565b9050600483546040808501519051636af907fb60e11b81526001600160a01b039092169163d5f20ff69161068c9160040190815260200190565b5f60405180830381865afa1580156106a6573d5f803e3d5ffd5b505050506040513d5f823e601f3d908101601f191682016040526106cd9190810190613e6b565b5160058111156106df576106df6138d7565b1415801561070657508160c001516001600160401b031681608001516001600160401b0316105b156107fc57825460405163338587c560e21b815263ffffffff861660048201525f9182916001600160a01b039091169063ce161f149060240160408051808303815f875af115801561075a573d5f803e3d5ffd5b505050506040513d601f19601f8201168201806040525081019061077e9190613f4a565b91509150818460400151146107b75781846040015160405163fee3144560e01b81526004016105d7929190918252602082015260400190565b806001600160401b03168460c001516001600160401b031611156107f957604051632e19bc2d60e11b81526001600160401b03821660048201526024016105d7565b50505b61080585611914565b50505061081e60015f8051602061435483398151915255565b5050565b61082d838383611b58565b50505050565b5f61083c6118f0565b5f838152600882016020526040808220815160e0810190925280549394509192909190829060ff166003811115610875576108756138d7565b6003811115610886576108866138d7565b8152815461010090046001600160a01b0316602082015260018083015460408301526002909201546001600160401b038082166060840152600160401b820481166080840152600160801b8204811660a0840152600160c01b9091041660c090910152909150815160038111156108ff576108ff6138d7565b14158015610920575060038151600381111561091d5761091d6138d7565b14155b15610941578051604051633b0d540d60e21b81526105d79190600401613dd8565b81546040828101519051636af907fb60e11b815260048101919091525f916001600160a01b03169063d5f20ff6906024015f60405180830381865afa15801561098c573d5f803e3d5ffd5b505050506040513d5f823e601f3d908101601f191682016040526109b39190810190613e6b565b905080606001516001600160401b03165f036109e5576040516339b894f960e21b8152600481018590526024016105d7565b604080830151606083015160a0840151925163854a893f60e01b81526005600160991b019363ee5b48eb9373__$fd0c147b4031eef6079b0498cbafa865f0$__9363854a893f93610a5393906004019283526001600160401b03918216602084015216604082015260600190565b5f60405180830381865af4158015610a6d573d5f803e3d5ffd5b505050506040513d5f823e601f3d908101601f19168201604052610a949190810190613f6d565b6040518263ffffffff1660e01b8152600401610ab09190613fc9565b6020604051808303815f875af1158015610acc573d5f803e3d5ffd5b505050506040513d601f19601f82011682018060405250810190610af09190613fdb565b5050505050565b610b0082611dfd565b610b20576040516330efa98b60e01b8152600481018390526024016105d7565b5f610b296118f0565b54604051636af907fb60e11b8152600481018590526001600160a01b039091169063d5f20ff6906024015f60405180830381865afa158015610b6d573d5f803e3d5ffd5b505050506040513d5f823e601f3d908101601f19168201604052610b949190810190613e6b565b5190506002816005811115610bab57610bab6138d7565b14610bcb578060405163170cc93360e21b81526004016105d79190613ff2565b61082d8383611e26565b604080516080810182525f808252602082018190529181018290526060810191909152610c006118f0565b5f9283526007016020908152604092839020835160808101855281546001600160a01b038116825261ffff600160a01b820416938201939093526001600160401b03600160b01b909304831694810194909452600101541660608301525090565b61082d838383612090565b610c778383836124b1565b505050565b5f80610c866118f0565b60040154610c949084614020565b9050801580610ca957506001600160401b0381115b15610cca5760405163222d164360e21b8152600481018490526024016105d7565b92915050565b6040805160e0810182525f80825260208201819052918101829052606081018290526080810182905260a0810182905260c0810191909152610d106118f0565b5f838152600891909101602052604090819020815160e081019092528054829060ff166003811115610d4457610d446138d7565b6003811115610d5557610d556138d7565b8152815461010090046001600160a01b03166020820152600182015460408201526002909101546001600160401b038082166060840152600160401b820481166080840152600160801b8204811660a0840152600160c01b9091041660c09091015292915050565b5f610dc66118f0565b5f848152600882016020526040808220815160e0810190925280549394509192909190829060ff166003811115610dff57610dff6138d7565b6003811115610e1057610e106138d7565b8152815461010090046001600160a01b03908116602083015260018301546040808401919091526002909301546001600160401b038082166060850152600160401b820481166080850152600160801b8204811660a0850152600160c01b9091041660c0909201919091528282015185549251636af907fb60e11b815260048101829052939450925f929091169063d5f20ff6906024015f60405180830381865afa158015610ec1573d5f803e3d5ffd5b505050506040513d5f823e601f3d908101601f19168201604052610ee89190810190613e6b565b9050600183516003811115610eff57610eff6138d7565b14610f20578251604051633b0d540d60e21b81526105d79190600401613dd8565b600481516005811115610f3557610f356138d7565b03610f4b57610f4386611914565b505050505050565b8260a001516001600160401b031681608001516001600160401b0316101561105357835460405163338587c560e21b815263ffffffff871660048201525f9182916001600160a01b039091169063ce161f149060240160408051808303815f875af1158015610fbc573d5f803e3d5ffd5b505050506040513d601f19601f82011682018060405250810190610fe09190613f4a565b9150915081841461100e5760405163fee3144560e01b815260048101839052602481018590526044016105d7565b8460a001516001600160401b0316816001600160401b0316101561105057604051632e19bc2d60e11b81526001600160401b03821660048201526024016105d7565b50505b5f868152600885016020908152604091829020805460ff1916600290811782550180546001600160401b034216600160401b81026fffffffffffffffff000000000000000019909216919091179091559151918252839188917f3886b7389bccb22cac62838dee3f400cf8b22289295283e01a2c7093f93dd5aa910160405180910390a3505050505050565b5f6110e86118f0565b60040154610cca906001600160401b03841661403f565b5f6111086118b9565b61111889898989898989896124dc565b905061113060015f8051602061435483398151915255565b98975050505050505050565b5f6111456118f0565b90506001600160a01b0382166111795760405163caa903f960e01b81526001600160a01b03831660048201526024016105d7565b5f8381526007820160205260409020546001600160a01b031633146111bf57335b604051636e2ccd7560e11b81526001600160a01b0390911660048201526024016105d7565b5f838152600c8201602052604080822080546001600160a01b038681166001600160a01b0319831681179093559251921692839287917f28c6fc4db51556a07b41aa23b91cedb22c02a7560c431a31255c03ca6ad61c3391a450505050565b5f6112276118f0565b8054604051636af907fb60e11b8152600481018590529192505f916001600160a01b039091169063d5f20ff6906024015f60405180830381865afa158015611271573d5f803e3d5ffd5b505050506040513d5f823e601f3d908101601f191682016040526112989190810190613e6b565b51905060048160058111156112af576112af6138d7565b146112cf578060405163170cc93360e21b81526004016105d79190613ff2565b5f8381526007830160205260409020546001600160a01b031633146112f4573361119a565b5f838152600c830160205260409020546001600160a01b03168061132d57505f8381526007830160205260409020546001600160a01b03165b61082d8185612813565b5f6113406118b9565b5f6113496118f0565b805460405163025a076560e61b815263ffffffff861660048201529192505f916001600160a01b0390911690639681d940906024016020604051808303815f875af115801561139a573d5f803e3d5ffd5b505050506040513d601f19601f820116820180604052508101906113be9190613fdb565b8254604051636af907fb60e11b8152600481018390529192505f916001600160a01b039091169063d5f20ff6906024015f60405180830381865afa158015611408573d5f803e3d5ffd5b505050506040513d5f823e601f3d908101601f1916820160405261142f9190810190613e6b565b905061143a82611dfd565b611448575091506114bd9050565b5f828152600784016020908152604080832054600c8701909252909120546001600160a01b0391821691168061147b5750805b600483516005811115611490576114906138d7565b0361149f5761149f8185612813565b6114b5826114b085604001516110df565b612887565b509193505050505b6114d360015f8051602061435483398151915255565b919050565b5f6114e16118f0565b54604051631474cbc960e31b815263ffffffff841660048201526001600160a01b039091169063a3a65e48906024016020604051808303815f875af115801561152c573d5f803e3d5ffd5b505050506040513d601f19601f82011682018060405250810190610cca9190613fdb565b5f805f61155b6118f0565b5f948552600a810160209081526040808720546009909301909152909420546001600160a01b039094169492505050565b610c778383836128aa565b7ff0c57e16840df040f15088dc2f81fe391c3923bec73e23a9662efc9c229c6a008054600160401b810460ff1615906001600160401b03165f811580156115db5750825b90505f826001600160401b031660011480156115f65750303b155b905081158015611604575080155b156116225760405163f92ee8a960e01b815260040160405180910390fd5b845467ffffffffffffffff19166001178555831561164c57845460ff60401b1916600160401b1785555b61165687876128d5565b831561169c57845460ff60401b19168555604051600181527fc7f505b2f371ae2175ee4913f4499e1f2633a7b5936321eed1cdaeb6115181d29060200160405180910390a15b50505050505050565b60408051610120810182525f80825260208201819052918101829052606081018290526080810182905260a0810182905260c0810182905260e081018290526101008101829052906116f56118f0565b604080516101208101825282546001600160a01b0390811682526001840154602083015260028401549282019290925260038301546001600160401b0381166060830152600160401b810461ffff166080830152600160501b900460ff1660a0820152600483015460c0820152600583015490911660e082015260069091015461010082015292915050565b5f61178a6118b9565b611796843385856128ef565b90506117ae60015f8051602061435483398151915255565b9392505050565b5f805f6117c06118f0565b5f948552600c81016020908152604080872054600b909301909152909420546001600160a01b039094169492505050565b6001600160a01b0381166118235760405163caa903f960e01b81526001600160a01b03821660048201526024016105d7565b5f61182c6118f0565b5f8481526008820160205260409020549091506001600160a01b0361010090910416331461185a573361119a565b5f838152600a8201602052604080822080546001600160a01b038681166001600160a01b0319831681179093559251921692839287917f6b30f219ab3cc1c43b394679707f3856ff2f3c6f1f6c97f383c6b16687a1e00591a450505050565b5f805160206143548339815191528054600119016118ea57604051633ee5aeb560e01b815260040160405180910390fd5b60029055565b7fafe6c4731b852fc2be89a0896ae43d22d8b24989064d841b2a1586b4d39ab60090565b5f61191d6118f0565b5f838152600882016020526040808220815160e0810190925280549394509192909190829060ff166003811115611956576119566138d7565b6003811115611967576119676138d7565b815281546001600160a01b03610100909104811660208084019190915260018401546040808501919091526002909401546001600160401b038082166060860152600160401b820481166080860152600160801b8204811660a0860152600160c01b9091041660c09093019290925283830151865484516304e0efb360e11b8152945195965090949116926309c1df669260048083019391928290030181865afa158015611a17573d5f803e3d5ffd5b505050506040513d601f19601f82011682018060405250810190611a3b9190614056565b8260800151611a4a9190614071565b6001600160401b0316421015611a7e5760405163fb6ce63f60e01b81526001600160401b03421660048201526024016105d7565b5f848152600884016020908152604080832080546001600160a81b031916815560018101849055600201839055600a8601909152902080546001600160a01b031981169091556001600160a01b031680611ad9575060208201515b5f80611ae6838886612d39565b91509150611aff85602001516114b087606001516110df565b6040805183815260208101839052859189917f5ecc5b26a9265302cf871229b3d983e5ca57dbb1448966c6c58b2d3c68bc7f7e910160405180910390a350505050505050565b60015f8051602061435483398151915255565b5f80611b626118f0565b8054604051635b73516560e11b8152600481018890529192506001600160a01b03169063b6e6a2ca906024015f604051808303815f87803b158015611ba5575f80fd5b505af1158015611bb7573d5f803e3d5ffd5b50508254604051636af907fb60e11b8152600481018990525f93506001600160a01b03909116915063d5f20ff6906024015f60405180830381865afa158015611c02573d5f803e3d5ffd5b505050506040513d5f823e601f3d908101601f19168201604052611c299190810190613e6b565b9050611c3486611dfd565b611c43576001925050506117ae565b5f8681526007830160205260409020546001600160a01b03163314611c68573361119a565b5f86815260078301602052604090205460c0820151611c9791600160b01b90046001600160401b031690614071565b6001600160401b03168160e001516001600160401b03161015611cde5760e081015160405163fb6ce63f60e01b81526001600160401b0390911660048201526024016105d7565b5f8515611cf657611cef8786611e26565b9050611d14565b505f8681526007830160205260409020600101546001600160401b03165b600583015460408301515f916001600160a01b031690634f22429f90611d39906110df565b60c086015160e0808801516040519185901b6001600160e01b031916825260048201939093526001600160401b0391821660248201819052604482015291811660648301528516608482015260a401602060405180830381865afa158015611da3573d5f803e3d5ffd5b505050506040513d601f19601f82011682018060405250810190611dc79190613fdb565b90508084600b015f8a81526020019081526020015f205f828254611deb9190614098565b90915550501515979650505050505050565b5f80611e076118f0565b5f938452600701602052505060409020546001600160a01b0316151590565b6040516306f8253560e41b815263ffffffff821660048201525f90819081906005600160991b0190636f825350906024015f60405180830381865afa158015611e71573d5f803e3d5ffd5b505050506040513d5f823e601f3d908101601f19168201604052611e9891908101906140ab565b9150915080611eba57604051636b2f19e960e01b815260040160405180910390fd5b5f611ec36118f0565b6006810154845191925014611ef1578251604051636ba589a560e01b815260048101919091526024016105d7565b60208301516001600160a01b031615611f2d576020830151604051624de75d60e31b81526001600160a01b0390911660048201526024016105d7565b5f8073__$fd0c147b4031eef6079b0498cbafa865f0$__63088c246386604001516040518263ffffffff1660e01b8152600401611f6a9190613fc9565b6040805180830381865af4158015611f84573d5f803e3d5ffd5b505050506040513d601f19601f82011682018060405250810190611fa89190613f4a565b91509150818814611fd65760405163fee3144560e01b815260048101839052602481018990526044016105d7565b5f8881526007840160205260409020600101546001600160401b039081169082161115612067575f888152600784016020908152604091829020600101805467ffffffffffffffff19166001600160401b038516908117909155915191825289917fec44148e8ff271f2d0bacef1142154abacb0abb3a29eb3eb50e2ca97e86d0435910160405180910390a2612085565b505f8781526007830160205260409020600101546001600160401b03165b979650505050505050565b5f8061209a6118f0565b5f868152600882016020526040808220815160e0810190925280549394509192909190829060ff1660038111156120d3576120d36138d7565b60038111156120e4576120e46138d7565b8152815461010090046001600160a01b03908116602083015260018301546040808401919091526002909301546001600160401b038082166060850152600160401b820481166080850152600160801b8204811660a0850152600160c01b9091041660c0909201919091528282015185549251636af907fb60e11b815260048101829052939450925f929091169063d5f20ff6906024015f60405180830381865afa158015612195573d5f803e3d5ffd5b505050506040513d5f823e601f3d908101601f191682016040526121bc9190810190613e6b565b90506002835160038111156121d3576121d36138d7565b146121f4578251604051633b0d540d60e21b81526105d79190600401613dd8565b60208301516001600160a01b03163314612290575f8281526007850160205260409020546001600160a01b0316331461222d573361119a565b5f82815260078501602052604090205460c082015161225c91600160b01b90046001600160401b031690614071565b6001600160401b03164210156122905760405163fb6ce63f60e01b81526001600160401b03421660048201526024016105d7565b5f888152600a850160205260409020546001600160a01b03166002825160058111156122be576122be6138d7565b0361245857600385015460808501516122e0916001600160401b031690614071565b6001600160401b03164210156123145760405163fb6ce63f60e01b81526001600160401b03421660048201526024016105d7565b8715612326576123248388611e26565b505b5f8981526008860160205260409020805460ff191660031790558454606085015160a08401516001600160a01b0390921691636610966991869161236a9190614151565b6040516001600160e01b031960e085901b16815260048101929092526001600160401b0316602482015260440160408051808303815f875af11580156123b2573d5f803e3d5ffd5b505050506040513d601f19601f820116820180604052508101906123d69190614171565b505f8a8152600887016020526040812060020180546001600160401b03909316600160c01b026001600160c01b039093169290921790915561241985838c612e38565b9050838a7f5abe543af12bb7f76f6fa9daaa9d95d181c5e90566df58d3c012216b6245eeaf60405160405180910390a3151595506117ae945050505050565b60048251600581111561246d5761246d6138d7565b036124955761247d84828b612e38565b5061248789611914565b6001955050505050506117ae565b815160405163170cc93360e21b81526105d79190600401613ff2565b6124bc838383612090565b610c7757604051631036cf9160e11b8152600481018490526024016105d7565b5f806124e66118f0565b600381015490915061ffff600160401b9091048116908716108061250f575061271061ffff8716115b1561253357604051635f12e6c360e11b815261ffff871660048201526024016105d7565b60038101546001600160401b03908116908616101561256f576040516202a06d60e11b81526001600160401b03861660048201526024016105d7565b80600101548410806125845750806002015484115b156125a55760405163222d164360e21b8152600481018590526024016105d7565b6001600160a01b0383166125d75760405163caa903f960e01b81526001600160a01b03841660048201526024016105d7565b5f6125e185613072565b90505f6125ed82610c7c565b90505f835f015f9054906101000a90046001600160a01b03166001600160a01b0316639cb7624e8e8e8e8e876040518663ffffffff1660e01b8152600401612639959493929190614203565b6020604051808303815f875af1158015612655573d5f803e3d5ffd5b505050506040513d601f19601f820116820180604052508101906126799190613fdb565b90505f33905080856007015f8481526020019081526020015f205f015f6101000a8154816001600160a01b0302191690836001600160a01b0316021790555089856007015f8481526020019081526020015f205f0160146101000a81548161ffff021916908361ffff16021790555088856007015f8481526020019081526020015f205f0160166101000a8154816001600160401b0302191690836001600160401b031602179055505f856007015f8481526020019081526020015f206001015f6101000a8154816001600160401b0302191690836001600160401b031602179055508685600c015f8481526020019081526020015f205f6101000a8154816001600160a01b0302191690836001600160a01b03160217905550806001600160a01b0316827ff51ab9b5253693af2f675b23c4042ccac671873d5f188e405b30019f4c159b7f8c8c8b6040516127fa9392919061ffff9390931683526001600160401b039190911660208301526001600160a01b0316604082015260600190565b60405180910390a3509c9b505050505050505050505050565b5f61281c6118f0565b5f838152600b820160205260408120805491905590915061283d8482613095565b836001600160a01b0316837f875feb58aa30eeee040d55b00249c5c8c5af4f27c95cd29d64180ad67400c6e48360405161287991815260200190565b60405180910390a350505050565b5f805160206143348339815191525461081e906001600160a01b03168383613102565b6128b5838383611b58565b610c7757604051635bff683f60e11b8152600481018490526024016105d7565b6128dd613161565b6128e6826131ac565b61081e8161322a565b5f806128f96118f0565b90505f6129086102d686613072565b905061291387611dfd565b612933576040516330efa98b60e01b8152600481018890526024016105d7565b6001600160a01b0384166129655760405163caa903f960e01b81526001600160a01b03851660048201526024016105d7565b8154604051636af907fb60e11b8152600481018990525f9182916001600160a01b039091169063d5f20ff6906024015f60405180830381865afa1580156129ae573d5f803e3d5ffd5b505050506040513d5f823e601f3d908101601f191682016040526129d59190810190613e6b565b9050828160a001516129e79190614071565b915083600301600a9054906101000a90046001600160401b03168160400151612a10919061426b565b6001600160401b0316826001600160401b03161115612a4d57604051636d51fe0560e11b81526001600160401b03831660048201526024016105d7565b508254604051636610966960e01b8152600481018a90526001600160401b03831660248201525f9182916001600160a01b039091169063661096699060440160408051808303815f875af1158015612aa7573d5f803e3d5ffd5b505050506040513d601f19601f82011682018060405250810190612acb9190614171565b915091505f8a83604051602001612af992919091825260c01b6001600160c01b031916602082015260280190565b60408051601f1981840301815291815281516020928301205f81815260088a019093529120805491925060019160ff19168280021790555089866008015f8381526020019081526020015f205f0160016101000a8154816001600160a01b0302191690836001600160a01b031602179055508a866008015f8381526020019081526020015f206001018190555084866008015f8381526020019081526020015f206002015f6101000a8154816001600160401b0302191690836001600160401b031602179055505f866008015f8381526020019081526020015f2060020160086101000a8154816001600160401b0302191690836001600160401b0316021790555082866008015f8381526020019081526020015f2060020160106101000a8154816001600160401b0302191690836001600160401b031602179055505f866008015f8381526020019081526020015f2060020160186101000a8154816001600160401b0302191690836001600160401b031602179055508786600a015f8381526020019081526020015f205f6101000a8154816001600160a01b0302191690836001600160a01b03160217905550896001600160a01b03168b827f77499a5603260ef2b34698d88b31f7b1acf28c7b134ad4e3fa636501e6064d7786888a888f604051612d239594939291906001600160401b039586168152938516602085015291909316604083015260608201929092526001600160a01b0391909116608082015260a00190565b60405180910390a49a9950505050505050505050565b5f805f612d446118f0565b5f8681526009820160205260408120549192509081908015612e2a575f88815260098501602090815260408083208390558983526007870190915290205461271090612d9b90600160a01b900461ffff168361403f565b612da59190614020565b91508184600b015f8981526020019081526020015f205f828254612dc99190614098565b90915550612dd990508282614296565b9250612de58984613095565b886001600160a01b0316887f3ffc31181aadb250503101bd718e5fce8c27650af8d3525b9f60996756efaf6385604051612e2191815260200190565b60405180910390a35b509097909650945050505050565b5f80612e426118f0565b80546040808801519051636af907fb60e11b81529293505f926001600160a01b039092169163d5f20ff691612e7d9160040190815260200190565b5f60405180830381865afa158015612e97573d5f803e3d5ffd5b505050506040513d5f823e601f3d908101601f19168201604052612ebe9190810190613e6b565b90505f600382516005811115612ed657612ed66138d7565b1480612ef45750600482516005811115612ef257612ef26138d7565b145b15612f04575060e0810151612f21565b600282516005811115612f1957612f196138d7565b036124955750425b86608001516001600160401b0316816001600160401b031611612f49575f93505050506117ae565b600583015460608801515f916001600160a01b031690634f22429f90612f6e906110df565b60c086015160808c01516040808e01515f90815260078b0160205281902060010154905160e086901b6001600160e01b031916815260048101949094526001600160401b0392831660248501529082166044840152818716606484015216608482015260a401602060405180830381865afa158015612fef573d5f803e3d5ffd5b505050506040513d601f19601f820116820180604052508101906130139190613fdb565b90506001600160a01b03871661302b57876020015196505b5f8681526009850160209081526040808320849055600a90960190529390932080546001600160a01b0388166001600160a01b031990911617905550909150509392505050565b5f610cca825f80516020614334833981519152546001600160a01b031690613287565b5f5f8051602061433483398151915280546040516340c10f1960e01b81526001600160a01b038681166004830152602482018690529293509116906340c10f19906044015f604051808303815f87803b1580156130f0575f80fd5b505af115801561169c573d5f803e3d5ffd5b6040516001600160a01b03838116602483015260448201839052610c7791859182169063a9059cbb906064015b604051602081830303815290604052915060e01b6020820180516001600160e01b038381831617835250505050613293565b7ff0c57e16840df040f15088dc2f81fe391c3923bec73e23a9662efc9c229c6a0054600160401b900460ff166131aa57604051631afcd79f60e31b815260040160405180910390fd5b565b6131b4613161565b6131bc6132f4565b6132276131cc60208301836142a9565b602083013560408401356131e6608086016060870161398d565b6131f660a08701608088016142c4565b61320660c0880160a089016142dd565b60c088013561321c6101008a0160e08b016142a9565b896101000135613304565b50565b613232613161565b5f805160206143348339815191526001600160a01b0382166132675760405163d92e233d60e01b815260040160405180910390fd5b80546001600160a01b0319166001600160a01b0392909216919091179055565b5f6117ae83338461357b565b5f6132a76001600160a01b038416836136de565b905080515f141580156132cb5750808060200190518101906132c991906142fd565b155b15610c7757604051635274afe760e01b81526001600160a01b03841660048201526024016105d7565b6132fc613161565b6131aa6136eb565b61330c613161565b5f6133156118f0565b905061ffff8616158061332d575061271061ffff8716115b1561335157604051635f12e6c360e11b815261ffff871660048201526024016105d7565b878911156133755760405163222d164360e21b8152600481018a90526024016105d7565b60ff851615806133885750600a60ff8616115b156133ab5760405163170db35960e31b815260ff861660048201526024016105d7565b6001600160a01b038a166133d25760405163d92e233d60e01b815260040160405180910390fd5b6001600160a01b0383166133f95760405163d92e233d60e01b815260040160405180910390fd5b896001600160a01b03166309c1df666040518163ffffffff1660e01b8152600401602060405180830381865afa158015613435573d5f803e3d5ffd5b505050506040513d601f19601f820116820180604052508101906134599190614056565b6001600160401b0316876001600160401b03161015613495576040516202a06d60e11b81526001600160401b03881660048201526024016105d7565b835f036134b55760405163a733007160e01b815260040160405180910390fd5b816134d657604051632f6bd1db60e01b8152600481018390526024016105d7565b80546001600160a01b039a8b166001600160a01b031991821617825560018201999099556002810197909755600387018054600160501b60ff9096169590950267ffffffffffffffff60501b1961ffff909716600160401b0269ffffffffffffffffffff199096166001600160401b03909816979097179490941794909416949094179091556004840155600583018054929095169190931617909255600690910155565b6040516370a0823160e01b81523060048201525f9081906001600160a01b038616906370a0823190602401602060405180830381865afa1580156135c1573d5f803e3d5ffd5b505050506040513d601f19601f820116820180604052508101906135e59190613fdb565b90506135fc6001600160a01b0386168530866136f3565b6040516370a0823160e01b81523060048201525f906001600160a01b038716906370a0823190602401602060405180830381865afa158015613640573d5f803e3d5ffd5b505050506040513d601f19601f820116820180604052508101906136649190613fdb565b90508181116136ca5760405162461bcd60e51b815260206004820152602c60248201527f5361666545524332305472616e7366657246726f6d3a2062616c616e6365206e60448201526b1bdd081a5b98dc99585cd95960a21b60648201526084016105d7565b6136d48282614296565b9695505050505050565b60606117ae83835f61372c565b611b45613161565b6040516001600160a01b03848116602483015283811660448301526064820183905261082d9186918216906323b872dd9060840161312f565b6060814710156137515760405163cd78605960e01b81523060048201526024016105d7565b5f80856001600160a01b0316848660405161376c9190614318565b5f6040518083038185875af1925050503d805f81146137a6576040519150601f19603f3d011682016040523d82523d5f602084013e6137ab565b606091505b50915091506136d48683836060826137cb576137c682613812565b6117ae565b81511580156137e257506001600160a01b0384163b155b1561380b57604051639996b31560e01b81526001600160a01b03851660048201526024016105d7565b50806117ae565b8051156138225780518082602001fd5b604051630a12f52160e11b815260040160405180910390fd5b803563ffffffff811681146114d3575f80fd5b5f806040838503121561385f575f80fd5b8235915061386f6020840161383b565b90509250929050565b8015158114613227575f80fd5b5f805f60608486031215613897575f80fd5b8335925060208401356138a981613878565b91506138b76040850161383b565b90509250925092565b5f602082840312156138d0575f80fd5b5035919050565b634e487b7160e01b5f52602160045260245ffd5b600481106138fb576138fb6138d7565b9052565b5f60e0820190506139118284516138eb565b60018060a01b0360208401511660208301526040830151604083015260608301516001600160401b0380821660608501528060808601511660808501528060a08601511660a08501528060c08601511660c0850152505092915050565b6001600160401b0381168114613227575f80fd5b80356114d38161396e565b5f6020828403121561399d575f80fd5b81356117ae8161396e565b634e487b7160e01b5f52604160045260245ffd5b604080519081016001600160401b03811182821017156139de576139de6139a8565b60405290565b60405161010081016001600160401b03811182821017156139de576139de6139a8565b604051601f8201601f191681016001600160401b0381118282101715613a2f57613a2f6139a8565b604052919050565b5f6001600160401b03821115613a4f57613a4f6139a8565b50601f01601f191660200190565b5f82601f830112613a6c575f80fd5b8135613a7f613a7a82613a37565b613a07565b818152846020838601011115613a93575f80fd5b816020850160208301375f918101602001919091529392505050565b6001600160a01b0381168114613227575f80fd5b80356114d381613aaf565b5f60408284031215613ade575f80fd5b613ae66139bc565b9050613af18261383b565b81526020808301356001600160401b0380821115613b0d575f80fd5b818501915085601f830112613b20575f80fd5b813581811115613b3257613b326139a8565b8060051b9150613b43848301613a07565b8181529183018401918481019088841115613b5c575f80fd5b938501935b83851015613b865784359250613b7683613aaf565b8282529385019390850190613b61565b808688015250505050505092915050565b803561ffff811681146114d3575f80fd5b5f805f805f805f80610100898b031215613bc0575f80fd5b88356001600160401b0380821115613bd6575f80fd5b613be28c838d01613a5d565b995060208b0135915080821115613bf7575f80fd5b613c038c838d01613a5d565b985060408b0135915080821115613c18575f80fd5b613c248c838d01613ace565b975060608b0135915080821115613c39575f80fd5b50613c468b828c01613ace565b955050613c5560808a01613b97565b9350613c6360a08a01613982565b925060c08901359150613c7860e08a01613ac3565b90509295985092959890939650565b5f8060408385031215613c98575f80fd5b823591506020830135613caa81613aaf565b809150509250929050565b5f60208284031215613cc5575f80fd5b6117ae8261383b565b5f80828403610140811215613ce1575f80fd5b61012080821215613cf0575f80fd5b8493508301359050613caa81613aaf565b81516001600160a01b031681526020808301519082015260408083015190820152606080830151610120830191613d42908401826001600160401b03169052565b506080830151613d58608084018261ffff169052565b5060a0830151613d6d60a084018260ff169052565b5060c083015160c083015260e0830151613d9260e08401826001600160a01b03169052565b5061010092830151919092015290565b5f805f60608486031215613db4575f80fd5b83359250602084013591506040840135613dcd81613aaf565b809150509250925092565b60208101610cca82846138eb565b8051600681106114d3575f80fd5b5f5b83811015613e0e578181015183820152602001613df6565b50505f910152565b5f82601f830112613e25575f80fd5b8151613e33613a7a82613a37565b818152846020838601011115613e47575f80fd5b613e58826020830160208701613df4565b949350505050565b80516114d38161396e565b5f60208284031215613e7b575f80fd5b81516001600160401b0380821115613e91575f80fd5b908301906101008286031215613ea5575f80fd5b613ead6139e4565b613eb683613de6565b8152602083015182811115613ec9575f80fd5b613ed587828601613e16565b602083015250613ee760408401613e60565b6040820152613ef860608401613e60565b6060820152613f0960808401613e60565b6080820152613f1a60a08401613e60565b60a0820152613f2b60c08401613e60565b60c0820152613f3c60e08401613e60565b60e082015295945050505050565b5f8060408385031215613f5b575f80fd5b825191506020830151613caa8161396e565b5f60208284031215613f7d575f80fd5b81516001600160401b03811115613f92575f80fd5b613e5884828501613e16565b5f8151808452613fb5816020860160208601613df4565b601f01601f19169290920160200192915050565b602081525f6117ae6020830184613f9e565b5f60208284031215613feb575f80fd5b5051919050565b6020810160068310614006576140066138d7565b91905290565b634e487b7160e01b5f52601160045260245ffd5b5f8261403a57634e487b7160e01b5f52601260045260245ffd5b500490565b8082028115828204841417610cca57610cca61400c565b5f60208284031215614066575f80fd5b81516117ae8161396e565b6001600160401b038181168382160190808211156140915761409161400c565b5092915050565b80820180821115610cca57610cca61400c565b5f80604083850312156140bc575f80fd5b82516001600160401b03808211156140d2575f80fd5b90840190606082870312156140e5575f80fd5b604051606081018181108382111715614100576141006139a8565b60405282518152602083015161411581613aaf565b602082015260408301518281111561412b575f80fd5b61413788828601613e16565b6040830152508094505050506020830151613caa81613878565b6001600160401b038281168282160390808211156140915761409161400c565b5f8060408385031215614182575f80fd5b825161418d8161396e565b6020939093015192949293505050565b5f6040830163ffffffff8351168452602080840151604060208701528281518085526060880191506020830194505f92505b808310156141f85784516001600160a01b031682529383019360019290920191908301906141cf565b509695505050505050565b60a081525f61421560a0830188613f9e565b82810360208401526142278188613f9e565b9050828103604084015261423b818761419d565b9050828103606084015261424f818661419d565b9150506001600160401b03831660808301529695505050505050565b6001600160401b0381811683821602808216919082811461428e5761428e61400c565b505092915050565b81810381811115610cca57610cca61400c565b5f602082840312156142b9575f80fd5b81356117ae81613aaf565b5f602082840312156142d4575f80fd5b6117ae82613b97565b5f602082840312156142ed575f80fd5b813560ff811681146117ae575f80fd5b5f6020828403121561430d575f80fd5b81516117ae81613878565b5f8251614329818460208701613df4565b919091019291505056fe6e5bdfcce15e53c3406ea67bfce37dcd26f5152d5492824e43fd5e3c8ac5ab009b779b17422d0df92223018b32b4d1fa46e071723d6817e2486d003becc55f00a164736f6c6343000819000a",
    "linkReferences": {
      "contracts/validator-manager/ValidatorMessages.sol": {
        "ValidatorMessages": [
          {
            "start": 2911,
            "length": 20
          },
          {
            "start": 8318,
            "length": 20
          }
        ]
      }
    }
  },
  "methodIdentifiers": {
    "BIPS_CONVERSION_FACTOR()": "a9778a7a",
    "ERC20_STAKING_MANAGER_STORAGE_LOCATION()": "e4a63c40",
    "MAXIMUM_DELEGATION_FEE_BIPS()": "35455ded",
    "MAXIMUM_STAKE_MULTIPLIER_LIMIT()": "151d30d1",
    "STAKING_MANAGER_STORAGE_LOCATION()": "7a63ad85",
    "WARP_MESSENGER()": "b771b3bc",
    "changeDelegatorRewardRecipient(bytes32,address)": "fb8b11dd",
    "changeValidatorRewardRecipient(bytes32,address)": "8ef34c98",
    "claimDelegationFees(bytes32)": "93e24598",
    "completeDelegatorRegistration(bytes32,uint32)": "60ad7784",
    "completeDelegatorRemoval(bytes32,uint32)": "13409645",
    "completeValidatorRegistration(uint32)": "a3a65e48",
    "completeValidatorRemoval(uint32)": "9681d940",
    "erc20()": "785e9e86",
    "forceInitiateDelegatorRemoval(bytes32,bool,uint32)": "27bf60cd",
    "forceInitiateValidatorRemoval(bytes32,bool,uint32)": "16679564",
    "getDelegatorInfo(bytes32)": "53a13338",
    "getDelegatorRewardInfo(bytes32)": "af1dd66c",
    "getStakingManagerSettings()": "caa71874",
    "getStakingValidator(bytes32)": "2674874b",
    "getValidatorRewardInfo(bytes32)": "e24b2680",
    "initialize((address,uint256,uint256,uint64,uint16,uint8,uint256,address,bytes32),address)": "b5c93498",
    "initiateDelegatorRegistration(bytes32,uint256,address)": "cd236e7f",
    "initiateDelegatorRemoval(bytes32,bool,uint32)": "2aa56638",
    "initiateValidatorRegistration(bytes,bytes,(uint32,address[]),(uint32,address[]),uint16,uint64,uint256,address)": "7e65f4da",
    "initiateValidatorRemoval(bytes32,bool,uint32)": "b2c1712e",
    "resendUpdateDelegator(bytes32)": "245dafcb",
    "submitUptimeProof(bytes32,uint32)": "25e1c776",
    "valueToWeight(uint256)": "2e2194d8",
    "weightToValue(uint64)": "62065856"
  },
  "id": 92
}