{
  "abi": [
    {
      "type": "constructor",
      "inputs": [],
      "stateMutability": "nonpayable"
    },
    {
      "type": "function",
      "name": "allowance",
      "inputs": [
        {
          "name": "owner",
          "type": "address",
          "internalType": "address"
        },
        {
          "name": "spender",
          "type": "address",
          "internalType": "address"
        }
      ],
      "outputs": [
        {
          "name": "",
          "type": "uint256",
          "internalType": "uint256"
        }
      ],
      "stateMutability": "view"
    },
    {
      "type": "function",
      "name": "approve",
      "inputs": [
        {
          "name": "spender",
          "type": "address",
          "internalType": "address"
        },
        {
          "name": "value",
          "type": "uint256",
          "internalType": "uint256"
        }
      ],
      "outputs": [
        {
          "name": "",
          "type": "bool",
          "internalType": "bool"
        }
      ],
      "stateMutability": "nonpayable"
    },
    {
      "type": "function",
      "name": "balanceOf",
      "inputs": [
        {
          "name": "account",
          "type": "address",
          "internalType": "address"
        }
      ],
      "outputs": [
        {
          "name": "",
          "type": "uint256",
          "internalType": "uint256"
        }
      ],
      "stateMutability": "view"
    },
    {
      "type": "function",
      "name": "burn",
      "inputs": [
        {
          "name": "value",
          "type": "uint256",
          "internalType": "uint256"
        }
      ],
      "outputs": [],
      "stateMutability": "nonpayable"
    },
    {
      "type": "function",
      "name": "burnFrom",
      "inputs": [
        {
          "name": "account",
          "type": "address",
          "internalType": "address"
        },
        {
          "name": "value",
          "type": "uint256",
          "internalType": "uint256"
        }
      ],
      "outputs": [],
      "stateMutability": "nonpayable"
    },
    {
      "type": "function",
      "name": "decimals",
      "inputs": [],
      "outputs": [
        {
          "name": "",
          "type": "uint8",
          "internalType": "uint8"
        }
      ],
      "stateMutability": "view"
    },
    {
      "type": "function",
      "name": "mint",
      "inputs": [
        {
          "name": "account",
          "type": "address",
          "internalType": "address"
        },
        {
          "name": "amount",
          "type": "uint256",
          "internalType": "uint256"
        }
      ],
      "outputs": [],
      "stateMutability": "nonpayable"
    },
    {
      "type": "function",
      "name": "mint",
      "inputs": [
        {
          "name": "amount",
          "type": "uint256",
          "internalType": "uint256"
        }
      ],
      "outputs": [],
      "stateMutability": "nonpayable"
    },
    {
      "type": "function",
      "name": "name",
      "inputs": [],
      "outputs": [
        {
          "name": "",
          "type": "string",
          "internalType": "string"
        }
      ],
      "stateMutability": "view"
    },
    {
      "type": "function",
      "name": "symbol",
      "inputs": [],
      "outputs": [
        {
          "name": "",
          "type": "string",
          "internalType": "string"
        }
      ],
      "stateMutability": "view"
    },
    {
      "type": "function",
      "name": "totalSupply",
      "inputs": [],
      "outputs": [
        {
          "name": "",
          "type": "uint256",
          "internalType": "uint256"
        }
      ],
      "stateMutability": "view"
    },
    {
      "type": "function",
      "name": "transfer",
      "inputs": [
        {
          "name": "to",
          "type": "address",
          "internalType": "address"
        },
        {
          "name": "value",
          "type": "uint256",
          "internalType": "uint256"
        }
      ],
      "outputs": [
        {
          "name": "",
          "type": "bool",
          "internalType": "bool"
        }
      ],
      "stateMutability": "nonpayable"
    },
    {
      "type": "function",
      "name": "transferFrom",
      "inputs": [
        {
          "name": "from",
          "type": "address",
          "internalType": "address"
        },
        {
          "name": "to",
          "type": "address",
          "internalType": "address"
        },
        {
          "name": "value",
          "type": "uint256",
          "internalType": "uint256"
        }
      ],
      "outputs": [
        {
          "name": "",
          "type": "bool",
          "internalType": "bool"
        }
      ],
      "stateMutability": "nonpayable"
    },
    {
      "type": "event",
      "name": "Approval",
      "inputs": [
        {
          "name": "owner",
          "type": "address",
          "indexed": true,
          "internalType": "address"
        },
        {
          "name": "spender",
          "type": "address",
          "indexed": true,
          "internalType": "address"
        },
        {
          "name": "value",
          "type": "uint256",
          "indexed": false,
          "internalType": "uint256"
        }
      ],
      "anonymous": false
    },
    {
      "type": "event",
      "name": "Transfer",
      "inputs": [
        {
          "name": "from",
          "type": "address",
          "indexed": true,
          "internalType": "address"
        },
        {
          "name": "to",
          "type": "address",
          "indexed": true,
          "internalType": "address"
        },
        {
          "name": "value",
          "type": "uint256",
          "indexed": false,
          "internalType": "uint256"
        }
      ],
      "anonymous": false
    },
    {
      "type": "error",
      "name": "ERC20InsufficientAllowance",
      "inputs": [
        {
          "name": "spender",
          "type": "address",
          "internalType": "address"
        },
        {
          "name": "allowance",
          "type": "uint256",
          "internalType": "uint256"
        },
        {
          "name": "needed",
          "type": "uint256",
          "internalType": "uint256"
        }
      ]
    },
    {
      "type": "error",
      "name": "ERC20InsufficientBalance",
      "inputs": [
        {
          "name": "sender",
          "type": "address",
          "internalType": "address"
        },
        {
          "name": "balance",
          "type": "uint256",
          "internalType": "uint256"
        },
        {
          "name": "needed",
          "type": "uint256",
          "internalType": "uint256"
        }
      ]
    },
    {
      "type": "error",
      "name": "ERC20InvalidApprover",
      "inputs": [
        {
          "name": "approver",
          "type": "address",
          "internalType": "address"
        }
      ]
    },
    {
      "type": "error",
      "name": "ERC20InvalidReceiver",
      "inputs": [
        {
          "name": "receiver",
          "type": "address",
          "internalType": "address"
        }
      ]
    },
    {
      "type": "error",
      "name": "ERC20InvalidSender",
      "inputs": [
        {
          "name": "sender",
          "type": "address",
          "internalType": "address"
        }
      ]
    },
    {
      "type": "error",
      "name": "ERC20InvalidSpender",
      "inputs": [
        {
          "name": "spender",
          "type": "address",
          "internalType": "address"
        }
      ]
    }
  ],
  "bytecode": {
    "object": "0x608060405234801561000f575f80fd5b506040518060400160405280600a81526020016926b7b1b5902a37b5b2b760b11b81525060405180604001604052806004815260200163045584d560e41b815250816003908161005f919061028b565b50600461006c828261028b565b50505061008b336b204fce5e3e2502611000000061009060201b60201c565b61036f565b6001600160a01b0382166100be5760405163ec442f0560e01b81525f60048201526024015b60405180910390fd5b6100c95f83836100cd565b5050565b6001600160a01b0383166100f7578060025f8282546100ec919061034a565b909155506101679050565b6001600160a01b0383165f90815260208190526040902054818110156101495760405163391434e360e21b81526001600160a01b038516600482015260248101829052604481018390526064016100b5565b6001600160a01b0384165f9081526020819052604090209082900390555b6001600160a01b038216610183576002805482900390556101a1565b6001600160a01b0382165f9081526020819052604090208054820190555b816001600160a01b0316836001600160a01b03167fddf252ad1be2c89b69c2b068fc378daa952ba7f163c4a11628f55a4df523b3ef836040516101e691815260200190565b60405180910390a3505050565b634e487b7160e01b5f52604160045260245ffd5b600181811c9082168061021b57607f821691505b60208210810361023957634e487b7160e01b5f52602260045260245ffd5b50919050565b601f82111561028657805f5260205f20601f840160051c810160208510156102645750805b601f840160051c820191505b81811015610283575f8155600101610270565b50505b505050565b81516001600160401b038111156102a4576102a46101f3565b6102b8816102b28454610207565b8461023f565b602080601f8311600181146102eb575f84156102d45750858301515b5f19600386901b1c1916600185901b178555610342565b5f85815260208120601f198616915b82811015610319578886015182559484019460019091019084016102fa565b508582101561033657878501515f19600388901b60f8161c191681555b505060018460011b0185555b505050505050565b8082018082111561036957634e487b7160e01b5f52601160045260245ffd5b92915050565b6108c28061037c5f395ff3fe608060405234801561000f575f80fd5b50600436106100cb575f3560e01c806342966c681161008857806395d89b411161006357806395d89b41146101a7578063a0712d68146101af578063a9059cbb146101c2578063dd62ed3e146101d5575f80fd5b806342966c681461015957806370a082311461016c57806379cc679014610194575f80fd5b806306fdde03146100cf578063095ea7b3146100ed57806318160ddd1461011057806323b872dd14610122578063313ce5671461013557806340c10f1914610144575b5f80fd5b6100d761020d565b6040516100e4919061072e565b60405180910390f35b6101006100fb366004610795565b61029d565b60405190151581526020016100e4565b6002545b6040519081526020016100e4565b6101006101303660046107bd565b6102b6565b604051601281526020016100e4565b610157610152366004610795565b6102d9565b005b6101576101673660046107f6565b610344565b61011461017a36600461080d565b6001600160a01b03165f9081526020819052604090205490565b6101576101a2366004610795565b610351565b6100d7610366565b6101576101bd3660046107f6565b610375565b6101006101d0366004610795565b6103d7565b6101146101e336600461082d565b6001600160a01b039182165f90815260016020908152604080832093909416825291909152205490565b60606003805461021c9061085e565b80601f01602080910402602001604051908101604052809291908181526020018280546102489061085e565b80156102935780601f1061026a57610100808354040283529160200191610293565b820191905f5260205f20905b81548152906001019060200180831161027657829003601f168201915b5050505050905090565b5f336102aa8185856103e4565b60019150505b92915050565b5f336102c38582856103f6565b6102ce858585610471565b506001949350505050565b678ac7230489e800008111156103365760405162461bcd60e51b815260206004820152601f60248201527f4578616d706c6545524332303a206d6178206d696e742065786365656465640060448201526064015b60405180910390fd5b61034082826104ce565b5050565b61034e3382610502565b50565b61035c8233836103f6565b6103408282610502565b60606004805461021c9061085e565b678ac7230489e800008111156103cd5760405162461bcd60e51b815260206004820152601f60248201527f4578616d706c6545524332303a206d6178206d696e7420657863656564656400604482015260640161032d565b61034e33826104ce565b5f336102aa818585610471565b6103f18383836001610536565b505050565b6001600160a01b038381165f908152600160209081526040808320938616835292905220545f19811461046b578181101561045d57604051637dc7a0d960e11b81526001600160a01b0384166004820152602481018290526044810183905260640161032d565b61046b84848484035f610536565b50505050565b6001600160a01b03831661049a57604051634b637e8f60e11b81525f600482015260240161032d565b6001600160a01b0382166104c35760405163ec442f0560e01b81525f600482015260240161032d565b6103f1838383610608565b6001600160a01b0382166104f75760405163ec442f0560e01b81525f600482015260240161032d565b6103405f8383610608565b6001600160a01b03821661052b57604051634b637e8f60e11b81525f600482015260240161032d565b610340825f83610608565b6001600160a01b03841661055f5760405163e602df0560e01b81525f600482015260240161032d565b6001600160a01b03831661058857604051634a1406b160e11b81525f600482015260240161032d565b6001600160a01b038085165f908152600160209081526040808320938716835292905220829055801561046b57826001600160a01b0316846001600160a01b03167f8c5be1e5ebec7d5bd14f71427d1e84f3dd0314c0f7b2291e5b200ac8c7c3b925846040516105fa91815260200190565b60405180910390a350505050565b6001600160a01b038316610632578060025f8282546106279190610896565b909155506106a29050565b6001600160a01b0383165f90815260208190526040902054818110156106845760405163391434e360e21b81526001600160a01b0385166004820152602481018290526044810183905260640161032d565b6001600160a01b0384165f9081526020819052604090209082900390555b6001600160a01b0382166106be576002805482900390556106dc565b6001600160a01b0382165f9081526020819052604090208054820190555b816001600160a01b0316836001600160a01b03167fddf252ad1be2c89b69c2b068fc378daa952ba7f163c4a11628f55a4df523b3ef8360405161072191815260200190565b60405180910390a3505050565b5f602080835283518060208501525f5b8181101561075a5785810183015185820160400152820161073e565b505f604082860101526040601f19601f8301168501019250505092915050565b80356001600160a01b0381168114610790575f80fd5b919050565b5f80604083850312156107a6575f80fd5b6107af8361077a565b946020939093013593505050565b5f805f606084860312156107cf575f80fd5b6107d88461077a565b92506107e66020850161077a565b9150604084013590509250925092565b5f60208284031215610806575f80fd5b5035919050565b5f6020828403121561081d575f80fd5b6108268261077a565b9392505050565b5f806040838503121561083e575f80fd5b6108478361077a565b91506108556020840161077a565b90509250929050565b600181811c9082168061087257607f821691505b60208210810361089057634e487b7160e01b5f52602260045260245ffd5b50919050565b808201808211156102b057634e487b7160e01b5f52601160045260245ffdfea164736f6c6343000819000a",
    "linkReferences": {}
  },
  "methodIdentifiers": {
    "allowance(address,address)": "dd62ed3e",
    "approve(address,uint256)": "095ea7b3",
    "balanceOf(address)": "70a08231",
    "burn(uint256)": "42966c68",
    "burnFrom(address,uint256)": "79cc6790",
    "decimals()": "313ce567",
    "mint(address,uint256)": "40c10f19",
    "mint(uint256)": "a0712d68",
    "name()": "06fdde03",
    "symbol()": "95d89b41",
    "totalSupply()": "18160ddd",
    "transfer(address,uint256)": "a9059cbb",
    "transferFrom(address,address,uint256)": "23b872dd"
  },
  "id": 40
}