{
  "abi": [
    {
      "type": "constructor",
      "inputs": [
        {
          "name": "init",
          "type": "uint8",
          "internalType": "enum ICMInitializable"
        }
      ],
      "stateMutability": "nonpayable"
    },
    {
      "type": "fallback",
      "stateMutability": "payable"
    },
    {
      "type": "receive",
      "stateMutability": "payable"
    },
    {
      "type": "function",
      "name": "BURNED_FOR_TRANSFER_ADDRESS",
      "inputs": [],
      "outputs": [
        {
          "name": "",
          "type": "address",
          "internalType": "address"
        }
      ],
      "stateMutability": "view"
    },
    {
      "type": "function",
      "name": "BURNED_TX_FEES_ADDRESS",
      "inputs": [],
      "outputs": [
        {
          "name": "",
          "type": "address",
          "internalType": "address"
        }
      ],
      "stateMutability": "view"
    },
    {
      "type": "function",
      "name": "HOME_CHAIN_BURN_ADDRESS",
      "inputs": [],
      "outputs": [
        {
          "name": "",
          "type": "address",
          "internalType": "address"
        }
      ],
      "stateMutability": "view"
    },
    {
      "type": "function",
      "name": "MULTI_HOP_CALL_GAS_PER_WORD",
      "inputs": [],
      "outputs": [
        {
          "name": "",
          "type": "uint256",
          "internalType": "uint256"
        }
      ],
      "stateMutability": "view"
    },
    {
      "type": "function",
      "name": "MULTI_HOP_CALL_REQUIRED_GAS",
      "inputs": [],
      "outputs": [
        {
          "name": "",
          "type": "uint256",
          "internalType": "uint256"
        }
      ],
      "stateMutability": "view"
    },
    {
      "type": "function",
      "name": "MULTI_HOP_SEND_REQUIRED_GAS",
      "inputs": [],
      "outputs": [
        {
          "name": "",
          "type": "uint256",
          "internalType": "uint256"
        }
      ],
      "stateMutability": "view"
    },
    {
      "type": "function",
      "name": "NATIVE_MINTER",
      "inputs": [],
      "outputs": [
        {
          "name": "",
          "type": "address",
          "internalType": "contract INativeMinter"
        }
      ],
      "stateMutability": "view"
    },
    {
      "type": "function",
      "name": "NATIVE_TOKEN_REMOTE_STORAGE_LOCATION",
      "inputs": [],
      "outputs": [
        {
          "name": "",
          "type": "bytes32",
          "internalType": "bytes32"
        }
      ],
      "stateMutability": "view"
    },
    {
      "type": "function",
      "name": "REGISTER_REMOTE_REQUIRED_GAS",
      "inputs": [],
      "outputs": [
        {
          "name": "",
          "type": "uint256",
          "internalType": "uint256"
        }
      ],
      "stateMutability": "view"
    },
    {
      "type": "function",
      "name": "TELEPORTER_REGISTRY_APP_STORAGE_LOCATION",
      "inputs": [],
      "outputs": [
        {
          "name": "",
          "type": "bytes32",
          "internalType": "bytes32"
        }
      ],
      "stateMutability": "view"
    },
    {
      "type": "function",
      "name": "TOKEN_REMOTE_STORAGE_LOCATION",
      "inputs": [],
      "outputs": [
        {
          "name": "",
          "type": "bytes32",
          "internalType": "bytes32"
        }
      ],
      "stateMutability": "view"
    },
    {
      "type": "function",
      "name": "allowance",
      "inputs": [
        {
          "name": "owner",
          "type": "address",
          "internalType": "address"
        },
        {
          "name": "spender",
          "type": "address",
          "internalType": "address"
        }
      ],
      "outputs": [
        {
          "name": "",
          "type": "uint256",
          "internalType": "uint256"
        }
      ],
      "stateMutability": "view"
    },
    {
      "type": "function",
      "name": "approve",
      "inputs": [
        {
          "name": "spender",
          "type": "address",
          "internalType": "address"
        },
        {
          "name": "value",
          "type": "uint256",
          "internalType": "uint256"
        }
      ],
      "outputs": [
        {
          "name": "",
          "type": "bool",
          "internalType": "bool"
        }
      ],
      "stateMutability": "nonpayable"
    },
    {
      "type": "function",
      "name": "balanceOf",
      "inputs": [
        {
          "name": "account",
          "type": "address",
          "internalType": "address"
        }
      ],
      "outputs": [
        {
          "name": "",
          "type": "uint256",
          "internalType": "uint256"
        }
      ],
      "stateMutability": "view"
    },
    {
      "type": "function",
      "name": "calculateNumWords",
      "inputs": [
        {
          "name": "payloadSize",
          "type": "uint256",
          "internalType": "uint256"
        }
      ],
      "outputs": [
        {
          "name": "",
          "type": "uint256",
          "internalType": "uint256"
        }
      ],
      "stateMutability": "pure"
    },
    {
      "type": "function",
      "name": "decimals",
      "inputs": [],
      "outputs": [
        {
          "name": "",
          "type": "uint8",
          "internalType": "uint8"
        }
      ],
      "stateMutability": "view"
    },
    {
      "type": "function",
      "name": "deposit",
      "inputs": [],
      "outputs": [],
      "stateMutability": "payable"
    },
    {
      "type": "function",
      "name": "getBlockchainID",
      "inputs": [],
      "outputs": [
        {
          "name": "",
          "type": "bytes32",
          "internalType": "bytes32"
        }
      ],
      "stateMutability": "view"
    },
    {
      "type": "function",
      "name": "getInitialReserveImbalance",
      "inputs": [],
      "outputs": [
        {
          "name": "",
          "type": "uint256",
          "internalType": "uint256"
        }
      ],
      "stateMutability": "view"
    },
    {
      "type": "function",
      "name": "getIsCollateralized",
      "inputs": [],
      "outputs": [
        {
          "name": "",
          "type": "bool",
          "internalType": "bool"
        }
      ],
      "stateMutability": "view"
    },
    {
      "type": "function",
      "name": "getMinTeleporterVersion",
      "inputs": [],
      "outputs": [
        {
          "name": "",
          "type": "uint256",
          "internalType": "uint256"
        }
      ],
      "stateMutability": "view"
    },
    {
      "type": "function",
      "name": "getMultiplyOnRemote",
      "inputs": [],
      "outputs": [
        {
          "name": "",
          "type": "bool",
          "internalType": "bool"
        }
      ],
      "stateMutability": "view"
    },
    {
      "type": "function",
      "name": "getTokenHomeAddress",
      "inputs": [],
      "outputs": [
        {
          "name": "",
          "type": "address",
          "internalType": "address"
        }
      ],
      "stateMutability": "view"
    },
    {
      "type": "function",
      "name": "getTokenHomeBlockchainID",
      "inputs": [],
      "outputs": [
        {
          "name": "",
          "type": "bytes32",
          "internalType": "bytes32"
        }
      ],
      "stateMutability": "view"
    },
    {
      "type": "function",
      "name": "getTokenMultiplier",
      "inputs": [],
      "outputs": [
        {
          "name": "",
          "type": "uint256",
          "internalType": "uint256"
        }
      ],
      "stateMutability": "view"
    },
    {
      "type": "function",
      "name": "getTotalMinted",
      "inputs": [],
      "outputs": [
        {
          "name": "",
          "type": "uint256",
          "internalType": "uint256"
        }
      ],
      "stateMutability": "view"
    },
    {
      "type": "function",
      "name": "initialize",
      "inputs": [
        {
          "name": "settings",
          "type": "tuple",
          "internalType": "struct TokenRemoteSettings",
          "components": [
            {
              "name": "teleporterRegistryAddress",
              "type": "address",
              "internalType": "address"
            },
            {
              "name": "teleporterManager",
              "type": "address",
              "internalType": "address"
            },
            {
              "name": "minTeleporterVersion",
              "type": "uint256",
              "internalType": "uint256"
            },
            {
              "name": "tokenHomeBlockchainID",
              "type": "bytes32",
              "internalType": "bytes32"
            },
            {
              "name": "tokenHomeAddress",
              "type": "address",
              "internalType": "address"
            },
            {
              "name": "tokenHomeDecimals",
              "type": "uint8",
              "internalType": "uint8"
            }
          ]
        },
        {
          "name": "nativeAssetSymbol",
          "type": "string",
          "internalType": "string"
        },
        {
          "name": "initialReserveImbalance",
          "type": "uint256",
          "internalType": "uint256"
        },
        {
          "name": "burnedFeesReportingRewardPercentage",
          "type": "uint256",
          "internalType": "uint256"
        }
      ],
      "outputs": [],
      "stateMutability": "nonpayable"
    },
    {
      "type": "function",
      "name": "isTeleporterAddressPaused",
      "inputs": [
        {
          "name": "teleporterAddress",
          "type": "address",
          "internalType": "address"
        }
      ],
      "outputs": [
        {
          "name": "",
          "type": "bool",
          "internalType": "bool"
        }
      ],
      "stateMutability": "view"
    },
    {
      "type": "function",
      "name": "name",
      "inputs": [],
      "outputs": [
        {
          "name": "",
          "type": "string",
          "internalType": "string"
        }
      ],
      "stateMutability": "view"
    },
    {
      "type": "function",
      "name": "owner",
      "inputs": [],
      "outputs": [
        {
          "name": "",
          "type": "address",
          "internalType": "address"
        }
      ],
      "stateMutability": "view"
    },
    {
      "type": "function",
      "name": "pauseTeleporterAddress",
      "inputs": [
        {
          "name": "teleporterAddress",
          "type": "address",
          "internalType": "address"
        }
      ],
      "outputs": [],
      "stateMutability": "nonpayable"
    },
    {
      "type": "function",
      "name": "receiveTeleporterMessage",
      "inputs": [
        {
          "name": "sourceBlockchainID",
          "type": "bytes32",
          "internalType": "bytes32"
        },
        {
          "name": "originSenderAddress",
          "type": "address",
          "internalType": "address"
        },
        {
          "name": "message",
          "type": "bytes",
          "internalType": "bytes"
        }
      ],
      "outputs": [],
      "stateMutability": "nonpayable"
    },
    {
      "type": "function",
      "name": "registerWithHome",
      "inputs": [
        {
          "name": "feeInfo",
          "type": "tuple",
          "internalType": "struct TeleporterFeeInfo",
          "components": [
            {
              "name": "feeTokenAddress",
              "type": "address",
              "internalType": "address"
            },
            {
              "name": "amount",
              "type": "uint256",
              "internalType": "uint256"
            }
          ]
        }
      ],
      "outputs": [],
      "stateMutability": "nonpayable"
    },
    {
      "type": "function",
      "name": "renounceOwnership",
      "inputs": [],
      "outputs": [],
      "stateMutability": "nonpayable"
    },
    {
      "type": "function",
      "name": "reportBurnedTxFees",
      "inputs": [
        {
          "name": "requiredGasLimit",
          "type": "uint256",
          "internalType": "uint256"
        }
      ],
      "outputs": [],
      "stateMutability": "nonpayable"
    },
    {
      "type": "function",
      "name": "send",
      "inputs": [
        {
          "name": "input",
          "type": "tuple",
          "internalType": "struct SendTokensInput",
          "components": [
            {
              "name": "destinationBlockchainID",
              "type": "bytes32",
              "internalType": "bytes32"
            },
            {
              "name": "destinationTokenTransferrerAddress",
              "type": "address",
              "internalType": "address"
            },
            {
              "name": "recipient",
              "type": "address",
              "internalType": "address"
            },
            {
              "name": "primaryFeeTokenAddress",
              "type": "address",
              "internalType": "address"
            },
            {
              "name": "primaryFee",
              "type": "uint256",
              "internalType": "uint256"
            },
            {
              "name": "secondaryFee",
              "type": "uint256",
              "internalType": "uint256"
            },
            {
              "name": "requiredGasLimit",
              "type": "uint256",
              "internalType": "uint256"
            },
            {
              "name": "multiHopFallback",
              "type": "address",
              "internalType": "address"
            }
          ]
        }
      ],
      "outputs": [],
      "stateMutability": "payable"
    },
    {
      "type": "function",
      "name": "sendAndCall",
      "inputs": [
        {
          "name": "input",
          "type": "tuple",
          "internalType": "struct SendAndCallInput",
          "components": [
            {
              "name": "destinationBlockchainID",
              "type": "bytes32",
              "internalType": "bytes32"
            },
            {
              "name": "destinationTokenTransferrerAddress",
              "type": "address",
              "internalType": "address"
            },
            {
              "name": "recipientContract",
              "type": "address",
              "internalType": "address"
            },
            {
              "name": "recipientPayload",
              "type": "bytes",
              "internalType": "bytes"
            },
            {
              "name": "requiredGasLimit",
              "type": "uint256",
              "internalType": "uint256"
            },
            {
              "name": "recipientGasLimit",
              "type": "uint256",
              "internalType": "uint256"
            },
            {
              "name": "multiHopFallback",
              "type": "address",
              "internalType": "address"
            },
            {
              "name": "fallbackRecipient",
              "type": "address",
              "internalType": "address"
            },
            {
              "name": "primaryFeeTokenAddress",
              "type": "address",
              "internalType": "address"
            },
            {
              "name": "primaryFee",
              "type": "uint256",
              "internalType": "uint256"
            },
            {
              "name": "secondaryFee",
              "type": "uint256",
              "internalType": "uint256"
            }
          ]
        }
      ],
      "outputs": [],
      "stateMutability": "payable"
    },
    {
      "type": "function",
      "name": "symbol",
      "inputs": [],
      "outputs": [
        {
          "name": "",
          "type": "string",
          "internalType": "string"
        }
      ],
      "stateMutability": "view"
    },
    {
      "type": "function",
      "name": "totalNativeAssetSupply",
      "inputs": [],
      "outputs": [
        {
          "name": "",
          "type": "uint256",
          "internalType": "uint256"
        }
      ],
      "stateMutability": "view"
    },
    {
      "type": "function",
      "name": "totalSupply",
      "inputs": [],
      "outputs": [
        {
          "name": "",
          "type": "uint256",
          "internalType": "uint256"
        }
      ],
      "stateMutability": "view"
    },
    {
      "type": "function",
      "name": "transfer",
      "inputs": [
        {
          "name": "to",
          "type": "address",
          "internalType": "address"
        },
        {
          "name": "value",
          "type": "uint256",
          "internalType": "uint256"
        }
      ],
      "outputs": [
        {
          "name": "",
          "type": "bool",
          "internalType": "bool"
        }
      ],
      "stateMutability": "nonpayable"
    },
    {
      "type": "function",
      "name": "transferFrom",
      "inputs": [
        {
          "name": "from",
          "type": "address",
          "internalType": "address"
        },
        {
          "name": "to",
          "type": "address",
          "internalType": "address"
        },
        {
          "name": "value",
          "type": "uint256",
          "internalType": "uint256"
        }
      ],
      "outputs": [
        {
          "name": "",
          "type": "bool",
          "internalType": "bool"
        }
      ],
      "stateMutability": "nonpayable"
    },
    {
      "type": "function",
      "name": "transferOwnership",
      "inputs": [
        {
          "name": "newOwner",
          "type": "address",
          "internalType": "address"
        }
      ],
      "outputs": [],
      "stateMutability": "nonpayable"
    },
    {
      "type": "function",
      "name": "unpauseTeleporterAddress",
      "inputs": [
        {
          "name": "teleporterAddress",
          "type": "address",
          "internalType": "address"
        }
      ],
      "outputs": [],
      "stateMutability": "nonpayable"
    },
    {
      "type": "function",
      "name": "updateMinTeleporterVersion",
      "inputs": [
        {
          "name": "version",
          "type": "uint256",
          "internalType": "uint256"
        }
      ],
      "outputs": [],
      "stateMutability": "nonpayable"
    },
    {
      "type": "function",
      "name": "withdraw",
      "inputs": [
        {
          "name": "amount",
          "type": "uint256",
          "internalType": "uint256"
        }
      ],
      "outputs": [],
      "stateMutability": "nonpayable"
    },
    {
      "type": "event",
      "name": "Approval",
      "inputs": [
        {
          "name": "owner",
          "type": "address",
          "indexed": true,
          "internalType": "address"
        },
        {
          "name": "spender",
          "type": "address",
          "indexed": true,
          "internalType": "address"
        },
        {
          "name": "value",
          "type": "uint256",
          "indexed": false,
          "internalType": "uint256"
        }
      ],
      "anonymous": false
    },
    {
      "type": "event",
      "name": "CallFailed",
      "inputs": [
        {
          "name": "recipientContract",
          "type": "address",
          "indexed": true,
          "internalType": "address"
        },
        {
          "name": "amount",
          "type": "uint256",
          "indexed": false,
          "internalType": "uint256"
        }
      ],
      "anonymous": false
    },
    {
      "type": "event",
      "name": "CallSucceeded",
      "inputs": [
        {
          "name": "recipientContract",
          "type": "address",
          "indexed": true,
          "internalType": "address"
        },
        {
          "name": "amount",
          "type": "uint256",
          "indexed": false,
          "internalType": "uint256"
        }
      ],
      "anonymous": false
    },
    {
      "type": "event",
      "name": "Deposit",
      "inputs": [
        {
          "name": "sender",
          "type": "address",
          "indexed": true,
          "internalType": "address"
        },
        {
          "name": "amount",
          "type": "uint256",
          "indexed": false,
          "internalType": "uint256"
        }
      ],
      "anonymous": false
    },
    {
      "type": "event",
      "name": "Initialized",
      "inputs": [
        {
          "name": "version",
          "type": "uint64",
          "indexed": false,
          "internalType": "uint64"
        }
      ],
      "anonymous": false
    },
    {
      "type": "event",
      "name": "MinTeleporterVersionUpdated",
      "inputs": [
        {
          "name": "oldMinTeleporterVersion",
          "type": "uint256",
          "indexed": true,
          "internalType": "uint256"
        },
        {
          "name": "newMinTeleporterVersion",
          "type": "uint256",
          "indexed": true,
          "internalType": "uint256"
        }
      ],
      "anonymous": false
    },
    {
      "type": "event",
      "name": "OwnershipTransferred",
      "inputs": [
        {
          "name": "previousOwner",
          "type": "address",
          "indexed": true,
          "internalType": "address"
        },
        {
          "name": "newOwner",
          "type": "address",
          "indexed": true,
          "internalType": "address"
        }
      ],
      "anonymous": false
    },
    {
      "type": "event",
      "name": "ReportBurnedTxFees",
      "inputs": [
        {
          "name": "teleporterMessageID",
          "type": "bytes32",
          "indexed": true,
          "internalType": "bytes32"
        },
        {
          "name": "feesBurned",
          "type": "uint256",
          "indexed": false,
          "internalType": "uint256"
        }
      ],
      "anonymous": false
    },
    {
      "type": "event",
      "name": "TeleporterAddressPaused",
      "inputs": [
        {
          "name": "teleporterAddress",
          "type": "address",
          "indexed": true,
          "internalType": "address"
        }
      ],
      "anonymous": false
    },
    {
      "type": "event",
      "name": "TeleporterAddressUnpaused",
      "inputs": [
        {
          "name": "teleporterAddress",
          "type": "address",
          "indexed": true,
          "internalType": "address"
        }
      ],
      "anonymous": false
    },
    {
      "type": "event",
      "name": "TokensAndCallSent",
      "inputs": [
        {
          "name": "teleporterMessageID",
          "type": "bytes32",
          "indexed": true,
          "internalType": "bytes32"
        },
        {
          "name": "sender",
          "type": "address",
          "indexed": true,
          "internalType": "address"
        },
        {
          "name": "input",
          "type": "tuple",
          "indexed": false,
          "internalType": "struct SendAndCallInput",
          "components": [
            {
              "name": "destinationBlockchainID",
              "type": "bytes32",
              "internalType": "bytes32"
            },
            {
              "name": "destinationTokenTransferrerAddress",
              "type": "address",
              "internalType": "address"
            },
            {
              "name": "recipientContract",
              "type": "address",
              "internalType": "address"
            },
            {
              "name": "recipientPayload",
              "type": "bytes",
              "internalType": "bytes"
            },
            {
              "name": "requiredGasLimit",
              "type": "uint256",
              "internalType": "uint256"
            },
            {
              "name": "recipientGasLimit",
              "type": "uint256",
              "internalType": "uint256"
            },
            {
              "name": "multiHopFallback",
              "type": "address",
              "internalType": "address"
            },
            {
              "name": "fallbackRecipient",
              "type": "address",
              "internalType": "address"
            },
            {
              "name": "primaryFeeTokenAddress",
              "type": "address",
              "internalType": "address"
            },
            {
              "name": "primaryFee",
              "type": "uint256",
              "internalType": "uint256"
            },
            {
              "name": "secondaryFee",
              "type": "uint256",
              "internalType": "uint256"
            }
          ]
        },
        {
          "name": "amount",
          "type": "uint256",
          "indexed": false,
          "internalType": "uint256"
        }
      ],
      "anonymous": false
    },
    {
      "type": "event",
      "name": "TokensSent",
      "inputs": [
        {
          "name": "teleporterMessageID",
          "type": "bytes32",
          "indexed": true,
          "internalType": "bytes32"
        },
        {
          "name": "sender",
          "type": "address",
          "indexed": true,
          "internalType": "address"
        },
        {
          "name": "input",
          "type": "tuple",
          "indexed": false,
          "internalType": "struct SendTokensInput",
          "components": [
            {
              "name": "destinationBlockchainID",
              "type": "bytes32",
              "internalType": "bytes32"
            },
            {
              "name": "destinationTokenTransferrerAddress",
              "type": "address",
              "internalType": "address"
            },
            {
              "name": "recipient",
              "type": "address",
              "internalType": "address"
            },
            {
              "name": "primaryFeeTokenAddress",
              "type": "address",
              "internalType": "address"
            },
            {
              "name": "primaryFee",
              "type": "uint256",
              "internalType": "uint256"
            },
            {
              "name": "secondaryFee",
              "type": "uint256",
              "internalType": "uint256"
            },
            {
              "name": "requiredGasLimit",
              "type": "uint256",
              "internalType": "uint256"
            },
            {
              "name": "multiHopFallback",
              "type": "address",
              "internalType": "address"
            }
          ]
        },
        {
          "name": "amount",
          "type": "uint256",
          "indexed": false,
          "internalType": "uint256"
        }
      ],
      "anonymous": false
    },
    {
      "type": "event",
      "name": "TokensWithdrawn",
      "inputs": [
        {
          "name": "recipient",
          "type": "address",
          "indexed": true,
          "internalType": "address"
        },
        {
          "name": "amount",
          "type": "uint256",
          "indexed": false,
          "internalType": "uint256"
        }
      ],
      "anonymous": false
    },
    {
      "type": "event",
      "name": "Transfer",
      "inputs": [
        {
          "name": "from",
          "type": "address",
          "indexed": true,
          "internalType": "address"
        },
        {
          "name": "to",
          "type": "address",
          "indexed": true,
          "internalType": "address"
        },
        {
          "name": "value",
          "type": "uint256",
          "indexed": false,
          "internalType": "uint256"
        }
      ],
      "anonymous": false
    },
    {
      "type": "event",
      "name": "Withdrawal",
      "inputs": [
        {
          "name": "sender",
          "type": "address",
          "indexed": true,
          "internalType": "address"
        },
        {
          "name": "amount",
          "type": "uint256",
          "indexed": false,
          "internalType": "uint256"
        }
      ],
      "anonymous": false
    },
    {
      "type": "error",
      "name": "AddressEmptyCode",
      "inputs": [
        {
          "name": "target",
          "type": "address",
          "internalType": "address"
        }
      ]
    },
    {
      "type": "error",
      "name": "AddressInsufficientBalance",
      "inputs": [
        {
          "name": "account",
          "type": "address",
          "internalType": "address"
        }
      ]
    },
    {
      "type": "error",
      "name": "ERC20InsufficientAllowance",
      "inputs": [
        {
          "name": "spender",
          "type": "address",
          "internalType": "address"
        },
        {
          "name": "allowance",
          "type": "uint256",
          "internalType": "uint256"
        },
        {
          "name": "needed",
          "type": "uint256",
          "internalType": "uint256"
        }
      ]
    },
    {
      "type": "error",
      "name": "ERC20InsufficientBalance",
      "inputs": [
        {
          "name": "sender",
          "type": "address",
          "internalType": "address"
        },
        {
          "name": "balance",
          "type": "uint256",
          "internalType": "uint256"
        },
        {
          "name": "needed",
          "type": "uint256",
          "internalType": "uint256"
        }
      ]
    },
    {
      "type": "error",
      "name": "ERC20InvalidApprover",
      "inputs": [
        {
          "name": "approver",
          "type": "address",
          "internalType": "address"
        }
      ]
    },
    {
      "type": "error",
      "name": "ERC20InvalidReceiver",
      "inputs": [
        {
          "name": "receiver",
          "type": "address",
          "internalType": "address"
        }
      ]
    },
    {
      "type": "error",
      "name": "ERC20InvalidSender",
      "inputs": [
        {
          "name": "sender",
          "type": "address",
          "internalType": "address"
        }
      ]
    },
    {
      "type": "error",
      "name": "ERC20InvalidSpender",
      "inputs": [
        {
          "name": "spender",
          "type": "address",
          "internalType": "address"
        }
      ]
    },
    {
      "type": "error",
      "name": "FailedInnerCall",
      "inputs": []
    },
    {
      "type": "error",
      "name": "InvalidInitialization",
      "inputs": []
    },
    {
      "type": "error",
      "name": "NotInitializing",
      "inputs": []
    },
    {
      "type": "error",
      "name": "OwnableInvalidOwner",
      "inputs": [
        {
          "name": "owner",
          "type": "address",
          "internalType": "address"
        }
      ]
    },
    {
      "type": "error",
      "name": "OwnableUnauthorizedAccount",
      "inputs": [
        {
          "name": "account",
          "type": "address",
          "internalType": "address"
        }
      ]
    },
    {
      "type": "error",
      "name": "ReentrancyGuardReentrantCall",
      "inputs": []
    },
    {
      "type": "error",
      "name": "SafeERC20FailedOperation",
      "inputs": [
        {
          "name": "token",
          "type": "address",
          "internalType": "address"
        }
      ]
    }
  ],
  "bytecode": {
    "object": "0x608060405234801561000f575f80fd5b506040516150f13803806150f183398101604081905261002e91610107565b60018160018111156100425761004261012c565b0361004f5761004f610055565b50610140565b7ff0c57e16840df040f15088dc2f81fe391c3923bec73e23a9662efc9c229c6a00805468010000000000000000900460ff16156100a55760405163f92ee8a960e01b815260040160405180910390fd5b80546001600160401b03908116146101045780546001600160401b0319166001600160401b0390811782556040519081527fc7f505b2f371ae2175ee4913f4499e1f2633a7b5936321eed1cdaeb6115181d29060200160405180910390a15b50565b5f60208284031215610117575f80fd5b815160028110610125575f80fd5b9392505050565b634e487b7160e01b5f52602160045260245ffd5b614fa48061014d5f395ff3fe608060405260043610610280575f3560e01c8063715018a61161014e578063b8a46d02116100c0578063dd62ed3e11610079578063dd62ed3e14610736578063e0fd9cb814610755578063ed0ae4b014610452578063ef793e2a14610769578063f2fde38b1461077d578063f3f981d81461079c5761028f565b8063b8a46d02146106b9578063c3cd6927146106d8578063c452165e146106ec578063c868efaa14610703578063d0e30db01461028f578063d2cc7a70146107225761028f565b80638f6cec88116101125780638f6cec8814610608578063909a6ac01461062757806395d89b4114610647578063973142971461065b578063a5717bc01461067a578063a9059cbb1461069a5761028f565b8063715018a61461057b57806371717c181461058f5780637ee3779a146105a55780638bf2fa94146105b95780638da5cb5b146105cc5761028f565b80632e1a7d4d116101f25780634511243e116101ab5780634511243e146104b55780635507f3d1146104d457806355538c8b146104ea5780635eb99514146105095780636e6eef8d1461052857806370a082311461053b5761028f565b80632e1a7d4d146103e6578063313ce56714610405578063329c3e1214610420578063347212c41461045257806335cac1591461046e5780634213cf78146104a15761028f565b806315beb59f1161024457806315beb59f1461035557806318160ddd1461036a5780631906529c1461037e57806323b872dd14610392578063254ac160146103b15780632b0d8f18146103c75761028f565b806302a30c7d1461029757806306fdde03146102c05780630733c8c8146102e1578063095ea7b3146103035780630ca1c5c9146103225761028f565b3661028f5761028d6107bb565b005b61028d6107bb565b3480156102a2575f80fd5b506102ab6107fc565b60405190151581526020015b60405180910390f35b3480156102cb575f80fd5b506102d4610813565b6040516102b79190613f06565b3480156102ec575f80fd5b506102f56108d3565b6040519081526020016102b7565b34801561030e575f80fd5b506102ab61031d366004613f3c565b6108e7565b34801561032d575f80fd5b507f69a5f7616543528c4fbe43f410b1034bd6da4ba06c25bedf04617268014cf501546102f5565b348015610360575f80fd5b506102f56105dc81565b348015610375575f80fd5b506102f5610900565b348015610389575f80fd5b506102f561091b565b34801561039d575f80fd5b506102ab6103ac366004613f66565b610972565b3480156103bc575f80fd5b506102f56201fbd081565b3480156103d2575f80fd5b5061028d6103e1366004613fa4565b610997565b3480156103f1575f80fd5b5061028d610400366004613fbf565b610a99565b348015610410575f80fd5b50604051601281526020016102b7565b34801561042b575f80fd5b5061043a6001600160991b0181565b6040516001600160a01b0390911681526020016102b7565b34801561045d575f80fd5b5061043a62010203600160981b0181565b348015610479575f80fd5b506102f57f600d6a9b283d1eda563de594ce4843869b6f128a4baa222422ed94a60b0cef0081565b3480156104ac575f80fd5b506102f5610ae5565b3480156104c0575f80fd5b5061028d6104cf366004613fa4565b610af6565b3480156104df575f80fd5b506102f56205302081565b3480156104f5575f80fd5b5061028d610504366004613fbf565b610be5565b348015610514575f80fd5b5061028d610523366004613fbf565b610ef7565b61028d610536366004613fd6565b610f08565b348015610546575f80fd5b506102f5610555366004613fa4565b6001600160a01b03165f9081525f80516020614f18833981519152602052604090205490565b348015610586575f80fd5b5061028d610f36565b34801561059a575f80fd5b506102f56205573081565b3480156105b0575f80fd5b506102ab610f47565b61028d6105c736600461400d565b610f5e565b3480156105d7575f80fd5b507f9016d09d72d40fdae2fd8ceac6b6234c7706214fd39c1cd1e609a0528c199300546001600160a01b031661043a565b348015610613575f80fd5b5061028d61062236600461414d565b610f8c565b348015610632575f80fd5b506102f55f80516020614f7883398151915281565b348015610652575f80fd5b506102d461109e565b348015610666575f80fd5b506102ab610675366004613fa4565b6110dc565b348015610685575f80fd5b506102f55f80516020614f5883398151915281565b3480156106a5575f80fd5b506102ab6106b4366004613f3c565b6110f5565b3480156106c4575f80fd5b5061028d6106d3366004614217565b611102565b3480156106e3575f80fd5b5061043a611276565b3480156106f7575f80fd5b5061043a600160981b81565b34801561070e575f80fd5b5061028d61071d366004614227565b611293565b34801561072d575f80fd5b506102f5611450565b348015610741575f80fd5b506102f56107503660046142a8565b611465565b348015610760575f80fd5b506102f56114ae565b348015610774575f80fd5b506102f56114c2565b348015610788575f80fd5b5061028d610797366004613fa4565b6114d6565b3480156107a7575f80fd5b506102f56107b6366004613fbf565b611510565b60405134815233907fe1fffcc4923d04b559f4d29a8bfc6cda04eb5b0d3c460751c2402c5c5cc9109c9060200160405180910390a26107fa3334611526565b565b5f8061080661155e565b6006015460ff1692915050565b7f52c63247e1f47db19d5ce0460030c497f067ca4cebf71ba98eeadabe20bace0380546060915f80516020614f1883398151915291610851906142df565b80601f016020809104026020016040519081016040528092919081815260200182805461087d906142df565b80156108c85780601f1061089f576101008083540402835291602001916108c8565b820191905f5260205f20905b8154815290600101906020018083116108ab57829003601f168201915b505050505091505090565b5f806108dd61155e565b6003015492915050565b5f336108f4818585611582565b60019150505b92915050565b5f805f80516020614f188339815191525b6002015492915050565b5f5f80516020614f588339815191528161094462010203600160981b0131600160981b31614325565b90505f61094f6114c2565b836001015461095e9190614325565b905061096a8282614338565b935050505090565b5f3361097f858285611594565b61098a8585856115f1565b60019150505b9392505050565b5f80516020614f788339815191526109ad61164e565b6001600160a01b0382166109dc5760405162461bcd60e51b81526004016109d39061434b565b60405180910390fd5b6109e68183611656565b15610a495760405162461bcd60e51b815260206004820152602d60248201527f54656c65706f7274657252656769737472794170703a2061646472657373206160448201526c1b1c9958591e481c185d5cd959609a1b60648201526084016109d3565b6001600160a01b0382165f81815260018381016020526040808320805460ff1916909217909155517f933f93e57a222e6330362af8b376d0a8725b6901e9a2fb86d00f169702b28a4c9190a25050565b60405181815233907f7fcf532c15f0a6db0bd6d0e038bea71d30d808c7d98cb3bf7268a95bf5081b659060200160405180910390a2610ad83382611677565b610ae233826116ab565b50565b5f80610aef61155e565b5492915050565b5f80516020614f78833981519152610b0c61164e565b6001600160a01b038216610b325760405162461bcd60e51b81526004016109d39061434b565b610b3c8183611656565b610b9a5760405162461bcd60e51b815260206004820152602960248201527f54656c65706f7274657252656769737472794170703a2061646472657373206e6044820152681bdd081c185d5cd95960ba1b60648201526084016109d3565b6001600160a01b0382165f818152600183016020526040808220805460ff19169055517f844e2f3154214672229235858fd029d1dfd543901c6d05931f0bc2480a2d72c39190a25050565b5f80516020614f388339815191528054600114610c145760405162461bcd60e51b81526004016109d390614399565b600281557f69a5f7616543528c4fbe43f410b1034bd6da4ba06c25bedf04617268014cf502545f80516020614f5883398151915290600160981b31908111610cd25760405162461bcd60e51b8152602060048201526044602482018190527f4e6174697665546f6b656e52656d6f74653a206275726e206164647265737320908201527f62616c616e6365206e6f742067726561746572207468616e206c6173742072656064820152631c1bdc9d60e21b608482015260a4016109d3565b5f826002015482610ce39190614338565b90505f6064845f015483610cf791906143dd565b610d0191906143f4565b90505f610d0e8284614338565b6002860185905590508115610d3157610d27308361173e565b610d313083611526565b5f610d4b610d3d6108d3565b610d45610f47565b846117eb565b11610db55760405162461bcd60e51b815260206004820152603460248201527f4e6174697665546f6b656e52656d6f74653a207a65726f207363616c6564206160448201527336b7bab73a103a37903932b837b93a10313ab93760611b60648201526084016109d3565b604080518082018252600181528151808301835262010203600160981b018152602080820185905292515f9380840192610df192909101614427565b60405160208183030381529060405281525090505f610eac6040518060c00160405280610e1c6114ae565b8152602001610e29611276565b6001600160a01b0316815260408051808201825230815260208181018a905283015281018c90526060015f5b604051908082528060200260200182016040528015610e7e578160200160208202803683370190505b50815260200184604051602001610e959190614447565b604051602081830303815290604052815250611800565b9050807f0832c643b65d6d3724ed14ac3a655fbc7cae54fb010918b2c2f70ef6b1bb94a584604051610ee091815260200190565b60405180910390a250506001909555505050505050565b610eff61164e565b610ae28161191b565b610f106107fc565b610f2c5760405162461bcd60e51b81526004016109d390614489565b610ae28134611ab3565b610f3e611b2a565b6107fa5f611b85565b5f80610f5161155e565b6004015460ff1692915050565b610f666107fc565b610f825760405162461bcd60e51b81526004016109d390614489565b610ae28134611bf5565b7ff0c57e16840df040f15088dc2f81fe391c3923bec73e23a9662efc9c229c6a008054600160401b810460ff1615906001600160401b03165f81158015610fd05750825b90505f826001600160401b03166001148015610feb5750303b155b905081158015610ff9575080155b156110175760405163f92ee8a960e01b815260040160405180910390fd5b845467ffffffffffffffff19166001178555831561104157845460ff60401b1916600160401b1785555b61104d89898989611c61565b831561109357845460ff60401b19168555604051600181527fc7f505b2f371ae2175ee4913f4499e1f2633a7b5936321eed1cdaeb6115181d29060200160405180910390a15b505050505050505050565b7f52c63247e1f47db19d5ce0460030c497f067ca4cebf71ba98eeadabe20bace0480546060915f80516020614f1883398151915291610851906142df565b5f5f80516020614f788339815191526109908184611656565b5f336108f48185856115f1565b5f61110b61155e565b6006810154909150610100900460ff16156111685760405162461bcd60e51b815260206004820152601f60248201527f546f6b656e52656d6f74653a20616c726561647920726567697374657265640060448201526064016109d3565b604080516060808201835260058401548252600284015460ff600160a01b820481166020808601918252600160a81b9093048216858701908152865180880188525f808252885188518188015293518516848a015291519093168286015286518083039095018552608090910190955280820192909252919290916111fd906111f390870187613fa4565b8660200135611cf1565b6040805160c0810182526001870154815260028701546001600160a01b03166020808301919091528251808401845293945061126e939192830191908190611247908b018b613fa4565b6001600160a01b0316815260209081018690529082526201fbd0908201526040015f610e55565b505050505050565b5f8061128061155e565b600201546001600160a01b031692915050565b61129b611d38565b5f5f80516020614f7883398151915260028101548154919250906001600160a01b0316634c1f08ce336040516001600160e01b031960e084901b1681526001600160a01b039091166004820152602401602060405180830381865afa158015611306573d5f803e3d5ffd5b505050506040513d601f19601f8201168201806040525081019061132a91906144d8565b10156113915760405162461bcd60e51b815260206004820152603060248201527f54656c65706f7274657252656769737472794170703a20696e76616c6964205460448201526f32b632b837b93a32b91039b2b73232b960811b60648201526084016109d3565b61139b8133611656565b156114015760405162461bcd60e51b815260206004820152603060248201527f54656c65706f7274657252656769737472794170703a2054656c65706f72746560448201526f1c881859191c995cdcc81c185d5cd95960821b60648201526084016109d3565b611441858585858080601f0160208091040260200160405190810160405280939291908181526020018383808284375f92019190915250611d8292505050565b5061144a611f99565b50505050565b5f805f80516020614f78833981519152610911565b6001600160a01b039182165f9081527f52c63247e1f47db19d5ce0460030c497f067ca4cebf71ba98eeadabe20bace016020908152604080832093909416825291909152205490565b5f806114b861155e565b6001015492915050565b5f806114cc61155e565b6005015492915050565b6114de611b2a565b6001600160a01b03811661150757604051631e4fbdf760e01b81525f60048201526024016109d3565b610ae281611b85565b5f600561151e83601f614325565b901c92915050565b6001600160a01b03821661154f5760405163ec442f0560e01b81525f60048201526024016109d3565b61155a5f8383611fc3565b5050565b7f600d6a9b283d1eda563de594ce4843869b6f128a4baa222422ed94a60b0cef0090565b61158f83838360016120fc565b505050565b5f61159f8484611465565b90505f19811461144a57818110156115e357604051637dc7a0d960e11b81526001600160a01b038416600482015260248101829052604481018390526064016109d3565b61144a84848484035f6120fc565b6001600160a01b03831661161a57604051634b637e8f60e11b81525f60048201526024016109d3565b6001600160a01b0382166116435760405163ec442f0560e01b81525f60048201526024016109d3565b61158f838383611fc3565b6107fa611b2a565b6001600160a01b03165f908152600191909101602052604090205460ff1690565b6001600160a01b0382166116a057604051634b637e8f60e11b81525f60048201526024016109d3565b61155a825f83611fc3565b804710156116ce5760405163cd78605960e01b81523060048201526024016109d3565b5f826001600160a01b0316826040515f6040518083038185875af1925050503d805f8114611717576040519150601f19603f3d011682016040523d82523d5f602084013e61171c565b606091505b505090508061158f57604051630a12f52160e11b815260040160405180910390fd5b7f69a5f7616543528c4fbe43f410b1034bd6da4ba06c25bedf04617268014cf50180545f80516020614f588339815191529183915f9061177f908490614325565b90915550506040516327ad555d60e11b81526001600160a01b0384166004820152602481018390526001600160991b0190634f5aaaba906044015f604051808303815f87803b1580156117d0575f80fd5b505af11580156117e2573d5f803e3d5ffd5b50505050505050565b5f6117f88484845f6121df565b949350505050565b5f8061180a61220f565b604084015160200151909150156118af576040830151516001600160a01b031661188c5760405162461bcd60e51b815260206004820152602d60248201527f54656c65706f7274657252656769737472794170703a207a65726f206665652060448201526c746f6b656e206164647265737360981b60648201526084016109d3565b6040830151602081015190516118af916001600160a01b039091169083906122ff565b604051630624488560e41b81526001600160a01b038216906362448850906118db9086906004016144ef565b6020604051808303815f875af11580156118f7573d5f803e3d5ffd5b505050506040513d601f19601f8201168201806040525081019061099091906144d8565b5f80516020614f7883398151915280546040805163301fd1f560e21b815290515f926001600160a01b03169163c07f47d49160048083019260209291908290030181865afa15801561196f573d5f803e3d5ffd5b505050506040513d601f19601f8201168201806040525081019061199391906144d8565b600283015490915081841115611a055760405162461bcd60e51b815260206004820152603160248201527f54656c65706f7274657252656769737472794170703a20696e76616c6964205460448201527032b632b837b93a32b9103b32b939b4b7b760791b60648201526084016109d3565b808411611a7a5760405162461bcd60e51b815260206004820152603f60248201527f54656c65706f7274657252656769737472794170703a206e6f7420677265617460448201527f6572207468616e2063757272656e74206d696e696d756d2076657273696f6e0060648201526084016109d3565b60028301849055604051849082907fa9a7ef57e41f05b4c15480842f5f0c27edfcbb553fed281f7c4068452cc1c02d905f90a350505050565b5f80516020614f388339815191528054600114611ae25760405162461bcd60e51b81526004016109d390614399565b600281555f611aef61155e565b9050611afa84612386565b6001810154843503611b1657611b1084846125c0565b50611b22565b611b1084846127e4565b505b600190555050565b33611b5c7f9016d09d72d40fdae2fd8ceac6b6234c7706214fd39c1cd1e609a0528c199300546001600160a01b031690565b6001600160a01b0316146107fa5760405163118cdaa760e01b81523360048201526024016109d3565b7f9016d09d72d40fdae2fd8ceac6b6234c7706214fd39c1cd1e609a0528c19930080546001600160a01b031981166001600160a01b03848116918217845560405192169182907f8be0079c531659141344cd1fd0a4f28419497f9722a3daafe3b4186f6b6457e0905f90a3505050565b5f80516020614f388339815191528054600114611c245760405162461bcd60e51b81526004016109d390614399565b600281555f611c3161155e565b9050611c3c84612a85565b6001810154843503611c5757611c528484612b70565b611b20565b611b208484612cdf565b611c69612ea5565b815f03611cd25760405162461bcd60e51b815260206004820152603160248201527f4e6174697665546f6b656e52656d6f74653a207a65726f20696e697469616c206044820152707265736572766520696d62616c616e636560781b60648201526084016109d3565b611cdc8384612eee565b611ce884836012612f00565b61144a81612f31565b5f815f03611d0057505f6108fa565b306001600160a01b03841603611d2d57611d1b333084611594565b611d263330846115f1565b50806108fa565b610990833384612fa8565b7f9b779b17422d0df92223018b32b4d1fa46e071723d6817e2486d003becc55f00805460011901611d7c57604051633ee5aeb560e01b815260040160405180910390fd5b60029055565b5f611d8b61155e565b905080600101548414611df25760405162461bcd60e51b815260206004820152602960248201527f546f6b656e52656d6f74653a20696e76616c696420736f7572636520626c6f636044820152681ad8da185a5b88125160ba1b60648201526084016109d3565b60028101546001600160a01b03848116911614611e645760405162461bcd60e51b815260206004820152602a60248201527f546f6b656e52656d6f74653a20696e76616c6964206f726967696e2073656e646044820152696572206164647265737360b01b60648201526084016109d3565b5f82806020019051810190611e7991906145e8565b6006830154909150610100900460ff161580611e9a5750600682015460ff16155b15611eb15760068201805461ffff19166101011790555b600181516004811115611ec657611ec6614413565b03611efd575f8160200151806020019051810190611ee49190614670565b9050611ef7815f0151826020015161310b565b50611f92565b600281516004811115611f1257611f12614413565b03611f40575f8160200151806020019051810190611f3091906146a8565b9050611ef7818260800151613158565b60405162461bcd60e51b815260206004820152602160248201527f546f6b656e52656d6f74653a20696e76616c6964206d657373616765207479706044820152606560f81b60648201526084016109d3565b5050505050565b5f7f9b779b17422d0df92223018b32b4d1fa46e071723d6817e2486d003becc55f005b6001905550565b5f80516020614f188339815191526001600160a01b038416611ffd5781816002015f828254611ff29190614325565b9091555061206d9050565b6001600160a01b0384165f908152602082905260409020548281101561204f5760405163391434e360e21b81526001600160a01b038616600482015260248101829052604481018490526064016109d3565b6001600160a01b0385165f9081526020839052604090209083900390555b6001600160a01b03831661208b5760028101805483900390556120a9565b6001600160a01b0383165f9081526020829052604090208054830190555b826001600160a01b0316846001600160a01b03167fddf252ad1be2c89b69c2b068fc378daa952ba7f163c4a11628f55a4df523b3ef846040516120ee91815260200190565b60405180910390a350505050565b5f80516020614f188339815191526001600160a01b0385166121335760405163e602df0560e01b81525f60048201526024016109d3565b6001600160a01b03841661215c57604051634a1406b160e11b81525f60048201526024016109d3565b6001600160a01b038086165f90815260018301602090815260408083209388168352929052208390558115611f9257836001600160a01b0316856001600160a01b03167f8c5be1e5ebec7d5bd14f71427d1e84f3dd0314c0f7b2291e5b200ac8c7c3b925856040516121d091815260200190565b60405180910390a35050505050565b5f811515841515036121fc576121f585846143dd565b90506117f8565b61220685846143f4565b95945050505050565b5f80516020614f7883398151915280546040805163d820e64f60e01b815290515f939284926001600160a01b039091169163d820e64f916004808201926020929091908290030181865afa158015612269573d5f803e3d5ffd5b505050506040513d601f19601f8201168201806040525081019061228d9190614772565b90506122998282611656565b156108fa5760405162461bcd60e51b815260206004820152603060248201527f54656c65706f7274657252656769737472794170703a2054656c65706f72746560448201526f1c881cd95b991a5b99c81c185d5cd95960821b60648201526084016109d3565b604051636eb1769f60e11b81523060048201526001600160a01b0383811660248301525f919085169063dd62ed3e90604401602060405180830381865afa15801561234c573d5f803e3d5ffd5b505050506040513d601f19601f8201168201806040525081019061237091906144d8565b905061144a84846123818585614325565b613282565b80356123a45760405162461bcd60e51b81526004016109d39061478d565b5f6123b56040830160208401613fa4565b6001600160a01b0316036123db5760405162461bcd60e51b81526004016109d3906147d8565b5f6123ec6060830160408401613fa4565b6001600160a01b0316036124575760405162461bcd60e51b815260206004820152602c60248201527f546f6b656e52656d6f74653a207a65726f20726563697069656e7420636f6e7460448201526b72616374206164647265737360a01b60648201526084016109d3565b5f81608001351161247a5760405162461bcd60e51b81526004016109d390614835565b5f8160a00135116124db5760405162461bcd60e51b815260206004820152602560248201527f546f6b656e52656d6f74653a207a65726f20726563697069656e7420676173206044820152641b1a5b5a5d60da1b60648201526084016109d3565b80608001358160a00135106125435760405162461bcd60e51b815260206004820152602860248201527f546f6b656e52656d6f74653a20696e76616c696420726563697069656e742067604482015267185cc81b1a5b5a5d60c21b60648201526084016109d3565b5f612555610100830160e08401613fa4565b6001600160a01b031603610ae25760405162461bcd60e51b815260206004820152602c60248201527f546f6b656e52656d6f74653a207a65726f2066616c6c6261636b20726563697060448201526b69656e74206164647265737360a01b60648201526084016109d3565b5f6125c961155e565b90506125f96125de6040850160208601613fa4565b6101408501356125f460e0870160c08801613fa4565b61333f565b5f6126218361261061012087016101008801613fa4565b86610120013587610140013561343c565b6040805180820190915291945091505f908060028152602001604051806101000160405280865f01548152602001306001600160a01b031681526020016126653390565b6001600160a01b0316815260200161268360608a0160408b01613fa4565b6001600160a01b03168152602081018890526040016126a560608a018a614879565b8080601f0160208091040260200160405190810160405280939291908181526020018383808284375f9201919091525050509082525060a089013560208201526040016126f96101008a0160e08b01613fa4565b6001600160a01b0316905260405161271491906020016148bb565b60408051601f198184030181529181529152805160c0810182526001860154815260028601546001600160a01b03166020820152815180830183529293505f92612796928201908061276e6101208c016101008d01613fa4565b6001600160a01b03168152602090810188905290825260808a0135908201526040015f610e55565b9050336001600160a01b0316817f5d76dff81bf773b908b050fa113d39f7d8135bb4175398f313ea19cd3a1a0b1688886040516127d49291906149c2565b60405180910390a3505050505050565b5f6127ed61155e565b905061281983356128046040860160208701613fa4565b61281460e0870160c08801613fa4565b6134ff565b5f6128308361261061012087016101008801613fa4565b6040805180820190915291945091505f90806004815260200160405180610160016040528061285c3390565b6001600160a01b03168152602001885f013581526020018860200160208101906128869190613fa4565b6001600160a01b031681526020016128a460608a0160408b01613fa4565b6001600160a01b03168152602081018890526040016128c660608a018a614879565b8080601f0160208091040260200160405190810160405280939291908181526020018383808284375f9201919091525050509082525060a0890135602082015260400161291a6101008a0160e08b01613fa4565b6001600160a01b031681526080890135602082015260400161294260e08a0160c08b01613fa4565b6001600160a01b03168152610140890135602091820152604051612967929101614ad0565b60408051601f19818403018152919052905290505f6105dc61299661298f6060890189614879565b9050611510565b6129a091906143dd565b6129ad9062055730614325565b6040805160c0810182526001870154815260028701546001600160a01b03166020820152815180830183529293505f92612a3692820190806129f76101208d016101008e01613fa4565b6001600160a01b031681526020908101899052908252818101869052604080515f815280830182528184015251606090920191610e9591889101614447565b9050336001600160a01b0316817f5d76dff81bf773b908b050fa113d39f7d8135bb4175398f313ea19cd3a1a0b168989604051612a749291906149c2565b60405180910390a350505050505050565b5f612a966060830160408401613fa4565b6001600160a01b031603612af85760405162461bcd60e51b815260206004820152602360248201527f546f6b656e52656d6f74653a207a65726f20726563697069656e74206164647260448201526265737360e81b60648201526084016109d3565b5f8160c0013511612b1b5760405162461bcd60e51b81526004016109d390614835565b8035612b395760405162461bcd60e51b81526004016109d39061478d565b5f612b4a6040830160208401613fa4565b6001600160a01b031603610ae25760405162461bcd60e51b81526004016109d3906147d8565b5f612b7961155e565b9050612ba4612b8e6040850160208601613fa4565b60a08501356125f4610100870160e08801613fa4565b5f612bc883612bb96080870160608801613fa4565b86608001358760a0013561343c565b6040805180820190915291945091505f9080600181526020016040518060400160405280886040016020810190612bff9190613fa4565b6001600160a01b0316815260200187815250604051602001612c219190614427565b60408051601f198184030181529181529152805160c0810182526001860154815260028601546001600160a01b03166020820152815180830183529293505f92612ca19282019080612c7960808c0160608d01613fa4565b6001600160a01b03168152602090810188905290825260c08a0135908201526040015f610e55565b9050336001600160a01b0316817f93f19bf1ec58a15dc643b37e7e18a1c13e85e06cd11929e283154691ace9fb5288886040516127d4929190614bad565b5f612ce861155e565b9050612d108335612cff6040860160208701613fa4565b612814610100870160e08801613fa4565b5f612d2583612bb96080870160608801613fa4565b60408051808201825260038152815160e081018352883581529396509193505f9260208084019282820191612d5e918b01908b01613fa4565b6001600160a01b03168152602001612d7c60608a0160408b01613fa4565b6001600160a01b031681526020810188905260a0890135604082015260c08901356060820152608001612db66101008a0160e08b01613fa4565b6001600160a01b03169052604051612e269190602001815181526020808301516001600160a01b0390811691830191909152604080840151821690830152606080840151908301526080808401519083015260a0808401519083015260c092830151169181019190915260e00190565b60408051601f198184030181529181529152805160c0810182526001860154815260028601546001600160a01b03166020820152815180830183529293505f92612ca19282019080612e7e60808c0160608d01613fa4565b6001600160a01b03168152602090810188905290825262053020908201526040015f610e55565b7ff0c57e16840df040f15088dc2f81fe391c3923bec73e23a9662efc9c229c6a0054600160401b900460ff166107fa57604051631afcd79f60e31b815260040160405180910390fd5b612ef6612ea5565b61155a828261359d565b612f08612ea5565b612f1e835f0151846020015185604001516135ed565b612f26613608565b61158f838383613618565b612f39612ea5565b60648110612f975760405162461bcd60e51b815260206004820152602560248201527f4e6174697665546f6b656e52656d6f74653a20696e76616c69642070657263656044820152646e7461676560d81b60648201526084016109d3565b5f80516020614f5883398151915255565b6040516370a0823160e01b81523060048201525f9081906001600160a01b038616906370a0823190602401602060405180830381865afa158015612fee573d5f803e3d5ffd5b505050506040513d601f19601f8201168201806040525081019061301291906144d8565b90506130296001600160a01b03861685308661393c565b6040516370a0823160e01b81523060048201525f906001600160a01b038716906370a0823190602401602060405180830381865afa15801561306d573d5f803e3d5ffd5b505050506040513d601f19601f8201168201806040525081019061309191906144d8565b90508181116130f75760405162461bcd60e51b815260206004820152602c60248201527f5361666545524332305472616e7366657246726f6d3a2062616c616e6365206e60448201526b1bdd081a5b98dc99585cd95960a21b60648201526084016109d3565b6131018282614338565b9695505050505050565b816001600160a01b03167f6352c5382c4a4578e712449ca65e83cdb392d045dfcf1cad9615189db2da244b8260405161314691815260200190565b60405180910390a261155a828261173e565b613162308261173e565b5f825f0151836020015184604001518560a001516040516024016131899493929190614c4c565b60408051601f198184030181529190526020810180516001600160e01b031663161b12ff60e11b17905260c084015160608501519192505f916131cf9190859085613975565b905080156132235783606001516001600160a01b03167f104deb555f67e63782bb817bc26c39050894645f9b9f29c4be8ae68d0e8b7ff48460405161321691815260200190565b60405180910390a261144a565b83606001516001600160a01b03167fb9eaeae386d339f8115782f297a9e5f0e13fb587cd6b0d502f113cb8dd4d6cb08460405161326291815260200190565b60405180910390a260e084015161144a906001600160a01b0316846116ab565b604080516001600160a01b038416602482015260448082018490528251808303909101815260649091019091526020810180516001600160e01b031663095ea7b360e01b1790526132d38482613a45565b61144a576040516001600160a01b0384811660248301525f604483015261333591869182169063095ea7b3906064015b604051602081830303815290604052915060e01b6020820180516001600160e01b038381831617835250505050613ae2565b61144a8482613ae2565b5f61334861155e565b60028101549091506001600160a01b0385811691161461337a5760405162461bcd60e51b81526004016109d390614c7d565b82156133d45760405162461bcd60e51b815260206004820152602360248201527f546f6b656e52656d6f74653a206e6f6e2d7a65726f207365636f6e646172792060448201526266656560e81b60648201526084016109d3565b6001600160a01b0382161561144a5760405162461bcd60e51b815260206004820152602860248201527f546f6b656e52656d6f74653a206e6f6e2d7a65726f206d756c74692d686f702060448201526766616c6c6261636b60c01b60648201526084016109d3565b5f805f61344761155e565b905061345287613b43565b965061345e8686611cf1565b600382015460048301549196506134789160ff16866117eb565b60038201546004830154613490919060ff168a6117eb565b116134f25760405162461bcd60e51b815260206004820152602c60248201527f546f6b656e52656d6f74653a20696e73756666696369656e7420746f6b656e7360448201526b103a37903a3930b739b332b960a11b60648201526084016109d3565b5094959294509192505050565b5f61350861155e565b8054909150840361353b57306001600160a01b0384160361353b5760405162461bcd60e51b81526004016109d390614c7d565b6001600160a01b03821661144a5760405162461bcd60e51b8152602060048201526024808201527f546f6b656e52656d6f74653a207a65726f206d756c74692d686f702066616c6c6044820152636261636b60e01b60648201526084016109d3565b6135a5612ea5565b5f80516020614f188339815191527f52c63247e1f47db19d5ce0460030c497f067ca4cebf71ba98eeadabe20bace036135de8482614d1e565b506004810161144a8382614d1e565b6135f5612ea5565b6135ff8382613b5b565b61158f82613b7d565b613610612ea5565b6107fa613b8e565b613620612ea5565b5f61362961155e565b90506005600160991b016001600160a01b0316634213cf786040518163ffffffff1660e01b8152600401602060405180830381865afa15801561366e573d5f803e3d5ffd5b505050506040513d601f19601f8201168201806040525081019061369291906144d8565b815560608401516136f85760405162461bcd60e51b815260206004820152602a60248201527f546f6b656e52656d6f74653a207a65726f20746f6b656e20686f6d6520626c6f60448201526918dad8da185a5b88125160b21b60648201526084016109d3565b80546060850151036137725760405162461bcd60e51b815260206004820152603b60248201527f546f6b656e52656d6f74653a2063616e6e6f74206465706c6f7920746f20736160448201527f6d6520626c6f636b636861696e20617320746f6b656e20686f6d65000000000060648201526084016109d3565b60808401516001600160a01b03166137d85760405162461bcd60e51b8152602060048201526024808201527f546f6b656e52656d6f74653a207a65726f20746f6b656e20686f6d65206164646044820152637265737360e01b60648201526084016109d3565b60128460a0015160ff1611156138425760405162461bcd60e51b815260206004820152602960248201527f546f6b656e52656d6f74653a20746f6b656e20686f6d6520646563696d616c73604482015268040e8dede40d0d2ced60bb1b60648201526084016109d3565b60128260ff1611156138a25760405162461bcd60e51b8152602060048201526024808201527f546f6b656e52656d6f74653a20746f6b656e20646563696d616c7320746f6f206044820152630d0d2ced60e31b60648201526084016109d3565b60608401516001820155608084015160028201805460058401869055600684018054871560ff1990911617905560a08701516001600160a01b039093166001600160a81b031990911617600160a01b60ff808516919091029190911760ff60a81b1916600160a81b9186169190910217905561391e9083613ba2565b60048301805460ff1916911515919091179055600390910155505050565b6040516001600160a01b03848116602483015283811660448301526064820183905261144a9186918216906323b872dd90608401613303565b5f845a10156139c65760405162461bcd60e51b815260206004820152601b60248201527f43616c6c5574696c733a20696e73756666696369656e7420676173000000000060448201526064016109d3565b83471015613a165760405162461bcd60e51b815260206004820152601d60248201527f43616c6c5574696c733a20696e73756666696369656e742076616c756500000060448201526064016109d3565b826001600160a01b03163b5f03613a2e57505f6117f8565b5f805f84516020860188888bf19695505050505050565b5f805f846001600160a01b031684604051613a609190614dd9565b5f604051808303815f865af19150503d805f8114613a99576040519150601f19603f3d011682016040523d82523d5f602084013e613a9e565b606091505b5091509150818015613ac8575080511580613ac8575080806020019051810190613ac89190614df4565b80156122065750505050506001600160a01b03163b151590565b5f613af66001600160a01b03841683613bec565b905080515f14158015613b1a575080806020019051810190613b189190614df4565b155b1561158f57604051635274afe760e01b81526001600160a01b03841660048201526024016109d3565b5f613b5762010203600160981b01836116ab565b5090565b613b63612ea5565b613b6b613bf9565b613b73613c09565b61155a8282613c11565b613b85612ea5565b610ae281613d95565b5f5f80516020614f38833981519152611fbc565b5f8060ff808516908416118181613bc557613bbd8587614e13565b60ff16613bd3565b613bcf8686614e13565b60ff165b613bde90600a614f0c565b9350909150505b9250929050565b606061099083835f613d9d565b613c01612ea5565b6107fa613e2c565b6107fa612ea5565b613c19612ea5565b6001600160a01b038216613c955760405162461bcd60e51b815260206004820152603760248201527f54656c65706f7274657252656769737472794170703a207a65726f2054656c6560448201527f706f72746572207265676973747279206164647265737300000000000000000060648201526084016109d3565b5f5f80516020614f7883398151915290505f8390505f816001600160a01b031663c07f47d46040518163ffffffff1660e01b8152600401602060405180830381865afa158015613ce7573d5f803e3d5ffd5b505050506040513d601f19601f82011682018060405250810190613d0b91906144d8565b11613d735760405162461bcd60e51b815260206004820152603260248201527f54656c65706f7274657252656769737472794170703a20696e76616c69642054604482015271656c65706f7274657220726567697374727960701b60648201526084016109d3565b81546001600160a01b0319166001600160a01b03821617825561144a8361191b565b6114de612ea5565b606081471015613dc25760405163cd78605960e01b81523060048201526024016109d3565b5f80856001600160a01b03168486604051613ddd9190614dd9565b5f6040518083038185875af1925050503d805f8114613e17576040519150601f19603f3d011682016040523d82523d5f602084013e613e1c565b606091505b5091509150613101868383613e34565b611f99612ea5565b606082613e4957613e4482613e90565b610990565b8151158015613e6057506001600160a01b0384163b155b15613e8957604051639996b31560e01b81526001600160a01b03851660048201526024016109d3565b5080610990565b805115613ea05780518082602001fd5b604051630a12f52160e11b815260040160405180910390fd5b5f5b83811015613ed3578181015183820152602001613ebb565b50505f910152565b5f8151808452613ef2816020860160208601613eb9565b601f01601f19169290920160200192915050565b602081525f6109906020830184613edb565b6001600160a01b0381168114610ae2575f80fd5b8035613f3781613f18565b919050565b5f8060408385031215613f4d575f80fd5b8235613f5881613f18565b946020939093013593505050565b5f805f60608486031215613f78575f80fd5b8335613f8381613f18565b92506020840135613f9381613f18565b929592945050506040919091013590565b5f60208284031215613fb4575f80fd5b813561099081613f18565b5f60208284031215613fcf575f80fd5b5035919050565b5f60208284031215613fe6575f80fd5b81356001600160401b03811115613ffb575f80fd5b82016101608185031215610990575f80fd5b5f610100828403121561401e575f80fd5b50919050565b634e487b7160e01b5f52604160045260245ffd5b60405160c081016001600160401b038111828210171561405a5761405a614024565b60405290565b604080519081016001600160401b038111828210171561405a5761405a614024565b60405161010081016001600160401b038111828210171561405a5761405a614024565b604051601f8201601f191681016001600160401b03811182821017156140cd576140cd614024565b604052919050565b5f6001600160401b038211156140ed576140ed614024565b50601f01601f191660200190565b5f82601f83011261410a575f80fd5b813561411d614118826140d5565b6140a5565b818152846020838601011115614131575f80fd5b816020850160208301375f918101602001919091529392505050565b5f805f80848603610120811215614162575f80fd5b60c081121561416f575f80fd5b50614178614038565b853561418381613f18565b8152602086013561419381613f18565b80602083015250604086013560408201526060860135606082015260808601356141bc81613f18565b608082015260a086013560ff811681146141d4575f80fd5b60a0820152935060c08501356001600160401b038111156141f3575f80fd5b6141ff878288016140fb565b949794965050505060e0830135926101000135919050565b5f6040828403121561401e575f80fd5b5f805f806060858703121561423a575f80fd5b84359350602085013561424c81613f18565b925060408501356001600160401b0380821115614267575f80fd5b818701915087601f83011261427a575f80fd5b813581811115614288575f80fd5b886020828501011115614299575f80fd5b95989497505060200194505050565b5f80604083850312156142b9575f80fd5b82356142c481613f18565b915060208301356142d481613f18565b809150509250929050565b600181811c908216806142f357607f821691505b60208210810361401e57634e487b7160e01b5f52602260045260245ffd5b634e487b7160e01b5f52601160045260245ffd5b808201808211156108fa576108fa614311565b818103818111156108fa576108fa614311565b6020808252602e908201527f54656c65706f7274657252656769737472794170703a207a65726f2054656c6560408201526d706f72746572206164647265737360901b606082015260800190565b60208082526024908201527f53656e645265656e7472616e637947756172643a2073656e64207265656e7472604082015263616e637960e01b606082015260800190565b80820281158282048414176108fa576108fa614311565b5f8261440e57634e487b7160e01b5f52601260045260245ffd5b500490565b634e487b7160e01b5f52602160045260245ffd5b81516001600160a01b0316815260208083015190820152604081016108fa565b602081525f82516005811061446a57634e487b7160e01b5f52602160045260245ffd5b8060208401525060208301516040808401526117f86060840182613edb565b6020808252602f908201527f4e6174697665546f6b656e52656d6f74653a20636f6e747261637420756e646560408201526e1c98dbdb1b185d195c985b1a5e9959608a1b606082015260800190565b5f602082840312156144e8575f80fd5b5051919050565b6020808252825182820152828101516001600160a01b039081166040808501919091528401518051821660608501528083015160808501525f929161010085019190606087015160a0870152608087015160e060c08801528051938490528401925f92506101208701905b8084101561457c5784518316825293850193600193909301929085019061455a565b5060a0880151878203601f190160e0890152945061459a8186613edb565b98975050505050505050565b5f82601f8301126145b5575f80fd5b81516145c3614118826140d5565b8181528460208386010111156145d7575f80fd5b6117f8826020830160208701613eb9565b5f602082840312156145f8575f80fd5b81516001600160401b038082111561460e575f80fd5b9083019060408286031215614621575f80fd5b614629614060565b825160058110614637575f80fd5b815260208301518281111561464a575f80fd5b614656878286016145a6565b60208301525095945050505050565b8051613f3781613f18565b5f60408284031215614680575f80fd5b614688614060565b825161469381613f18565b81526020928301519281019290925250919050565b5f602082840312156146b8575f80fd5b81516001600160401b03808211156146ce575f80fd5b9083019061010082860312156146e2575f80fd5b6146ea614082565b825181526146fa60208401614665565b602082015261470b60408401614665565b604082015261471c60608401614665565b60608201526080830151608082015260a08301518281111561473c575f80fd5b614748878286016145a6565b60a08301525060c083015160c082015261476460e08401614665565b60e082015295945050505050565b5f60208284031215614782575f80fd5b815161099081613f18565b6020808252602b908201527f546f6b656e52656d6f74653a207a65726f2064657374696e6174696f6e20626c60408201526a1bd8dad8da185a5b88125160aa1b606082015260800190565b60208082526037908201527f546f6b656e52656d6f74653a207a65726f2064657374696e6174696f6e20746f60408201527f6b656e207472616e736665727265722061646472657373000000000000000000606082015260800190565b60208082526024908201527f546f6b656e52656d6f74653a207a65726f20726571756972656420676173206c6040820152631a5b5a5d60e21b606082015260800190565b5f808335601e1984360301811261488e575f80fd5b8301803591506001600160401b038211156148a7575f80fd5b602001915036819003821315613be5575f80fd5b60208152815160208201525f602083015160018060a01b0380821660408501528060408601511660608501525050606083015161490360808401826001600160a01b03169052565b50608083015160a083015260a08301516101008060c085015261492a610120850183613edb565b915060c085015160e085015260e085015161494f828601826001600160a01b03169052565b5090949350505050565b5f808335601e1984360301811261496e575f80fd5b83016020810192503590506001600160401b0381111561498c575f80fd5b803603821315613be5575f80fd5b81835281816020850137505f828201602090810191909152601f909101601f19169091010190565b60408152823560408201525f6149da60208501613f2c565b6001600160a01b031660608301526149f460408501613f2c565b6001600160a01b03166080830152614a0f6060850185614959565b6101608060a0860152614a276101a08601838561499a565b9250608087013560c086015260a087013560e0860152614a4960c08801613f2c565b9150610100614a62818701846001600160a01b03169052565b614a6e60e08901613f2c565b9250610120614a87818801856001600160a01b03169052565b614a92828a01613f2c565b93506101409150614aad828801856001600160a01b03169052565b880135918601919091529095013561018084015260209092019290925292915050565b60208152614aea6020820183516001600160a01b03169052565b602082015160408201525f6040830151614b0f60608401826001600160a01b03169052565b5060608301516001600160a01b038116608084015250608083015160a083015260a08301516101608060c0850152614b4b610180850183613edb565b915060c085015160e085015260e0850151610100614b73818701836001600160a01b03169052565b860151610120868101919091528601519050610140614b9c818701836001600160a01b03169052565b959095015193019290925250919050565b8235815261012081016020840135614bc481613f18565b6001600160a01b039081166020840152604085013590614be382613f18565b166040830152614bf560608501613f2c565b6001600160a01b0381166060840152506080840135608083015260a084013560a083015260c084013560c0830152614c2f60e08501613f2c565b6001600160a01b031660e083015261010090910191909152919050565b8481526001600160a01b038481166020830152831660408201526080606082018190525f9061310190830184613edb565b6020808252603a908201527f546f6b656e52656d6f74653a20696e76616c69642064657374696e6174696f6e60408201527f20746f6b656e207472616e736665727265722061646472657373000000000000606082015260800190565b601f82111561158f57805f5260205f20601f840160051c81016020851015614cff5750805b601f840160051c820191505b81811015611f92575f8155600101614d0b565b81516001600160401b03811115614d3757614d37614024565b614d4b81614d4584546142df565b84614cda565b602080601f831160018114614d7e575f8415614d675750858301515b5f19600386901b1c1916600185901b17855561126e565b5f85815260208120601f198616915b82811015614dac57888601518255948401946001909101908401614d8d565b5085821015614dc957878501515f19600388901b60f8161c191681555b5050505050600190811b01905550565b5f8251614dea818460208701613eb9565b9190910192915050565b5f60208284031215614e04575f80fd5b81518015158114610990575f80fd5b60ff82811682821603908111156108fa576108fa614311565b600181815b80851115614e6657815f1904821115614e4c57614e4c614311565b80851615614e5957918102915b93841c9390800290614e31565b509250929050565b5f82614e7c575060016108fa565b81614e8857505f6108fa565b8160018114614e9e5760028114614ea857614ec4565b60019150506108fa565b60ff841115614eb957614eb9614311565b50506001821b6108fa565b5060208310610133831016604e8410600b8410161715614ee7575081810a6108fa565b614ef18383614e2c565b805f1904821115614f0457614f04614311565b029392505050565b5f6109908383614e6e56fe52c63247e1f47db19d5ce0460030c497f067ca4cebf71ba98eeadabe20bace00d2f1ed38b7d242bfb8b41862afb813a15193219a4bc717f2056607593e6c750069a5f7616543528c4fbe43f410b1034bd6da4ba06c25bedf04617268014cf500de77a4dc7391f6f8f2d9567915d687d3aee79e7a1fc7300392f2727e9a0f1d00a164736f6c6343000819000a",
    "linkReferences": {}
  },
  "methodIdentifiers": {
    "BURNED_FOR_TRANSFER_ADDRESS()": "347212c4",
    "BURNED_TX_FEES_ADDRESS()": "c452165e",
    "HOME_CHAIN_BURN_ADDRESS()": "ed0ae4b0",
    "MULTI_HOP_CALL_GAS_PER_WORD()": "15beb59f",
    "MULTI_HOP_CALL_REQUIRED_GAS()": "71717c18",
    "MULTI_HOP_SEND_REQUIRED_GAS()": "5507f3d1",
    "NATIVE_MINTER()": "329c3e12",
    "NATIVE_TOKEN_REMOTE_STORAGE_LOCATION()": "a5717bc0",
    "REGISTER_REMOTE_REQUIRED_GAS()": "254ac160",
    "TELEPORTER_REGISTRY_APP_STORAGE_LOCATION()": "909a6ac0",
    "TOKEN_REMOTE_STORAGE_LOCATION()": "35cac159",
    "allowance(address,address)": "dd62ed3e",
    "approve(address,uint256)": "095ea7b3",
    "balanceOf(address)": "70a08231",
    "calculateNumWords(uint256)": "f3f981d8",
    "decimals()": "313ce567",
    "deposit()": "d0e30db0",
    "getBlockchainID()": "4213cf78",
    "getInitialReserveImbalance()": "ef793e2a",
    "getIsCollateralized()": "02a30c7d",
    "getMinTeleporterVersion()": "d2cc7a70",
    "getMultiplyOnRemote()": "7ee3779a",
    "getTokenHomeAddress()": "c3cd6927",
    "getTokenHomeBlockchainID()": "e0fd9cb8",
    "getTokenMultiplier()": "0733c8c8",
    "getTotalMinted()": "0ca1c5c9",
    "initialize((address,address,uint256,bytes32,address,uint8),string,uint256,uint256)": "8f6cec88",
    "isTeleporterAddressPaused(address)": "97314297",
    "name()": "06fdde03",
    "owner()": "8da5cb5b",
    "pauseTeleporterAddress(address)": "2b0d8f18",
    "receiveTeleporterMessage(bytes32,address,bytes)": "c868efaa",
    "registerWithHome((address,uint256))": "b8a46d02",
    "renounceOwnership()": "715018a6",
    "reportBurnedTxFees(uint256)": "55538c8b",
    "send((bytes32,address,address,address,uint256,uint256,uint256,address))": "8bf2fa94",
    "sendAndCall((bytes32,address,address,bytes,uint256,uint256,address,address,address,uint256,uint256))": "6e6eef8d",
    "symbol()": "95d89b41",
    "totalNativeAssetSupply()": "1906529c",
    "totalSupply()": "18160ddd",
    "transfer(address,uint256)": "a9059cbb",
    "transferFrom(address,address,uint256)": "23b872dd",
    "transferOwnership(address)": "f2fde38b",
    "unpauseTeleporterAddress(address)": "4511243e",
    "updateMinTeleporterVersion(uint256)": "5eb99514",
    "withdraw(uint256)": "2e1a7d4d"
  },
  "id": 13
}