{
  "abi": [
    {
      "type": "constructor",
      "inputs": [
        {
          "name": "init",
          "type": "uint8",
          "internalType": "enum ICMInitializable"
        }
      ],
      "stateMutability": "nonpayable"
    },
    {
      "type": "function",
      "name": "BIPS_CONVERSION_FACTOR",
      "inputs": [],
      "outputs": [
        {
          "name": "",
          "type": "uint16",
          "internalType": "uint16"
        }
      ],
      "stateMutability": "view"
    },
    {
      "type": "function",
      "name": "MAXIMUM_DELEGATION_FEE_BIPS",
      "inputs": [],
      "outputs": [
        {
          "name": "",
          "type": "uint16",
          "internalType": "uint16"
        }
      ],
      "stateMutability": "view"
    },
    {
      "type": "function",
      "name": "MAXIMUM_STAKE_MULTIPLIER_LIMIT",
      "inputs": [],
      "outputs": [
        {
          "name": "",
          "type": "uint8",
          "internalType": "uint8"
        }
      ],
      "stateMutability": "view"
    },
    {
      "type": "function",
      "name": "NATIVE_MINTER",
      "inputs": [],
      "outputs": [
        {
          "name": "",
          "type": "address",
          "internalType": "contract INativeMinter"
        }
      ],
      "stateMutability": "view"
    },
    {
      "type": "function",
      "name": "STAKING_MANAGER_STORAGE_LOCATION",
      "inputs": [],
      "outputs": [
        {
          "name": "",
          "type": "bytes32",
          "internalType": "bytes32"
        }
      ],
      "stateMutability": "view"
    },
    {
      "type": "function",
      "name": "WARP_MESSENGER",
      "inputs": [],
      "outputs": [
        {
          "name": "",
          "type": "address",
          "internalType": "contract IWarpMessenger"
        }
      ],
      "stateMutability": "view"
    },
    {
      "type": "function",
      "name": "changeDelegatorRewardRecipient",
      "inputs": [
        {
          "name": "delegationID",
          "type": "bytes32",
          "internalType": "bytes32"
        },
        {
          "name": "rewardRecipient",
          "type": "address",
          "internalType": "address"
        }
      ],
      "outputs": [],
      "stateMutability": "nonpayable"
    },
    {
      "type": "function",
      "name": "changeValidatorRewardRecipient",
      "inputs": [
        {
          "name": "validationID",
          "type": "bytes32",
          "internalType": "bytes32"
        },
        {
          "name": "rewardRecipient",
          "type": "address",
          "internalType": "address"
        }
      ],
      "outputs": [],
      "stateMutability": "nonpayable"
    },
    {
      "type": "function",
      "name": "claimDelegationFees",
      "inputs": [
        {
          "name": "validationID",
          "type": "bytes32",
          "internalType": "bytes32"
        }
      ],
      "outputs": [],
      "stateMutability": "nonpayable"
    },
    {
      "type": "function",
      "name": "completeDelegatorRegistration",
      "inputs": [
        {
          "name": "delegationID",
          "type": "bytes32",
          "internalType": "bytes32"
        },
        {
          "name": "messageIndex",
          "type": "uint32",
          "internalType": "uint32"
        }
      ],
      "outputs": [],
      "stateMutability": "nonpayable"
    },
    {
      "type": "function",
      "name": "completeDelegatorRemoval",
      "inputs": [
        {
          "name": "delegationID",
          "type": "bytes32",
          "internalType": "bytes32"
        },
        {
          "name": "messageIndex",
          "type": "uint32",
          "internalType": "uint32"
        }
      ],
      "outputs": [],
      "stateMutability": "nonpayable"
    },
    {
      "type": "function",
      "name": "completeValidatorRegistration",
      "inputs": [
        {
          "name": "messageIndex",
          "type": "uint32",
          "internalType": "uint32"
        }
      ],
      "outputs": [
        {
          "name": "",
          "type": "bytes32",
          "internalType": "bytes32"
        }
      ],
      "stateMutability": "nonpayable"
    },
    {
      "type": "function",
      "name": "completeValidatorRemoval",
      "inputs": [
        {
          "name": "messageIndex",
          "type": "uint32",
          "internalType": "uint32"
        }
      ],
      "outputs": [
        {
          "name": "",
          "type": "bytes32",
          "internalType": "bytes32"
        }
      ],
      "stateMutability": "nonpayable"
    },
    {
      "type": "function",
      "name": "forceInitiateDelegatorRemoval",
      "inputs": [
        {
          "name": "delegationID",
          "type": "bytes32",
          "internalType": "bytes32"
        },
        {
          "name": "includeUptimeProof",
          "type": "bool",
          "internalType": "bool"
        },
        {
          "name": "messageIndex",
          "type": "uint32",
          "internalType": "uint32"
        }
      ],
      "outputs": [],
      "stateMutability": "nonpayable"
    },
    {
      "type": "function",
      "name": "forceInitiateValidatorRemoval",
      "inputs": [
        {
          "name": "validationID",
          "type": "bytes32",
          "internalType": "bytes32"
        },
        {
          "name": "includeUptimeProof",
          "type": "bool",
          "internalType": "bool"
        },
        {
          "name": "messageIndex",
          "type": "uint32",
          "internalType": "uint32"
        }
      ],
      "outputs": [],
      "stateMutability": "nonpayable"
    },
    {
      "type": "function",
      "name": "getDelegatorInfo",
      "inputs": [
        {
          "name": "delegationID",
          "type": "bytes32",
          "internalType": "bytes32"
        }
      ],
      "outputs": [
        {
          "name": "",
          "type": "tuple",
          "internalType": "struct Delegator",
          "components": [
            {
              "name": "status",
              "type": "uint8",
              "internalType": "enum DelegatorStatus"
            },
            {
              "name": "owner",
              "type": "address",
              "internalType": "address"
            },
            {
              "name": "validationID",
              "type": "bytes32",
              "internalType": "bytes32"
            },
            {
              "name": "weight",
              "type": "uint64",
              "internalType": "uint64"
            },
            {
              "name": "startTime",
              "type": "uint64",
              "internalType": "uint64"
            },
            {
              "name": "startingNonce",
              "type": "uint64",
              "internalType": "uint64"
            },
            {
              "name": "endingNonce",
              "type": "uint64",
              "internalType": "uint64"
            }
          ]
        }
      ],
      "stateMutability": "view"
    },
    {
      "type": "function",
      "name": "getDelegatorRewardInfo",
      "inputs": [
        {
          "name": "delegationID",
          "type": "bytes32",
          "internalType": "bytes32"
        }
      ],
      "outputs": [
        {
          "name": "",
          "type": "address",
          "internalType": "address"
        },
        {
          "name": "",
          "type": "uint256",
          "internalType": "uint256"
        }
      ],
      "stateMutability": "view"
    },
    {
      "type": "function",
      "name": "getStakingManagerSettings",
      "inputs": [],
      "outputs": [
        {
          "name": "",
          "type": "tuple",
          "internalType": "struct StakingManagerSettings",
          "components": [
            {
              "name": "manager",
              "type": "address",
              "internalType": "contract IValidatorManager"
            },
            {
              "name": "minimumStakeAmount",
              "type": "uint256",
              "internalType": "uint256"
            },
            {
              "name": "maximumStakeAmount",
              "type": "uint256",
              "internalType": "uint256"
            },
            {
              "name": "minimumStakeDuration",
              "type": "uint64",
              "internalType": "uint64"
            },
            {
              "name": "minimumDelegationFeeBips",
              "type": "uint16",
              "internalType": "uint16"
            },
            {
              "name": "maximumStakeMultiplier",
              "type": "uint8",
              "internalType": "uint8"
            },
            {
              "name": "weightToValueFactor",
              "type": "uint256",
              "internalType": "uint256"
            },
            {
              "name": "rewardCalculator",
              "type": "address",
              "internalType": "contract IRewardCalculator"
            },
            {
              "name": "uptimeBlockchainID",
              "type": "bytes32",
              "internalType": "bytes32"
            }
          ]
        }
      ],
      "stateMutability": "view"
    },
    {
      "type": "function",
      "name": "getStakingValidator",
      "inputs": [
        {
          "name": "validationID",
          "type": "bytes32",
          "internalType": "bytes32"
        }
      ],
      "outputs": [
        {
          "name": "",
          "type": "tuple",
          "internalType": "struct PoSValidatorInfo",
          "components": [
            {
              "name": "owner",
              "type": "address",
              "internalType": "address"
            },
            {
              "name": "delegationFeeBips",
              "type": "uint16",
              "internalType": "uint16"
            },
            {
              "name": "minStakeDuration",
              "type": "uint64",
              "internalType": "uint64"
            },
            {
              "name": "uptimeSeconds",
              "type": "uint64",
              "internalType": "uint64"
            }
          ]
        }
      ],
      "stateMutability": "view"
    },
    {
      "type": "function",
      "name": "getValidatorRewardInfo",
      "inputs": [
        {
          "name": "validationID",
          "type": "bytes32",
          "internalType": "bytes32"
        }
      ],
      "outputs": [
        {
          "name": "",
          "type": "address",
          "internalType": "address"
        },
        {
          "name": "",
          "type": "uint256",
          "internalType": "uint256"
        }
      ],
      "stateMutability": "view"
    },
    {
      "type": "function",
      "name": "initialize",
      "inputs": [
        {
          "name": "settings",
          "type": "tuple",
          "internalType": "struct StakingManagerSettings",
          "components": [
            {
              "name": "manager",
              "type": "address",
              "internalType": "contract IValidatorManager"
            },
            {
              "name": "minimumStakeAmount",
              "type": "uint256",
              "internalType": "uint256"
            },
            {
              "name": "maximumStakeAmount",
              "type": "uint256",
              "internalType": "uint256"
            },
            {
              "name": "minimumStakeDuration",
              "type": "uint64",
              "internalType": "uint64"
            },
            {
              "name": "minimumDelegationFeeBips",
              "type": "uint16",
              "internalType": "uint16"
            },
            {
              "name": "maximumStakeMultiplier",
              "type": "uint8",
              "internalType": "uint8"
            },
            {
              "name": "weightToValueFactor",
              "type": "uint256",
              "internalType": "uint256"
            },
            {
              "name": "rewardCalculator",
              "type": "address",
              "internalType": "contract IRewardCalculator"
            },
            {
              "name": "uptimeBlockchainID",
              "type": "bytes32",
              "internalType": "bytes32"
            }
          ]
        }
      ],
      "outputs": [],
      "stateMutability": "nonpayable"
    },
    {
      "type": "function",
      "name": "initiateDelegatorRegistration",
      "inputs": [
        {
          "name": "validationID",
          "type": "bytes32",
          "internalType": "bytes32"
        },
        {
          "name": "rewardRecipient",
          "type": "address",
          "internalType": "address"
        }
      ],
      "outputs": [
        {
          "name": "",
          "type": "bytes32",
          "internalType": "bytes32"
        }
      ],
      "stateMutability": "payable"
    },
    {
      "type": "function",
      "name": "initiateDelegatorRemoval",
      "inputs": [
        {
          "name": "delegationID",
          "type": "bytes32",
          "internalType": "bytes32"
        },
        {
          "name": "includeUptimeProof",
          "type": "bool",
          "internalType": "bool"
        },
        {
          "name": "messageIndex",
          "type": "uint32",
          "internalType": "uint32"
        }
      ],
      "outputs": [],
      "stateMutability": "nonpayable"
    },
    {
      "type": "function",
      "name": "initiateValidatorRegistration",
      "inputs": [
        {
          "name": "nodeID",
          "type": "bytes",
          "internalType": "bytes"
        },
        {
          "name": "blsPublicKey",
          "type": "bytes",
          "internalType": "bytes"
        },
        {
          "name": "remainingBalanceOwner",
          "type": "tuple",
          "internalType": "struct PChainOwner",
          "components": [
            {
              "name": "threshold",
              "type": "uint32",
              "internalType": "uint32"
            },
            {
              "name": "addresses",
              "type": "address[]",
              "internalType": "address[]"
            }
          ]
        },
        {
          "name": "disableOwner",
          "type": "tuple",
          "internalType": "struct PChainOwner",
          "components": [
            {
              "name": "threshold",
              "type": "uint32",
              "internalType": "uint32"
            },
            {
              "name": "addresses",
              "type": "address[]",
              "internalType": "address[]"
            }
          ]
        },
        {
          "name": "delegationFeeBips",
          "type": "uint16",
          "internalType": "uint16"
        },
        {
          "name": "minStakeDuration",
          "type": "uint64",
          "internalType": "uint64"
        },
        {
          "name": "rewardRecipient",
          "type": "address",
          "internalType": "address"
        }
      ],
      "outputs": [
        {
          "name": "",
          "type": "bytes32",
          "internalType": "bytes32"
        }
      ],
      "stateMutability": "payable"
    },
    {
      "type": "function",
      "name": "initiateValidatorRemoval",
      "inputs": [
        {
          "name": "validationID",
          "type": "bytes32",
          "internalType": "bytes32"
        },
        {
          "name": "includeUptimeProof",
          "type": "bool",
          "internalType": "bool"
        },
        {
          "name": "messageIndex",
          "type": "uint32",
          "internalType": "uint32"
        }
      ],
      "outputs": [],
      "stateMutability": "nonpayable"
    },
    {
      "type": "function",
      "name": "resendUpdateDelegator",
      "inputs": [
        {
          "name": "delegationID",
          "type": "bytes32",
          "internalType": "bytes32"
        }
      ],
      "outputs": [],
      "stateMutability": "nonpayable"
    },
    {
      "type": "function",
      "name": "submitUptimeProof",
      "inputs": [
        {
          "name": "validationID",
          "type": "bytes32",
          "internalType": "bytes32"
        },
        {
          "name": "messageIndex",
          "type": "uint32",
          "internalType": "uint32"
        }
      ],
      "outputs": [],
      "stateMutability": "nonpayable"
    },
    {
      "type": "function",
      "name": "valueToWeight",
      "inputs": [
        {
          "name": "value",
          "type": "uint256",
          "internalType": "uint256"
        }
      ],
      "outputs": [
        {
          "name": "",
          "type": "uint64",
          "internalType": "uint64"
        }
      ],
      "stateMutability": "view"
    },
    {
      "type": "function",
      "name": "weightToValue",
      "inputs": [
        {
          "name": "weight",
          "type": "uint64",
          "internalType": "uint64"
        }
      ],
      "outputs": [
        {
          "name": "",
          "type": "uint256",
          "internalType": "uint256"
        }
      ],
      "stateMutability": "view"
    },
    {
      "type": "event",
      "name": "CompletedDelegatorRegistration",
      "inputs": [
        {
          "name": "delegationID",
          "type": "bytes32",
          "indexed": true,
          "internalType": "bytes32"
        },
        {
          "name": "validationID",
          "type": "bytes32",
          "indexed": true,
          "internalType": "bytes32"
        },
        {
          "name": "startTime",
          "type": "uint256",
          "indexed": false,
          "internalType": "uint256"
        }
      ],
      "anonymous": false
    },
    {
      "type": "event",
      "name": "CompletedDelegatorRemoval",
      "inputs": [
        {
          "name": "delegationID",
          "type": "bytes32",
          "indexed": true,
          "internalType": "bytes32"
        },
        {
          "name": "validationID",
          "type": "bytes32",
          "indexed": true,
          "internalType": "bytes32"
        },
        {
          "name": "rewards",
          "type": "uint256",
          "indexed": false,
          "internalType": "uint256"
        },
        {
          "name": "fees",
          "type": "uint256",
          "indexed": false,
          "internalType": "uint256"
        }
      ],
      "anonymous": false
    },
    {
      "type": "event",
      "name": "DelegatorRewardClaimed",
      "inputs": [
        {
          "name": "delegationID",
          "type": "bytes32",
          "indexed": true,
          "internalType": "bytes32"
        },
        {
          "name": "recipient",
          "type": "address",
          "indexed": true,
          "internalType": "address"
        },
        {
          "name": "amount",
          "type": "uint256",
          "indexed": false,
          "internalType": "uint256"
        }
      ],
      "anonymous": false
    },
    {
      "type": "event",
      "name": "DelegatorRewardRecipientChanged",
      "inputs": [
        {
          "name": "delegationID",
          "type": "bytes32",
          "indexed": true,
          "internalType": "bytes32"
        },
        {
          "name": "recipient",
          "type": "address",
          "indexed": true,
          "internalType": "address"
        },
        {
          "name": "oldRecipient",
          "type": "address",
          "indexed": true,
          "internalType": "address"
        }
      ],
      "anonymous": false
    },
    {
      "type": "event",
      "name": "Initialized",
      "inputs": [
        {
          "name": "version",
          "type": "uint64",
          "indexed": false,
          "internalType": "uint64"
        }
      ],
      "anonymous": false
    },
    {
      "type": "event",
      "name": "InitiatedDelegatorRegistration",
      "inputs": [
        {
          "name": "delegationID",
          "type": "bytes32",
          "indexed": true,
          "internalType": "bytes32"
        },
        {
          "name": "validationID",
          "type": "bytes32",
          "indexed": true,
          "internalType": "bytes32"
        },
        {
          "name": "delegatorAddress",
          "type": "address",
          "indexed": true,
          "internalType": "address"
        },
        {
          "name": "nonce",
          "type": "uint64",
          "indexed": false,
          "internalType": "uint64"
        },
        {
          "name": "validatorWeight",
          "type": "uint64",
          "indexed": false,
          "internalType": "uint64"
        },
        {
          "name": "delegatorWeight",
          "type": "uint64",
          "indexed": false,
          "internalType": "uint64"
        },
        {
          "name": "setWeightMessageID",
          "type": "bytes32",
          "indexed": false,
          "internalType": "bytes32"
        },
        {
          "name": "rewardRecipient",
          "type": "address",
          "indexed": false,
          "internalType": "address"
        }
      ],
      "anonymous": false
    },
    {
      "type": "event",
      "name": "InitiatedDelegatorRemoval",
      "inputs": [
        {
          "name": "delegationID",
          "type": "bytes32",
          "indexed": true,
          "internalType": "bytes32"
        },
        {
          "name": "validationID",
          "type": "bytes32",
          "indexed": true,
          "internalType": "bytes32"
        }
      ],
      "anonymous": false
    },
    {
      "type": "event",
      "name": "InitiatedStakingValidatorRegistration",
      "inputs": [
        {
          "name": "validationID",
          "type": "bytes32",
          "indexed": true,
          "internalType": "bytes32"
        },
        {
          "name": "owner",
          "type": "address",
          "indexed": true,
          "internalType": "address"
        },
        {
          "name": "delegationFeeBips",
          "type": "uint16",
          "indexed": false,
          "internalType": "uint16"
        },
        {
          "name": "minStakeDuration",
          "type": "uint64",
          "indexed": false,
          "internalType": "uint64"
        },
        {
          "name": "rewardRecipient",
          "type": "address",
          "indexed": false,
          "internalType": "address"
        }
      ],
      "anonymous": false
    },
    {
      "type": "event",
      "name": "UptimeUpdated",
      "inputs": [
        {
          "name": "validationID",
          "type": "bytes32",
          "indexed": true,
          "internalType": "bytes32"
        },
        {
          "name": "uptime",
          "type": "uint64",
          "indexed": false,
          "internalType": "uint64"
        }
      ],
      "anonymous": false
    },
    {
      "type": "event",
      "name": "ValidatorRewardClaimed",
      "inputs": [
        {
          "name": "validationID",
          "type": "bytes32",
          "indexed": true,
          "internalType": "bytes32"
        },
        {
          "name": "recipient",
          "type": "address",
          "indexed": true,
          "internalType": "address"
        },
        {
          "name": "amount",
          "type": "uint256",
          "indexed": false,
          "internalType": "uint256"
        }
      ],
      "anonymous": false
    },
    {
      "type": "event",
      "name": "ValidatorRewardRecipientChanged",
      "inputs": [
        {
          "name": "validationID",
          "type": "bytes32",
          "indexed": true,
          "internalType": "bytes32"
        },
        {
          "name": "recipient",
          "type": "address",
          "indexed": true,
          "internalType": "address"
        },
        {
          "name": "oldRecipient",
          "type": "address",
          "indexed": true,
          "internalType": "address"
        }
      ],
      "anonymous": false
    },
    {
      "type": "error",
      "name": "AddressInsufficientBalance",
      "inputs": [
        {
          "name": "account",
          "type": "address",
          "internalType": "address"
        }
      ]
    },
    {
      "type": "error",
      "name": "DelegatorIneligibleForRewards",
      "inputs": [
        {
          "name": "delegationID",
          "type": "bytes32",
          "internalType": "bytes32"
        }
      ]
    },
    {
      "type": "error",
      "name": "FailedInnerCall",
      "inputs": []
    },
    {
      "type": "error",
      "name": "InvalidDelegationFee",
      "inputs": [
        {
          "name": "delegationFeeBips",
          "type": "uint16",
          "internalType": "uint16"
        }
      ]
    },
    {
      "type": "error",
      "name": "InvalidDelegationID",
      "inputs": [
        {
          "name": "delegationID",
          "type": "bytes32",
          "internalType": "bytes32"
        }
      ]
    },
    {
      "type": "error",
      "name": "InvalidDelegatorStatus",
      "inputs": [
        {
          "name": "status",
          "type": "uint8",
          "internalType": "enum DelegatorStatus"
        }
      ]
    },
    {
      "type": "error",
      "name": "InvalidInitialization",
      "inputs": []
    },
    {
      "type": "error",
      "name": "InvalidMinStakeDuration",
      "inputs": [
        {
          "name": "minStakeDuration",
          "type": "uint64",
          "internalType": "uint64"
        }
      ]
    },
    {
      "type": "error",
      "name": "InvalidNonce",
      "inputs": [
        {
          "name": "nonce",
          "type": "uint64",
          "internalType": "uint64"
        }
      ]
    },
    {
      "type": "error",
      "name": "InvalidRewardRecipient",
      "inputs": [
        {
          "name": "rewardRecipient",
          "type": "address",
          "internalType": "address"
        }
      ]
    },
    {
      "type": "error",
      "name": "InvalidStakeAmount",
      "inputs": [
        {
          "name": "stakeAmount",
          "type": "uint256",
          "internalType": "uint256"
        }
      ]
    },
    {
      "type": "error",
      "name": "InvalidStakeMultiplier",
      "inputs": [
        {
          "name": "maximumStakeMultiplier",
          "type": "uint8",
          "internalType": "uint8"
        }
      ]
    },
    {
      "type": "error",
      "name": "InvalidUptimeBlockchainID",
      "inputs": [
        {
          "name": "uptimeBlockchainID",
          "type": "bytes32",
          "internalType": "bytes32"
        }
      ]
    },
    {
      "type": "error",
      "name": "InvalidValidatorStatus",
      "inputs": [
        {
          "name": "status",
          "type": "uint8",
          "internalType": "enum ValidatorStatus"
        }
      ]
    },
    {
      "type": "error",
      "name": "InvalidWarpMessage",
      "inputs": []
    },
    {
      "type": "error",
      "name": "InvalidWarpOriginSenderAddress",
      "inputs": [
        {
          "name": "senderAddress",
          "type": "address",
          "internalType": "address"
        }
      ]
    },
    {
      "type": "error",
      "name": "InvalidWarpSourceChainID",
      "inputs": [
        {
          "name": "sourceChainID",
          "type": "bytes32",
          "internalType": "bytes32"
        }
      ]
    },
    {
      "type": "error",
      "name": "MaxWeightExceeded",
      "inputs": [
        {
          "name": "newValidatorWeight",
          "type": "uint64",
          "internalType": "uint64"
        }
      ]
    },
    {
      "type": "error",
      "name": "MinStakeDurationNotPassed",
      "inputs": [
        {
          "name": "endTime",
          "type": "uint64",
          "internalType": "uint64"
        }
      ]
    },
    {
      "type": "error",
      "name": "NotInitializing",
      "inputs": []
    },
    {
      "type": "error",
      "name": "ReentrancyGuardReentrantCall",
      "inputs": []
    },
    {
      "type": "error",
      "name": "UnauthorizedOwner",
      "inputs": [
        {
          "name": "sender",
          "type": "address",
          "internalType": "address"
        }
      ]
    },
    {
      "type": "error",
      "name": "UnexpectedValidationID",
      "inputs": [
        {
          "name": "validationID",
          "type": "bytes32",
          "internalType": "bytes32"
        },
        {
          "name": "expectedValidationID",
          "type": "bytes32",
          "internalType": "bytes32"
        }
      ]
    },
    {
      "type": "error",
      "name": "ValidatorIneligibleForRewards",
      "inputs": [
        {
          "name": "validationID",
          "type": "bytes32",
          "internalType": "bytes32"
        }
      ]
    },
    {
      "type": "error",
      "name": "ValidatorNotPoS",
      "inputs": [
        {
          "name": "validationID",
          "type": "bytes32",
          "internalType": "bytes32"
        }
      ]
    },
    {
      "type": "error",
      "name": "ZeroAddress",
      "inputs": []
    },
    {
      "type": "error",
      "name": "ZeroWeightToValueFactor",
      "inputs": []
    }
  ],
  "bytecode": {
    "object": "0x608060405234801561000f575f80fd5b5060405161416338038061416383398101604081905261002e91610107565b60018160018111156100425761004261012c565b0361004f5761004f610055565b50610140565b7ff0c57e16840df040f15088dc2f81fe391c3923bec73e23a9662efc9c229c6a00805468010000000000000000900460ff16156100a55760405163f92ee8a960e01b815260040160405180910390fd5b80546001600160401b03908116146101045780546001600160401b0319166001600160401b0390811782556040519081527fc7f505b2f371ae2175ee4913f4499e1f2633a7b5936321eed1cdaeb6115181d29060200160405180910390a15b50565b5f60208284031215610117575f80fd5b815160028110610125575f80fd5b9392505050565b634e487b7160e01b5f52602160045260245ffd5b6140168061014d5f395ff3fe6080604052600436106101ba575f3560e01c806360ad7784116100f2578063a9778a7a11610092578063b771b3bc11610062578063b771b3bc1461056b578063caa7187414610585578063e24b2680146105a6578063fb8b11dd146105c5575f80fd5b8063a9778a7a146103ba578063ad93936d146104fb578063af1dd66c1461050e578063b2c1712e1461054c575f80fd5b80638ef34c98116100cd5780638ef34c981461047f57806393e245981461049e5780639681d940146104bd578063a3a65e48146104dc575f80fd5b806360ad77841461040e578063620658561461042d5780637a63ad851461044c575f80fd5b80632674874b1161015d5780632e2194d8116101385780632e2194d814610351578063329c3e121461038857806335455ded146103ba57806353a13338146103e2575f80fd5b80632674874b146102a757806327bf60cd146103135780632aa5663814610332575f80fd5b806316679564116101985780631667956414610229578063243ca19a14610248578063245dafcb1461026957806325e1c77614610288575f80fd5b80630d436317146101be57806313409645146101df578063151d30d1146101fe575b5f80fd5b3480156101c9575f80fd5b506101dd6101d8366004613583565b6105e4565b005b3480156101ea575f80fd5b506101dd6101f93660046135ad565b6106f0565b348015610209575f80fd5b50610212600a81565b60405160ff90911681526020015b60405180910390f35b348015610234575f80fd5b506101dd6102433660046135e4565b610a30565b61025b61025636600461363e565b610a41565b604051908152602001610220565b348015610274575f80fd5b506101dd61028336600461366c565b610a74565b348015610293575f80fd5b506101dd6102a23660046135ad565b610d38565b3480156102b2575f80fd5b506102c66102c136600461366c565b610e16565b6040805182516001600160a01b0316815260208084015161ffff1690820152828201516001600160401b039081169282019290925260609283015190911691810191909152608001610220565b34801561031e575f80fd5b506101dd61032d3660046135e4565b610ea2565b34801561033d575f80fd5b506101dd61034c3660046135e4565b610ead565b34801561035c575f80fd5b5061037061036b36600461366c565b610ebd565b6040516001600160401b039091168152602001610220565b348015610393575f80fd5b506103a26001600160991b0181565b6040516001600160a01b039091168152602001610220565b3480156103c5575f80fd5b506103cf61271081565b60405161ffff9091168152602001610220565b3480156103ed575f80fd5b506104016103fc36600461366c565b610f0b565b60405161022091906136ab565b348015610419575f80fd5b506101dd6104283660046135ad565b610ff8565b348015610438575f80fd5b5061025b610447366004613739565b611312565b348015610457575f80fd5b5061025b7fafe6c4731b852fc2be89a0896ae43d22d8b24989064d841b2a1586b4d39ab60081565b34801561048a575f80fd5b506101dd61049936600461363e565b611332565b3480156104a9575f80fd5b506101dd6104b836600461366c565b611414565b3480156104c8575f80fd5b5061025b6104d7366004613754565b61152d565b3480156104e7575f80fd5b5061025b6104f6366004613754565b6116ce565b61025b61050936600461394e565b611746565b348015610519575f80fd5b5061052d61052836600461366c565b611782565b604080516001600160a01b039093168352602083019190915201610220565b348015610557575f80fd5b506101dd6105663660046135e4565b6117be565b348015610576575f80fd5b506103a26005600160991b0181565b348015610590575f80fd5b506105996117c9565b6040516102209190613a23565b3480156105b1575f80fd5b5061052d6105c036600461366c565b6118a5565b3480156105d0575f80fd5b506101dd6105df36600461363e565b6118e1565b7ff0c57e16840df040f15088dc2f81fe391c3923bec73e23a9662efc9c229c6a008054600160401b810460ff1615906001600160401b03165f811580156106285750825b90505f826001600160401b031660011480156106435750303b155b905081158015610651575080155b1561066f5760405163f92ee8a960e01b815260040160405180910390fd5b845467ffffffffffffffff19166001178555831561069957845460ff60401b1916600160401b1785555b6106a2866119a9565b83156106e857845460ff60401b19168555604051600181527fc7f505b2f371ae2175ee4913f4499e1f2633a7b5936321eed1cdaeb6115181d29060200160405180910390a15b505050505050565b6106f86119bd565b5f6107016119f4565b5f848152600882016020526040808220815160e0810190925280549394509192909190829060ff16600381111561073a5761073a613683565b600381111561074b5761074b613683565b8152815461010090046001600160a01b03166020820152600182015460408201526002909101546001600160401b038082166060840152600160401b820481166080840152600160801b8204811660a0840152600160c01b9091041660c09091015290506003815160038111156107c4576107c4613683565b146107ee578051604051633b0d540d60e21b81526107e59190600401613ac4565b60405180910390fd5b81546040828101519051636af907fb60e11b815260048101919091525f916001600160a01b03169063d5f20ff6906024015f60405180830381865afa158015610839573d5f803e3d5ffd5b505050506040513d5f823e601f3d908101601f191682016040526108609190810190613b57565b9050600483546040808501519051636af907fb60e11b81526001600160a01b039092169163d5f20ff69161089a9160040190815260200190565b5f60405180830381865afa1580156108b4573d5f803e3d5ffd5b505050506040513d5f823e601f3d908101601f191682016040526108db9190810190613b57565b5160058111156108ed576108ed613683565b1415801561091457508160c001516001600160401b031681608001516001600160401b0316105b15610a0a57825460405163338587c560e21b815263ffffffff861660048201525f9182916001600160a01b039091169063ce161f149060240160408051808303815f875af1158015610968573d5f803e3d5ffd5b505050506040513d601f19601f8201168201806040525081019061098c9190613c36565b91509150818460400151146109c55781846040015160405163fee3144560e01b81526004016107e5929190918252602082015260400190565b806001600160401b03168460c001516001600160401b03161115610a0757604051632e19bc2d60e11b81526001600160401b03821660048201526024016107e5565b50505b610a1385611a18565b505050610a2c60015f80516020613fea83398151915255565b5050565b610a3b838383611c5c565b50505050565b5f610a4a6119bd565b610a5683333485611f03565b9050610a6e60015f80516020613fea83398151915255565b92915050565b5f610a7d6119f4565b5f838152600882016020526040808220815160e0810190925280549394509192909190829060ff166003811115610ab657610ab6613683565b6003811115610ac757610ac7613683565b8152815461010090046001600160a01b0316602082015260018083015460408301526002909201546001600160401b038082166060840152600160401b820481166080840152600160801b8204811660a0840152600160c01b9091041660c09091015290915081516003811115610b4057610b40613683565b14158015610b615750600381516003811115610b5e57610b5e613683565b14155b15610b82578051604051633b0d540d60e21b81526107e59190600401613ac4565b81546040828101519051636af907fb60e11b815260048101919091525f916001600160a01b03169063d5f20ff6906024015f60405180830381865afa158015610bcd573d5f803e3d5ffd5b505050506040513d5f823e601f3d908101601f19168201604052610bf49190810190613b57565b905080606001516001600160401b03165f03610c26576040516339b894f960e21b8152600481018590526024016107e5565b604080830151606083015160a0840151925163854a893f60e01b81526005600160991b019363ee5b48eb9373__$fd0c147b4031eef6079b0498cbafa865f0$__9363854a893f93610c9493906004019283526001600160401b03918216602084015216604082015260600190565b5f60405180830381865af4158015610cae573d5f803e3d5ffd5b505050506040513d5f823e601f3d908101601f19168201604052610cd59190810190613c59565b6040518263ffffffff1660e01b8152600401610cf19190613cb5565b6020604051808303815f875af1158015610d0d573d5f803e3d5ffd5b505050506040513d601f19601f82011682018060405250810190610d319190613cc7565b5050505050565b610d418261234a565b610d61576040516330efa98b60e01b8152600481018390526024016107e5565b5f610d6a6119f4565b54604051636af907fb60e11b8152600481018590526001600160a01b039091169063d5f20ff6906024015f60405180830381865afa158015610dae573d5f803e3d5ffd5b505050506040513d5f823e601f3d908101601f19168201604052610dd59190810190613b57565b5190506002816005811115610dec57610dec613683565b14610e0c578060405163170cc93360e21b81526004016107e59190613cde565b610a3b8383612373565b604080516080810182525f808252602082018190529181018290526060810191909152610e416119f4565b5f9283526007016020908152604092839020835160808101855281546001600160a01b038116825261ffff600160a01b820416938201939093526001600160401b03600160b01b909304831694810194909452600101541660608301525090565b610a3b8383836125da565b610eb88383836129fb565b505050565b5f80610ec76119f4565b60040154610ed59084613d0c565b9050801580610eea57506001600160401b0381115b15610a6e5760405163222d164360e21b8152600481018490526024016107e5565b6040805160e0810182525f80825260208201819052918101829052606081018290526080810182905260a0810182905260c0810191909152610f4b6119f4565b5f838152600891909101602052604090819020815160e081019092528054829060ff166003811115610f7f57610f7f613683565b6003811115610f9057610f90613683565b8152815461010090046001600160a01b03166020820152600182015460408201526002909101546001600160401b038082166060840152600160401b820481166080840152600160801b8204811660a0840152600160c01b9091041660c09091015292915050565b5f6110016119f4565b5f848152600882016020526040808220815160e0810190925280549394509192909190829060ff16600381111561103a5761103a613683565b600381111561104b5761104b613683565b8152815461010090046001600160a01b03908116602083015260018301546040808401919091526002909301546001600160401b038082166060850152600160401b820481166080850152600160801b8204811660a0850152600160c01b9091041660c0909201919091528282015185549251636af907fb60e11b815260048101829052939450925f929091169063d5f20ff6906024015f60405180830381865afa1580156110fc573d5f803e3d5ffd5b505050506040513d5f823e601f3d908101601f191682016040526111239190810190613b57565b905060018351600381111561113a5761113a613683565b1461115b578251604051633b0d540d60e21b81526107e59190600401613ac4565b60048151600581111561117057611170613683565b0361117e576106e886611a18565b8260a001516001600160401b031681608001516001600160401b0316101561128657835460405163338587c560e21b815263ffffffff871660048201525f9182916001600160a01b039091169063ce161f149060240160408051808303815f875af11580156111ef573d5f803e3d5ffd5b505050506040513d601f19601f820116820180604052508101906112139190613c36565b915091508184146112415760405163fee3144560e01b815260048101839052602481018590526044016107e5565b8460a001516001600160401b0316816001600160401b0316101561128357604051632e19bc2d60e11b81526001600160401b03821660048201526024016107e5565b50505b5f868152600885016020908152604091829020805460ff1916600290811782550180546001600160401b034216600160401b81026fffffffffffffffff000000000000000019909216919091179091559151918252839188917f3886b7389bccb22cac62838dee3f400cf8b22289295283e01a2c7093f93dd5aa910160405180910390a3505050505050565b5f61131b6119f4565b60040154610a6e906001600160401b038416613d2b565b5f61133b6119f4565b90506001600160a01b03821661136f5760405163caa903f960e01b81526001600160a01b03831660048201526024016107e5565b5f8381526007820160205260409020546001600160a01b031633146113b557335b604051636e2ccd7560e11b81526001600160a01b0390911660048201526024016107e5565b5f838152600c8201602052604080822080546001600160a01b038681166001600160a01b0319831681179093559251921692839287917f28c6fc4db51556a07b41aa23b91cedb22c02a7560c431a31255c03ca6ad61c3391a450505050565b5f61141d6119f4565b8054604051636af907fb60e11b8152600481018590529192505f916001600160a01b039091169063d5f20ff6906024015f60405180830381865afa158015611467573d5f803e3d5ffd5b505050506040513d5f823e601f3d908101601f1916820160405261148e9190810190613b57565b51905060048160058111156114a5576114a5613683565b146114c5578060405163170cc93360e21b81526004016107e59190613cde565b5f8381526007830160205260409020546001600160a01b031633146114ea5733611390565b5f838152600c830160205260409020546001600160a01b03168061152357505f8381526007830160205260409020546001600160a01b03165b610a3b8185612a26565b5f6115366119bd565b5f61153f6119f4565b805460405163025a076560e61b815263ffffffff861660048201529192505f916001600160a01b0390911690639681d940906024016020604051808303815f875af1158015611590573d5f803e3d5ffd5b505050506040513d601f19601f820116820180604052508101906115b49190613cc7565b8254604051636af907fb60e11b8152600481018390529192505f916001600160a01b039091169063d5f20ff6906024015f60405180830381865afa1580156115fe573d5f803e3d5ffd5b505050506040513d5f823e601f3d908101601f191682016040526116259190810190613b57565b90506116308261234a565b61163e575091506116b39050565b5f828152600784016020908152604080832054600c8701909252909120546001600160a01b039182169116806116715750805b60048351600581111561168657611686613683565b03611695576116958185612a26565b6116ab826116a68560400151611312565b612a9a565b509193505050505b6116c960015f80516020613fea83398151915255565b919050565b5f6116d76119f4565b54604051631474cbc960e31b815263ffffffff841660048201526001600160a01b039091169063a3a65e48906024016020604051808303815f875af1158015611722573d5f803e3d5ffd5b505050506040513d601f19601f82011682018060405250810190610a6e9190613cc7565b5f61174f6119bd565b61175f8888888888883489612aad565b905061177760015f80516020613fea83398151915255565b979650505050505050565b5f805f61178d6119f4565b5f948552600a810160209081526040808720546009909301909152909420546001600160a01b039094169492505050565b610eb8838383612dd9565b60408051610120810182525f80825260208201819052918101829052606081018290526080810182905260a0810182905260c0810182905260e081018290526101008101829052906118196119f4565b604080516101208101825282546001600160a01b0390811682526001840154602083015260028401549282019290925260038301546001600160401b0381166060830152600160401b810461ffff166080830152600160501b900460ff1660a0820152600483015460c0820152600583015490911660e082015260069091015461010082015292915050565b5f805f6118b06119f4565b5f948552600c81016020908152604080872054600b909301909152909420546001600160a01b039094169492505050565b6001600160a01b0381166119135760405163caa903f960e01b81526001600160a01b03821660048201526024016107e5565b5f61191c6119f4565b5f8481526008820160205260409020549091506001600160a01b0361010090910416331461194a5733611390565b5f838152600a8201602052604080822080546001600160a01b038681166001600160a01b0319831681179093559251921692839287917f6b30f219ab3cc1c43b394679707f3856ff2f3c6f1f6c97f383c6b16687a1e00591a450505050565b6119b1612e04565b6119ba81612e4f565b50565b5f80516020613fea8339815191528054600119016119ee57604051633ee5aeb560e01b815260040160405180910390fd5b60029055565b7fafe6c4731b852fc2be89a0896ae43d22d8b24989064d841b2a1586b4d39ab60090565b5f611a216119f4565b5f838152600882016020526040808220815160e0810190925280549394509192909190829060ff166003811115611a5a57611a5a613683565b6003811115611a6b57611a6b613683565b815281546001600160a01b03610100909104811660208084019190915260018401546040808501919091526002909401546001600160401b038082166060860152600160401b820481166080860152600160801b8204811660a0860152600160c01b9091041660c09093019290925283830151865484516304e0efb360e11b8152945195965090949116926309c1df669260048083019391928290030181865afa158015611b1b573d5f803e3d5ffd5b505050506040513d601f19601f82011682018060405250810190611b3f9190613d42565b8260800151611b4e9190613d5d565b6001600160401b0316421015611b825760405163fb6ce63f60e01b81526001600160401b03421660048201526024016107e5565b5f848152600884016020908152604080832080546001600160a81b031916815560018101849055600201839055600a8601909152902080546001600160a01b031981169091556001600160a01b031680611bdd575060208201515b5f80611bea838886612eca565b91509150611c0385602001516116a68760600151611312565b6040805183815260208101839052859189917f5ecc5b26a9265302cf871229b3d983e5ca57dbb1448966c6c58b2d3c68bc7f7e910160405180910390a350505050505050565b60015f80516020613fea83398151915255565b5f80611c666119f4565b8054604051635b73516560e11b8152600481018890529192506001600160a01b03169063b6e6a2ca906024015f604051808303815f87803b158015611ca9575f80fd5b505af1158015611cbb573d5f803e3d5ffd5b50508254604051636af907fb60e11b8152600481018990525f93506001600160a01b03909116915063d5f20ff6906024015f60405180830381865afa158015611d06573d5f803e3d5ffd5b505050506040513d5f823e601f3d908101601f19168201604052611d2d9190810190613b57565b9050611d388661234a565b611d4757600192505050611efc565b5f8681526007830160205260409020546001600160a01b03163314611d6c5733611390565b5f86815260078301602052604090205460c0820151611d9b91600160b01b90046001600160401b031690613d5d565b6001600160401b03168160e001516001600160401b03161015611de25760e081015160405163fb6ce63f60e01b81526001600160401b0390911660048201526024016107e5565b5f8515611dfa57611df38786612373565b9050611e18565b505f8681526007830160205260409020600101546001600160401b03165b600583015460408301515f916001600160a01b031690634f22429f90611e3d90611312565b60c086015160e0808801516040519185901b6001600160e01b031916825260048201939093526001600160401b0391821660248201819052604482015291811660648301528516608482015260a401602060405180830381865afa158015611ea7573d5f803e3d5ffd5b505050506040513d601f19601f82011682018060405250810190611ecb9190613cc7565b90508084600b015f8a81526020019081526020015f205f828254611eef9190613d84565b9091555050151593505050505b9392505050565b5f80611f0d6119f4565b90505f611f1985610ebd565b9050611f248761234a565b611f44576040516330efa98b60e01b8152600481018890526024016107e5565b6001600160a01b038416611f765760405163caa903f960e01b81526001600160a01b03851660048201526024016107e5565b8154604051636af907fb60e11b8152600481018990525f9182916001600160a01b039091169063d5f20ff6906024015f60405180830381865afa158015611fbf573d5f803e3d5ffd5b505050506040513d5f823e601f3d908101601f19168201604052611fe69190810190613b57565b9050828160a00151611ff89190613d5d565b915083600301600a9054906101000a90046001600160401b031681604001516120219190613d97565b6001600160401b0316826001600160401b0316111561205e57604051636d51fe0560e11b81526001600160401b03831660048201526024016107e5565b508254604051636610966960e01b8152600481018a90526001600160401b03831660248201525f9182916001600160a01b039091169063661096699060440160408051808303815f875af11580156120b8573d5f803e3d5ffd5b505050506040513d601f19601f820116820180604052508101906120dc9190613dc2565b915091505f8a8360405160200161210a92919091825260c01b6001600160c01b031916602082015260280190565b60408051601f1981840301815291815281516020928301205f81815260088a019093529120805491925060019160ff19168280021790555089866008015f8381526020019081526020015f205f0160016101000a8154816001600160a01b0302191690836001600160a01b031602179055508a866008015f8381526020019081526020015f206001018190555084866008015f8381526020019081526020015f206002015f6101000a8154816001600160401b0302191690836001600160401b031602179055505f866008015f8381526020019081526020015f2060020160086101000a8154816001600160401b0302191690836001600160401b0316021790555082866008015f8381526020019081526020015f2060020160106101000a8154816001600160401b0302191690836001600160401b031602179055505f866008015f8381526020019081526020015f2060020160186101000a8154816001600160401b0302191690836001600160401b031602179055508786600a015f8381526020019081526020015f205f6101000a8154816001600160a01b0302191690836001600160a01b03160217905550896001600160a01b03168b827f77499a5603260ef2b34698d88b31f7b1acf28c7b134ad4e3fa636501e6064d7786888a888f6040516123349594939291906001600160401b039586168152938516602085015291909316604083015260608201929092526001600160a01b0391909116608082015260a00190565b60405180910390a49a9950505050505050505050565b5f806123546119f4565b5f938452600701602052505060409020546001600160a01b0316151590565b6040516306f8253560e41b815263ffffffff821660048201525f90819081906005600160991b0190636f825350906024015f60405180830381865afa1580156123be573d5f803e3d5ffd5b505050506040513d5f823e601f3d908101601f191682016040526123e59190810190613dee565b915091508061240757604051636b2f19e960e01b815260040160405180910390fd5b5f6124106119f4565b600681015484519192501461243e578251604051636ba589a560e01b815260048101919091526024016107e5565b60208301516001600160a01b03161561247a576020830151604051624de75d60e31b81526001600160a01b0390911660048201526024016107e5565b5f8073__$fd0c147b4031eef6079b0498cbafa865f0$__63088c246386604001516040518263ffffffff1660e01b81526004016124b79190613cb5565b6040805180830381865af41580156124d1573d5f803e3d5ffd5b505050506040513d601f19601f820116820180604052508101906124f59190613c36565b915091508188146125235760405163fee3144560e01b815260048101839052602481018990526044016107e5565b5f8881526007840160205260409020600101546001600160401b0390811690821611156125b4575f888152600784016020908152604091829020600101805467ffffffffffffffff19166001600160401b038516908117909155915191825289917fec44148e8ff271f2d0bacef1142154abacb0abb3a29eb3eb50e2ca97e86d0435910160405180910390a2611777565b50505f95865260070160205250506040909220600101546001600160401b031692915050565b5f806125e46119f4565b5f868152600882016020526040808220815160e0810190925280549394509192909190829060ff16600381111561261d5761261d613683565b600381111561262e5761262e613683565b8152815461010090046001600160a01b03908116602083015260018301546040808401919091526002909301546001600160401b038082166060850152600160401b820481166080850152600160801b8204811660a0850152600160c01b9091041660c0909201919091528282015185549251636af907fb60e11b815260048101829052939450925f929091169063d5f20ff6906024015f60405180830381865afa1580156126df573d5f803e3d5ffd5b505050506040513d5f823e601f3d908101601f191682016040526127069190810190613b57565b905060028351600381111561271d5761271d613683565b1461273e578251604051633b0d540d60e21b81526107e59190600401613ac4565b60208301516001600160a01b031633146127da575f8281526007850160205260409020546001600160a01b031633146127775733611390565b5f82815260078501602052604090205460c08201516127a691600160b01b90046001600160401b031690613d5d565b6001600160401b03164210156127da5760405163fb6ce63f60e01b81526001600160401b03421660048201526024016107e5565b5f888152600a850160205260409020546001600160a01b031660028251600581111561280857612808613683565b036129a2576003850154608085015161282a916001600160401b031690613d5d565b6001600160401b031642101561285e5760405163fb6ce63f60e01b81526001600160401b03421660048201526024016107e5565b87156128705761286e8388612373565b505b5f8981526008860160205260409020805460ff191660031790558454606085015160a08401516001600160a01b039092169163661096699186916128b49190613e94565b6040516001600160e01b031960e085901b16815260048101929092526001600160401b0316602482015260440160408051808303815f875af11580156128fc573d5f803e3d5ffd5b505050506040513d601f19601f820116820180604052508101906129209190613dc2565b505f8a8152600887016020526040812060020180546001600160401b03909316600160c01b026001600160c01b039093169290921790915561296385838c612fc9565b9050838a7f5abe543af12bb7f76f6fa9daaa9d95d181c5e90566df58d3c012216b6245eeaf60405160405180910390a315159550611efc945050505050565b6004825160058111156129b7576129b7613683565b036129df576129c784828b612fc9565b506129d189611a18565b600195505050505050611efc565b815160405163170cc93360e21b81526107e59190600401613cde565b612a068383836125da565b610eb857604051631036cf9160e11b8152600481018490526024016107e5565b5f612a2f6119f4565b5f838152600b8201602052604081208054919055909150612a508482613203565b836001600160a01b0316837f875feb58aa30eeee040d55b00249c5c8c5af4f27c95cd29d64180ad67400c6e483604051612a8c91815260200190565b60405180910390a350505050565b610a2c6001600160a01b03831682613261565b5f80612ab76119f4565b600381015490915061ffff600160401b90910481169087161080612ae0575061271061ffff8716115b15612b0457604051635f12e6c360e11b815261ffff871660048201526024016107e5565b60038101546001600160401b039081169086161015612b40576040516202a06d60e11b81526001600160401b03861660048201526024016107e5565b8060010154841080612b555750806002015484115b15612b765760405163222d164360e21b8152600481018590526024016107e5565b6001600160a01b038316612ba85760405163caa903f960e01b81526001600160a01b03841660048201526024016107e5565b835f612bb382610ebd565b90505f835f015f9054906101000a90046001600160a01b03166001600160a01b0316639cb7624e8e8e8e8e876040518663ffffffff1660e01b8152600401612bff959493929190613f1a565b6020604051808303815f875af1158015612c1b573d5f803e3d5ffd5b505050506040513d601f19601f82011682018060405250810190612c3f9190613cc7565b90505f33905080856007015f8481526020019081526020015f205f015f6101000a8154816001600160a01b0302191690836001600160a01b0316021790555089856007015f8481526020019081526020015f205f0160146101000a81548161ffff021916908361ffff16021790555088856007015f8481526020019081526020015f205f0160166101000a8154816001600160401b0302191690836001600160401b031602179055505f856007015f8481526020019081526020015f206001015f6101000a8154816001600160401b0302191690836001600160401b031602179055508685600c015f8481526020019081526020015f205f6101000a8154816001600160a01b0302191690836001600160a01b03160217905550806001600160a01b0316827ff51ab9b5253693af2f675b23c4042ccac671873d5f188e405b30019f4c159b7f8c8c8b604051612dc09392919061ffff9390931683526001600160401b039190911660208301526001600160a01b0316604082015260600190565b60405180910390a3509c9b505050505050505050505050565b612de4838383611c5c565b610eb857604051635bff683f60e11b8152600481018490526024016107e5565b7ff0c57e16840df040f15088dc2f81fe391c3923bec73e23a9662efc9c229c6a0054600160401b900460ff16612e4d57604051631afcd79f60e31b815260040160405180910390fd5b565b612e57612e04565b612e5f6132f4565b6119ba612e6f6020830183613f82565b60208301356040840135612e896080860160608701613739565b612e9960a0870160808801613f9d565b612ea960c0880160a08901613fb6565b60c0880135612ebf6101008a0160e08b01613f82565b896101000135613304565b5f805f612ed56119f4565b5f8681526009820160205260408120549192509081908015612fbb575f88815260098501602090815260408083208390558983526007870190915290205461271090612f2c90600160a01b900461ffff1683613d2b565b612f369190613d0c565b91508184600b015f8981526020019081526020015f205f828254612f5a9190613d84565b90915550612f6a90508282613fd6565b9250612f768984613203565b886001600160a01b0316887f3ffc31181aadb250503101bd718e5fce8c27650af8d3525b9f60996756efaf6385604051612fb291815260200190565b60405180910390a35b509097909650945050505050565b5f80612fd36119f4565b80546040808801519051636af907fb60e11b81529293505f926001600160a01b039092169163d5f20ff69161300e9160040190815260200190565b5f60405180830381865afa158015613028573d5f803e3d5ffd5b505050506040513d5f823e601f3d908101601f1916820160405261304f9190810190613b57565b90505f60038251600581111561306757613067613683565b1480613085575060048251600581111561308357613083613683565b145b15613095575060e08101516130b2565b6002825160058111156130aa576130aa613683565b036129df5750425b86608001516001600160401b0316816001600160401b0316116130da575f9350505050611efc565b600583015460608801515f916001600160a01b031690634f22429f906130ff90611312565b60c086015160808c01516040808e01515f90815260078b0160205281902060010154905160e086901b6001600160e01b031916815260048101949094526001600160401b0392831660248501529082166044840152818716606484015216608482015260a401602060405180830381865afa158015613180573d5f803e3d5ffd5b505050506040513d601f19601f820116820180604052508101906131a49190613cc7565b90506001600160a01b0387166131bc57876020015196505b5f8681526009850160209081526040808320849055600a90960190529390932080546001600160a01b0388166001600160a01b031990911617905550909150509392505050565b6040516327ad555d60e11b81526001600160a01b0383166004820152602481018290526001600160991b0190634f5aaaba906044015f604051808303815f87803b15801561324f575f80fd5b505af11580156106e8573d5f803e3d5ffd5b804710156132845760405163cd78605960e01b81523060048201526024016107e5565b5f826001600160a01b0316826040515f6040518083038185875af1925050503d805f81146132cd576040519150601f19603f3d011682016040523d82523d5f602084013e6132d2565b606091505b5050905080610eb857604051630a12f52160e11b815260040160405180910390fd5b6132fc612e04565b612e4d61357b565b61330c612e04565b5f6133156119f4565b905061ffff8616158061332d575061271061ffff8716115b1561335157604051635f12e6c360e11b815261ffff871660048201526024016107e5565b878911156133755760405163222d164360e21b8152600481018a90526024016107e5565b60ff851615806133885750600a60ff8616115b156133ab5760405163170db35960e31b815260ff861660048201526024016107e5565b6001600160a01b038a166133d25760405163d92e233d60e01b815260040160405180910390fd5b6001600160a01b0383166133f95760405163d92e233d60e01b815260040160405180910390fd5b896001600160a01b03166309c1df666040518163ffffffff1660e01b8152600401602060405180830381865afa158015613435573d5f803e3d5ffd5b505050506040513d601f19601f820116820180604052508101906134599190613d42565b6001600160401b0316876001600160401b03161015613495576040516202a06d60e11b81526001600160401b03881660048201526024016107e5565b835f036134b55760405163a733007160e01b815260040160405180910390fd5b816134d657604051632f6bd1db60e01b8152600481018390526024016107e5565b80546001600160a01b039a8b166001600160a01b031991821617825560018201999099556002810197909755600387018054600160501b60ff9096169590950267ffffffffffffffff60501b1961ffff909716600160401b0269ffffffffffffffffffff199096166001600160401b03909816979097179490941794909416949094179091556004840155600583018054929095169190931617909255600690910155565b611c49612e04565b5f6101208284031215613594575f80fd5b50919050565b803563ffffffff811681146116c9575f80fd5b5f80604083850312156135be575f80fd5b823591506135ce6020840161359a565b90509250929050565b80151581146119ba575f80fd5b5f805f606084860312156135f6575f80fd5b833592506020840135613608816135d7565b91506136166040850161359a565b90509250925092565b6001600160a01b03811681146119ba575f80fd5b80356116c98161361f565b5f806040838503121561364f575f80fd5b8235915060208301356136618161361f565b809150509250929050565b5f6020828403121561367c575f80fd5b5035919050565b634e487b7160e01b5f52602160045260245ffd5b600481106136a7576136a7613683565b9052565b5f60e0820190506136bd828451613697565b60018060a01b0360208401511660208301526040830151604083015260608301516001600160401b0380821660608501528060808601511660808501528060a08601511660a08501528060c08601511660c0850152505092915050565b6001600160401b03811681146119ba575f80fd5b80356116c98161371a565b5f60208284031215613749575f80fd5b8135611efc8161371a565b5f60208284031215613764575f80fd5b611efc8261359a565b634e487b7160e01b5f52604160045260245ffd5b604080519081016001600160401b03811182821017156137a3576137a361376d565b60405290565b60405161010081016001600160401b03811182821017156137a3576137a361376d565b604051601f8201601f191681016001600160401b03811182821017156137f4576137f461376d565b604052919050565b5f6001600160401b038211156138145761381461376d565b50601f01601f191660200190565b5f82601f830112613831575f80fd5b813561384461383f826137fc565b6137cc565b818152846020838601011115613858575f80fd5b816020850160208301375f918101602001919091529392505050565b5f60408284031215613884575f80fd5b61388c613781565b90506138978261359a565b81526020808301356001600160401b03808211156138b3575f80fd5b818501915085601f8301126138c6575f80fd5b8135818111156138d8576138d861376d565b8060051b91506138e98483016137cc565b8181529183018401918481019088841115613902575f80fd5b938501935b8385101561392c578435925061391c8361361f565b8282529385019390850190613907565b808688015250505050505092915050565b803561ffff811681146116c9575f80fd5b5f805f805f805f60e0888a031215613964575f80fd5b87356001600160401b038082111561397a575f80fd5b6139868b838c01613822565b985060208a013591508082111561399b575f80fd5b6139a78b838c01613822565b975060408a01359150808211156139bc575f80fd5b6139c88b838c01613874565b965060608a01359150808211156139dd575f80fd5b506139ea8a828b01613874565b9450506139f96080890161393d565b9250613a0760a0890161372e565b9150613a1560c08901613633565b905092959891949750929550565b81516001600160a01b031681526020808301519082015260408083015190820152606080830151610120830191613a64908401826001600160401b03169052565b506080830151613a7a608084018261ffff169052565b5060a0830151613a8f60a084018260ff169052565b5060c083015160c083015260e0830151613ab460e08401826001600160a01b03169052565b5061010092830151919092015290565b60208101610a6e8284613697565b8051600681106116c9575f80fd5b5f5b83811015613afa578181015183820152602001613ae2565b50505f910152565b5f82601f830112613b11575f80fd5b8151613b1f61383f826137fc565b818152846020838601011115613b33575f80fd5b613b44826020830160208701613ae0565b949350505050565b80516116c98161371a565b5f60208284031215613b67575f80fd5b81516001600160401b0380821115613b7d575f80fd5b908301906101008286031215613b91575f80fd5b613b996137a9565b613ba283613ad2565b8152602083015182811115613bb5575f80fd5b613bc187828601613b02565b602083015250613bd360408401613b4c565b6040820152613be460608401613b4c565b6060820152613bf560808401613b4c565b6080820152613c0660a08401613b4c565b60a0820152613c1760c08401613b4c565b60c0820152613c2860e08401613b4c565b60e082015295945050505050565b5f8060408385031215613c47575f80fd5b8251915060208301516136618161371a565b5f60208284031215613c69575f80fd5b81516001600160401b03811115613c7e575f80fd5b613b4484828501613b02565b5f8151808452613ca1816020860160208601613ae0565b601f01601f19169290920160200192915050565b602081525f611efc6020830184613c8a565b5f60208284031215613cd7575f80fd5b5051919050565b6020810160068310613cf257613cf2613683565b91905290565b634e487b7160e01b5f52601160045260245ffd5b5f82613d2657634e487b7160e01b5f52601260045260245ffd5b500490565b8082028115828204841417610a6e57610a6e613cf8565b5f60208284031215613d52575f80fd5b8151611efc8161371a565b6001600160401b03818116838216019080821115613d7d57613d7d613cf8565b5092915050565b80820180821115610a6e57610a6e613cf8565b6001600160401b03818116838216028082169190828114613dba57613dba613cf8565b505092915050565b5f8060408385031215613dd3575f80fd5b8251613dde8161371a565b6020939093015192949293505050565b5f8060408385031215613dff575f80fd5b82516001600160401b0380821115613e15575f80fd5b9084019060608287031215613e28575f80fd5b604051606081018181108382111715613e4357613e4361376d565b604052825181526020830151613e588161361f565b6020820152604083015182811115613e6e575f80fd5b613e7a88828601613b02565b6040830152508094505050506020830151613661816135d7565b6001600160401b03828116828216039080821115613d7d57613d7d613cf8565b5f6040830163ffffffff8351168452602080840151604060208701528281518085526060880191506020830194505f92505b80831015613f0f5784516001600160a01b03168252938301936001929092019190830190613ee6565b509695505050505050565b60a081525f613f2c60a0830188613c8a565b8281036020840152613f3e8188613c8a565b90508281036040840152613f528187613eb4565b90508281036060840152613f668186613eb4565b9150506001600160401b03831660808301529695505050505050565b5f60208284031215613f92575f80fd5b8135611efc8161361f565b5f60208284031215613fad575f80fd5b611efc8261393d565b5f60208284031215613fc6575f80fd5b813560ff81168114611efc575f80fd5b81810381811115610a6e57610a6e613cf856fe9b779b17422d0df92223018b32b4d1fa46e071723d6817e2486d003becc55f00a164736f6c6343000819000a",
    "linkReferences": {
      "contracts/validator-manager/ValidatorMessages.sol": {
        "ValidatorMessages": [
          {
            "start": 3488,
            "length": 20
          },
          {
            "start": 9675,
            "length": 20
          }
        ]
      }
    }
  },
  "methodIdentifiers": {
    "BIPS_CONVERSION_FACTOR()": "a9778a7a",
    "MAXIMUM_DELEGATION_FEE_BIPS()": "35455ded",
    "MAXIMUM_STAKE_MULTIPLIER_LIMIT()": "151d30d1",
    "NATIVE_MINTER()": "329c3e12",
    "STAKING_MANAGER_STORAGE_LOCATION()": "7a63ad85",
    "WARP_MESSENGER()": "b771b3bc",
    "changeDelegatorRewardRecipient(bytes32,address)": "fb8b11dd",
    "changeValidatorRewardRecipient(bytes32,address)": "8ef34c98",
    "claimDelegationFees(bytes32)": "93e24598",
    "completeDelegatorRegistration(bytes32,uint32)": "60ad7784",
    "completeDelegatorRemoval(bytes32,uint32)": "13409645",
    "completeValidatorRegistration(uint32)": "a3a65e48",
    "completeValidatorRemoval(uint32)": "9681d940",
    "forceInitiateDelegatorRemoval(bytes32,bool,uint32)": "27bf60cd",
    "forceInitiateValidatorRemoval(bytes32,bool,uint32)": "16679564",
    "getDelegatorInfo(bytes32)": "53a13338",
    "getDelegatorRewardInfo(bytes32)": "af1dd66c",
    "getStakingManagerSettings()": "caa71874",
    "getStakingValidator(bytes32)": "2674874b",
    "getValidatorRewardInfo(bytes32)": "e24b2680",
    "initialize((address,uint256,uint256,uint64,uint16,uint8,uint256,address,bytes32))": "0d436317",
    "initiateDelegatorRegistration(bytes32,address)": "243ca19a",
    "initiateDelegatorRemoval(bytes32,bool,uint32)": "2aa56638",
    "initiateValidatorRegistration(bytes,bytes,(uint32,address[]),(uint32,address[]),uint16,uint64,address)": "ad93936d",
    "initiateValidatorRemoval(bytes32,bool,uint32)": "b2c1712e",
    "resendUpdateDelegator(bytes32)": "245dafcb",
    "submitUptimeProof(bytes32,uint32)": "25e1c776",
    "valueToWeight(uint256)": "2e2194d8",
    "weightToValue(uint64)": "62065856"
  },
  "id": 94
}