{
  "abi": [
    {
      "type": "constructor",
      "inputs": [
        {
          "name": "owner",
          "type": "address",
          "internalType": "address"
        },
        {
          "name": "validatorManager",
          "type": "address",
          "internalType": "contract IValidatorManagerExternalOwnable"
        }
      ],
      "stateMutability": "nonpayable"
    },
    {
      "type": "function",
      "name": "completeValidatorRegistration",
      "inputs": [
        {
          "name": "messageIndex",
          "type": "uint32",
          "internalType": "uint32"
        }
      ],
      "outputs": [
        {
          "name": "",
          "type": "bytes32",
          "internalType": "bytes32"
        }
      ],
      "stateMutability": "nonpayable"
    },
    {
      "type": "function",
      "name": "completeValidatorRemoval",
      "inputs": [
        {
          "name": "messageIndex",
          "type": "uint32",
          "internalType": "uint32"
        }
      ],
      "outputs": [
        {
          "name": "",
          "type": "bytes32",
          "internalType": "bytes32"
        }
      ],
      "stateMutability": "nonpayable"
    },
    {
      "type": "function",
      "name": "completeValidatorWeightUpdate",
      "inputs": [
        {
          "name": "messageIndex",
          "type": "uint32",
          "internalType": "uint32"
        }
      ],
      "outputs": [
        {
          "name": "",
          "type": "bytes32",
          "internalType": "bytes32"
        },
        {
          "name": "",
          "type": "uint64",
          "internalType": "uint64"
        }
      ],
      "stateMutability": "nonpayable"
    },
    {
      "type": "function",
      "name": "initiateValidatorRegistration",
      "inputs": [
        {
          "name": "nodeID",
          "type": "bytes",
          "internalType": "bytes"
        },
        {
          "name": "blsPublicKey",
          "type": "bytes",
          "internalType": "bytes"
        },
        {
          "name": "remainingBalanceOwner",
          "type": "tuple",
          "internalType": "struct PChainOwner",
          "components": [
            {
              "name": "threshold",
              "type": "uint32",
              "internalType": "uint32"
            },
            {
              "name": "addresses",
              "type": "address[]",
              "internalType": "address[]"
            }
          ]
        },
        {
          "name": "disableOwner",
          "type": "tuple",
          "internalType": "struct PChainOwner",
          "components": [
            {
              "name": "threshold",
              "type": "uint32",
              "internalType": "uint32"
            },
            {
              "name": "addresses",
              "type": "address[]",
              "internalType": "address[]"
            }
          ]
        },
        {
          "name": "weight",
          "type": "uint64",
          "internalType": "uint64"
        }
      ],
      "outputs": [
        {
          "name": "",
          "type": "bytes32",
          "internalType": "bytes32"
        }
      ],
      "stateMutability": "nonpayable"
    },
    {
      "type": "function",
      "name": "initiateValidatorRemoval",
      "inputs": [
        {
          "name": "validationID",
          "type": "bytes32",
          "internalType": "bytes32"
        }
      ],
      "outputs": [],
      "stateMutability": "nonpayable"
    },
    {
      "type": "function",
      "name": "initiateValidatorWeightUpdate",
      "inputs": [
        {
          "name": "validationID",
          "type": "bytes32",
          "internalType": "bytes32"
        },
        {
          "name": "newWeight",
          "type": "uint64",
          "internalType": "uint64"
        }
      ],
      "outputs": [
        {
          "name": "",
          "type": "uint64",
          "internalType": "uint64"
        },
        {
          "name": "",
          "type": "bytes32",
          "internalType": "bytes32"
        }
      ],
      "stateMutability": "nonpayable"
    },
    {
      "type": "function",
      "name": "owner",
      "inputs": [],
      "outputs": [
        {
          "name": "",
          "type": "address",
          "internalType": "address"
        }
      ],
      "stateMutability": "view"
    },
    {
      "type": "function",
      "name": "renounceOwnership",
      "inputs": [],
      "outputs": [],
      "stateMutability": "nonpayable"
    },
    {
      "type": "function",
      "name": "transferOwnership",
      "inputs": [
        {
          "name": "newOwner",
          "type": "address",
          "internalType": "address"
        }
      ],
      "outputs": [],
      "stateMutability": "nonpayable"
    },
    {
      "type": "function",
      "name": "transferValidatorManagerOwnership",
      "inputs": [
        {
          "name": "newOwner",
          "type": "address",
          "internalType": "address"
        }
      ],
      "outputs": [],
      "stateMutability": "nonpayable"
    },
    {
      "type": "event",
      "name": "OwnershipTransferred",
      "inputs": [
        {
          "name": "previousOwner",
          "type": "address",
          "indexed": true,
          "internalType": "address"
        },
        {
          "name": "newOwner",
          "type": "address",
          "indexed": true,
          "internalType": "address"
        }
      ],
      "anonymous": false
    },
    {
      "type": "error",
      "name": "OwnableInvalidOwner",
      "inputs": [
        {
          "name": "owner",
          "type": "address",
          "internalType": "address"
        }
      ]
    },
    {
      "type": "error",
      "name": "OwnableUnauthorizedAccount",
      "inputs": [
        {
          "name": "account",
          "type": "address",
          "internalType": "address"
        }
      ]
    }
  ],
  "bytecode": {
    "object": "0x60a060405234801561000f575f80fd5b50604051610c20380380610c2083398101604081905261002e916100de565b816001600160a01b03811661005c57604051631e4fbdf760e01b81525f600482015260240160405180910390fd5b61006581610078565b506001600160a01b031660805250610116565b5f80546001600160a01b038381166001600160a01b0319831681178455604051919092169283917f8be0079c531659141344cd1fd0a4f28419497f9722a3daafe3b4186f6b6457e09190a35050565b6001600160a01b03811681146100db575f80fd5b50565b5f80604083850312156100ef575f80fd5b82516100fa816100c7565b602084015190925061010b816100c7565b809150509250929050565b608051610ac86101585f395f81816101dc015281816102920152818161030a015281816103a3015281816104470152818161049c01526104fd0152610ac85ff3fe608060405234801561000f575f80fd5b506004361061009b575f3560e01c80639cb7624e116100635780639cb7624e1461012f578063a3a65e4814610142578063b6e6a2ca14610155578063ce161f1414610168578063f2fde38b14610199575f80fd5b8063661096691461009f578063715018a6146100d757806389f9f85b146100e15780638da5cb5b146100f45780639681d9401461010e575b5f80fd5b6100b26100ad36600461063e565b6101ac565b6040805167ffffffffffffffff90931683526020830191909152015b60405180910390f35b6100df610258565b005b6100df6100ef366004610687565b61026b565b5f546040516001600160a01b0390911681526020016100ce565b61012161011c3660046106ba565b6102ed565b6040519081526020016100ce565b61012161013d366004610872565b610383565b6101216101503660046106ba565b61042a565b6100df61016336600461092c565b61047e565b61017b6101763660046106ba565b6104d6565b6040805192835267ffffffffffffffff9091166020830152016100ce565b6100df6101a7366004610687565b61056f565b5f806101b66105ae565b604051636610966960e01b81526004810185905267ffffffffffffffff841660248201527f00000000000000000000000000000000000000000000000000000000000000006001600160a01b03169063661096699060440160408051808303815f875af1158015610229573d5f803e3d5ffd5b505050506040513d601f19601f8201168201806040525081019061024d9190610943565b915091509250929050565b6102606105ae565b6102695f6105da565b565b6102736105ae565b60405163f2fde38b60e01b81526001600160a01b0382811660048301527f0000000000000000000000000000000000000000000000000000000000000000169063f2fde38b906024015b5f604051808303815f87803b1580156102d4575f80fd5b505af11580156102e6573d5f803e3d5ffd5b5050505050565b60405163025a076560e61b815263ffffffff821660048201525f907f00000000000000000000000000000000000000000000000000000000000000006001600160a01b031690639681d940906024015b6020604051808303815f875af1158015610359573d5f803e3d5ffd5b505050506040513d601f19601f8201168201806040525081019061037d919061096f565b92915050565b5f61038c6105ae565b604051634e5bb12760e11b81526001600160a01b037f00000000000000000000000000000000000000000000000000000000000000001690639cb7624e906103e09089908990899089908990600401610a2f565b6020604051808303815f875af11580156103fc573d5f803e3d5ffd5b505050506040513d601f19601f82011682018060405250810190610420919061096f565b9695505050505050565b604051631474cbc960e31b815263ffffffff821660048201525f907f00000000000000000000000000000000000000000000000000000000000000006001600160a01b03169063a3a65e489060240161033d565b6104866105ae565b604051635b73516560e11b8152600481018290527f00000000000000000000000000000000000000000000000000000000000000006001600160a01b03169063b6e6a2ca906024016102bd565b50565b60405163338587c560e21b815263ffffffff821660048201525f9081906001600160a01b037f0000000000000000000000000000000000000000000000000000000000000000169063ce161f149060240160408051808303815f875af1158015610542573d5f803e3d5ffd5b505050506040513d601f19601f820116820180604052508101906105669190610a98565b91509150915091565b6105776105ae565b6001600160a01b0381166105a557604051631e4fbdf760e01b81525f60048201526024015b60405180910390fd5b6104d3816105da565b5f546001600160a01b031633146102695760405163118cdaa760e01b815233600482015260240161059c565b5f80546001600160a01b038381166001600160a01b0319831681178455604051919092169283917f8be0079c531659141344cd1fd0a4f28419497f9722a3daafe3b4186f6b6457e09190a35050565b67ffffffffffffffff811681146104d3575f80fd5b5f806040838503121561064f575f80fd5b82359150602083013561066181610629565b809150509250929050565b80356001600160a01b0381168114610682575f80fd5b919050565b5f60208284031215610697575f80fd5b6106a08261066c565b9392505050565b803563ffffffff81168114610682575f80fd5b5f602082840312156106ca575f80fd5b6106a0826106a7565b634e487b7160e01b5f52604160045260245ffd5b6040805190810167ffffffffffffffff8111828210171561070a5761070a6106d3565b60405290565b604051601f8201601f1916810167ffffffffffffffff81118282101715610739576107396106d3565b604052919050565b5f82601f830112610750575f80fd5b813567ffffffffffffffff81111561076a5761076a6106d3565b61077d601f8201601f1916602001610710565b818152846020838601011115610791575f80fd5b816020850160208301375f918101602001919091529392505050565b5f604082840312156107bd575f80fd5b6107c56106e7565b90506107d0826106a7565b815260208083013567ffffffffffffffff808211156107ed575f80fd5b818501915085601f830112610800575f80fd5b813581811115610812576108126106d3565b8060051b9150610823848301610710565b818152918301840191848101908884111561083c575f80fd5b938501935b83851015610861576108528561066c565b82529385019390850190610841565b808688015250505050505092915050565b5f805f805f60a08688031215610886575f80fd5b853567ffffffffffffffff8082111561089d575f80fd5b6108a989838a01610741565b965060208801359150808211156108be575f80fd5b6108ca89838a01610741565b955060408801359150808211156108df575f80fd5b6108eb89838a016107ad565b94506060880135915080821115610900575f80fd5b5061090d888289016107ad565b925050608086013561091e81610629565b809150509295509295909350565b5f6020828403121561093c575f80fd5b5035919050565b5f8060408385031215610954575f80fd5b825161095f81610629565b6020939093015192949293505050565b5f6020828403121561097f575f80fd5b5051919050565b5f81518084525f5b818110156109aa5760208185018101518683018201520161098e565b505f602082860101526020601f19601f83011685010191505092915050565b5f6040830163ffffffff8351168452602080840151604060208701528281518085526060880191506020830194505f92505b80831015610a245784516001600160a01b031682529383019360019290920191908301906109fb565b509695505050505050565b60a081525f610a4160a0830188610986565b8281036020840152610a538188610986565b90508281036040840152610a6781876109c9565b90508281036060840152610a7b81866109c9565b91505067ffffffffffffffff831660808301529695505050505050565b5f8060408385031215610aa9575f80fd5b8251915060208301516106618161062956fea164736f6c6343000819000a",
    "linkReferences": {}
  },
  "methodIdentifiers": {
    "completeValidatorRegistration(uint32)": "a3a65e48",
    "completeValidatorRemoval(uint32)": "9681d940",
    "completeValidatorWeightUpdate(uint32)": "ce161f14",
    "initiateValidatorRegistration(bytes,bytes,(uint32,address[]),(uint32,address[]),uint64)": "9cb7624e",
    "initiateValidatorRemoval(bytes32)": "b6e6a2ca",
    "initiateValidatorWeightUpdate(bytes32,uint64)": "66109669",
    "owner()": "8da5cb5b",
    "renounceOwnership()": "715018a6",
    "transferOwnership(address)": "f2fde38b",
    "transferValidatorManagerOwnership(address)": "89f9f85b"
  },
  "id": 95
}