{
  "abi": [
    {
      "type": "constructor",
      "inputs": [
        {
          "name": "initialEntries",
          "type": "tuple[]",
          "internalType": "struct ProtocolRegistryEntry[]",
          "components": [
            {
              "name": "version",
              "type": "uint256",
              "internalType": "uint256"
            },
            {
              "name": "protocolAddress",
              "type": "address",
              "internalType": "address"
            }
          ]
        }
      ],
      "stateMutability": "nonpayable"
    },
    {
      "type": "function",
      "name": "MAX_VERSION_INCREMENT",
      "inputs": [],
      "outputs": [
        {
          "name": "",
          "type": "uint256",
          "internalType": "uint256"
        }
      ],
      "stateMutability": "view"
    },
    {
      "type": "function",
      "name": "VALIDATORS_SOURCE_ADDRESS",
      "inputs": [],
      "outputs": [
        {
          "name": "",
          "type": "address",
          "internalType": "address"
        }
      ],
      "stateMutability": "view"
    },
    {
      "type": "function",
      "name": "WARP_MESSENGER",
      "inputs": [],
      "outputs": [
        {
          "name": "",
          "type": "address",
          "internalType": "contract IWarpMessenger"
        }
      ],
      "stateMutability": "view"
    },
    {
      "type": "function",
      "name": "addProtocolVersion",
      "inputs": [
        {
          "name": "messageIndex",
          "type": "uint32",
          "internalType": "uint32"
        }
      ],
      "outputs": [],
      "stateMutability": "nonpayable"
    },
    {
      "type": "function",
      "name": "blockchainID",
      "inputs": [],
      "outputs": [
        {
          "name": "",
          "type": "bytes32",
          "internalType": "bytes32"
        }
      ],
      "stateMutability": "view"
    },
    {
      "type": "function",
      "name": "getAddressFromVersion",
      "inputs": [
        {
          "name": "version",
          "type": "uint256",
          "internalType": "uint256"
        }
      ],
      "outputs": [
        {
          "name": "",
          "type": "address",
          "internalType": "address"
        }
      ],
      "stateMutability": "view"
    },
    {
      "type": "function",
      "name": "getLatestTeleporter",
      "inputs": [],
      "outputs": [
        {
          "name": "",
          "type": "address",
          "internalType": "contract ITeleporterMessenger"
        }
      ],
      "stateMutability": "view"
    },
    {
      "type": "function",
      "name": "getTeleporterFromVersion",
      "inputs": [
        {
          "name": "version",
          "type": "uint256",
          "internalType": "uint256"
        }
      ],
      "outputs": [
        {
          "name": "",
          "type": "address",
          "internalType": "contract ITeleporterMessenger"
        }
      ],
      "stateMutability": "view"
    },
    {
      "type": "function",
      "name": "getVersionFromAddress",
      "inputs": [
        {
          "name": "protocolAddress",
          "type": "address",
          "internalType": "address"
        }
      ],
      "outputs": [
        {
          "name": "",
          "type": "uint256",
          "internalType": "uint256"
        }
      ],
      "stateMutability": "view"
    },
    {
      "type": "function",
      "name": "latestVersion",
      "inputs": [],
      "outputs": [
        {
          "name": "",
          "type": "uint256",
          "internalType": "uint256"
        }
      ],
      "stateMutability": "view"
    },
    {
      "type": "event",
      "name": "AddProtocolVersion",
      "inputs": [
        {
          "name": "version",
          "type": "uint256",
          "indexed": true,
          "internalType": "uint256"
        },
        {
          "name": "protocolAddress",
          "type": "address",
          "indexed": true,
          "internalType": "address"
        }
      ],
      "anonymous": false
    },
    {
      "type": "event",
      "name": "LatestVersionUpdated",
      "inputs": [
        {
          "name": "oldVersion",
          "type": "uint256",
          "indexed": true,
          "internalType": "uint256"
        },
        {
          "name": "newVersion",
          "type": "uint256",
          "indexed": true,
          "internalType": "uint256"
        }
      ],
      "anonymous": false
    }
  ],
  "bytecode": {
    "object": "0x60a060405234801561000f575f80fd5b50604051610fb7380380610fb783398101604081905261002e916103e2565b7302000000000000000000000000000000000000056001600160a01b0316634213cf786040518163ffffffff1660e01b8152600401602060405180830381865afa15801561007e573d5f803e3d5ffd5b505050506040513d601f19601f820116820180604052508101906100a291906104bc565b60805280515f5b818110156100e1576100d98382815181106100c6576100c66104d3565b60200260200101516100e960201b60201c565b6001016100a9565b50505061050c565b80515f0361013e5760405162461bcd60e51b815260206004820181905260248201527f54656c65706f7274657252656769737472793a207a65726f2076657273696f6e60448201526064015b60405180910390fd5b80515f908152600160205260409020546001600160a01b0316156101b75760405162461bcd60e51b815260206004820152602a60248201527f54656c65706f7274657252656769737472793a2076657273696f6e20616c72656044820152696164792065786973747360b01b6064820152608401610135565b60208101516001600160a01b03166102235760405162461bcd60e51b815260206004820152602960248201527f54656c65706f7274657252656769737472793a207a65726f2070726f746f636f6044820152686c206164647265737360b81b6064820152608401610135565b5f546102316101f4826104e7565b825111156102985760405162461bcd60e51b815260206004820152602e60248201527f54656c65706f7274657252656769737472793a2076657273696f6e20696e637260448201526d0cadacadce840e8dede40d0d2ced60931b6064820152608401610135565b6020828101805184515f90815260018452604080822080546001600160a01b0319166001600160a01b03948516179055925190911681526002909252902054825111156102ff5781516020808401516001600160a01b03165f908152600290915260409020555b602082015182516040516001600160a01b03909216917fa5eed93d951a9603d5f7c0a57de79a299dd3dbd5e51429be209d8053a42ab43a905f90a381518110156103725781515f81815560405183917f30623e953733f6474dabdfbef1103ce15ab73cdc77c6dfad0f9874d167e8a9b091a35b5050565b634e487b7160e01b5f52604160045260245ffd5b604080519081016001600160401b03811182821017156103ac576103ac610376565b60405290565b604051601f8201601f191681016001600160401b03811182821017156103da576103da610376565b604052919050565b5f60208083850312156103f3575f80fd5b82516001600160401b0380821115610409575f80fd5b818501915085601f83011261041c575f80fd5b81518181111561042e5761042e610376565b61043c848260051b016103b2565b818152848101925060069190911b83018401908782111561045b575f80fd5b928401925b818410156104b15760408489031215610477575f80fd5b61047f61038a565b84518152858501516001600160a01b038116811461049b575f80fd5b8187015283526040939093019291840191610460565b979650505050505050565b5f602082840312156104cc575f80fd5b5051919050565b634e487b7160e01b5f52603260045260245ffd5b8082018082111561050657634e487b7160e01b5f52601160045260245ffd5b92915050565b608051610a8c61052b5f395f818161014301526102580152610a8c5ff3fe608060405234801561000f575f80fd5b506004361061009b575f3560e01c8063ac473ac311610063578063ac473ac31461011f578063b771b3bc14610128578063c07f47d414610136578063d127dc9b1461013e578063d820e64f14610165575f80fd5b80630731775d1461009f578063215abce9146100c357806341f34ed9146100d657806346f9ef49146100eb5780634c1f08ce146100fe575b5f80fd5b6100a65f81565b6040516001600160a01b0390911681526020015b60405180910390f35b6100a66100d13660046107aa565b61016d565b6100e96100e43660046107c1565b61017d565b005b6100a66100f93660046107aa565b6103ec565b61011161010c366004610802565b6104ae565b6040519081526020016100ba565b6101116101f481565b6100a66005600160991b0181565b6101115f5481565b6101117f000000000000000000000000000000000000000000000000000000000000000081565b6100a6610554565b5f610177826103ec565b92915050565b6040516306f8253560e41b815263ffffffff821660048201525f9081906005600160991b0190636f825350906024015f60405180830381865afa1580156101c6573d5f803e3d5ffd5b505050506040513d5f823e601f3d908101601f191682016040526101ed919081019061089f565b91509150806102545760405162461bcd60e51b815260206004820152602860248201527f54656c65706f7274657252656769737472793a20696e76616c69642077617270604482015267206d65737361676560c01b60648201526084015b60405180910390fd5b81517f0000000000000000000000000000000000000000000000000000000000000000146102d85760405162461bcd60e51b815260206004820152602b60248201527f54656c65706f7274657252656769737472793a20696e76616c696420736f757260448201526a18d94818da185a5b88125160aa1b606482015260840161024b565b60208201516001600160a01b03161561034d5760405162461bcd60e51b815260206004820152603160248201527f54656c65706f7274657252656769737472793a20696e76616c6964206f726967604482015270696e2073656e646572206164647265737360781b606482015260840161024b565b5f808360400151806020019051810190610367919061099e565b90925090506001600160a01b03811630146103dc5760405162461bcd60e51b815260206004820152602f60248201527f54656c65706f7274657252656769737472793a20696e76616c6964206465737460448201526e696e6174696f6e206164647265737360881b606482015260840161024b565b6103e582610564565b5050505050565b5f815f0361043c5760405162461bcd60e51b815260206004820181905260248201527f54656c65706f7274657252656769737472793a207a65726f2076657273696f6e604482015260640161024b565b5f828152600160205260409020546001600160a01b0316806101775760405162461bcd60e51b815260206004820152602560248201527f54656c65706f7274657252656769737472793a2076657273696f6e206e6f7420604482015264199bdd5b9960da1b606482015260840161024b565b5f6001600160a01b0382166104d55760405162461bcd60e51b815260040161024b90610a17565b6001600160a01b0382165f90815260026020526040812054908190036101775760405162461bcd60e51b815260206004820152602e60248201527f54656c65706f7274657252656769737472793a2070726f746f636f6c2061646460448201526d1c995cdcc81b9bdd08199bdd5b9960921b606482015260840161024b565b5f61055f5f546103ec565b905090565b80515f036105b45760405162461bcd60e51b815260206004820181905260248201527f54656c65706f7274657252656769737472793a207a65726f2076657273696f6e604482015260640161024b565b80515f908152600160205260409020546001600160a01b03161561062d5760405162461bcd60e51b815260206004820152602a60248201527f54656c65706f7274657252656769737472793a2076657273696f6e20616c72656044820152696164792065786973747360b01b606482015260840161024b565b60208101516001600160a01b03166106575760405162461bcd60e51b815260040161024b90610a17565b5f546106656101f482610a60565b825111156106cc5760405162461bcd60e51b815260206004820152602e60248201527f54656c65706f7274657252656769737472793a2076657273696f6e20696e637260448201526d0cadacadce840e8dede40d0d2ced60931b606482015260840161024b565b6020828101805184515f90815260018452604080822080546001600160a01b0319166001600160a01b03948516179055925190911681526002909252902054825111156107335781516020808401516001600160a01b03165f908152600290915260409020555b602082015182516040516001600160a01b03909216917fa5eed93d951a9603d5f7c0a57de79a299dd3dbd5e51429be209d8053a42ab43a905f90a381518110156107a65781515f81815560405183917f30623e953733f6474dabdfbef1103ce15ab73cdc77c6dfad0f9874d167e8a9b091a35b5050565b5f602082840312156107ba575f80fd5b5035919050565b5f602082840312156107d1575f80fd5b813563ffffffff811681146107e4575f80fd5b9392505050565b6001600160a01b03811681146107ff575f80fd5b50565b5f60208284031215610812575f80fd5b81356107e4816107eb565b634e487b7160e01b5f52604160045260245ffd5b6040516060810167ffffffffffffffff811182821017156108545761085461081d565b60405290565b604051601f8201601f1916810167ffffffffffffffff811182821017156108835761088361081d565b604052919050565b8051801515811461089a575f80fd5b919050565b5f80604083850312156108b0575f80fd5b825167ffffffffffffffff808211156108c7575f80fd5b90840190606082870312156108da575f80fd5b6108e2610831565b825181526020808401516108f5816107eb565b8282015260408401518381111561090a575f80fd5b80850194505087601f85011261091e575f80fd5b8351838111156109305761093061081d565b610942601f8201601f1916830161085a565b93508084528882828701011115610957575f80fd5b5f5b81811015610974578581018301518582018401528201610959565b505f8282860101525082604083015281955061099181880161088b565b9450505050509250929050565b5f8082840360608112156109b0575f80fd5b60408112156109bd575f80fd5b506040516040810181811067ffffffffffffffff821117156109e1576109e161081d565b6040528351815260208401516109f6816107eb565b60208201526040840151909250610a0c816107eb565b809150509250929050565b60208082526029908201527f54656c65706f7274657252656769737472793a207a65726f2070726f746f636f6040820152686c206164647265737360b81b606082015260800190565b8082018082111561017757634e487b7160e01b5f52601160045260245ffdfea164736f6c6343000819000a",
    "linkReferences": {}
  },
  "methodIdentifiers": {
    "MAX_VERSION_INCREMENT()": "ac473ac3",
    "VALIDATORS_SOURCE_ADDRESS()": "0731775d",
    "WARP_MESSENGER()": "b771b3bc",
    "addProtocolVersion(uint32)": "41f34ed9",
    "blockchainID()": "d127dc9b",
    "getAddressFromVersion(uint256)": "46f9ef49",
    "getLatestTeleporter()": "d820e64f",
    "getTeleporterFromVersion(uint256)": "215abce9",
    "getVersionFromAddress(address)": "4c1f08ce",
    "latestVersion()": "c07f47d4"
  },
  "id": 46
}